{
  "address": "0x3D726351278f8FefB39A261B005669f0e306db5b",
  "abi": [
    {
      "inputs": [],
      "stateMutability": "nonpayable",
      "type": "constructor"
    },
    {
      "inputs": [
        {
          "internalType": "address",
          "name": "router",
          "type": "address"
        }
      ],
      "name": "InvalidRouter",
      "type": "error"
    },
    {
      "inputs": [],
      "name": "_usdcToken",
      "outputs": [
        {
          "internalType": "address",
          "name": "",
          "type": "address"
        }
      ],
      "stateMutability": "view",
      "type": "function"
    },
    {
      "inputs": [
        {
          "internalType": "address",
          "name": "",
          "type": "address"
        }
      ],
      "name": "balances",
      "outputs": [
        {
          "internalType": "uint256",
          "name": "",
          "type": "uint256"
        }
      ],
      "stateMutability": "view",
      "type": "function"
    },
    {
      "inputs": [
        {
          "internalType": "uint256",
          "name": "id",
          "type": "uint256"
        },
        {
          "internalType": "address",
          "name": "businessAddress",
          "type": "address"
        },
        {
          "internalType": "uint256",
          "name": "businessAmount",
          "type": "uint256"
        },
        {
          "internalType": "address",
          "name": "dispatcherAddress",
          "type": "address"
        },
        {
          "internalType": "uint256",
          "name": "dispatcherAmount",
          "type": "uint256"
        }
      ],
      "name": "ccipInputsToBytes",
      "outputs": [
        {
          "internalType": "bytes",
          "name": "",
          "type": "bytes"
        }
      ],
      "stateMutability": "pure",
      "type": "function"
    },
    {
      "inputs": [
        {
          "components": [
            {
              "internalType": "bytes32",
              "name": "messageId",
              "type": "bytes32"
            },
            {
              "internalType": "uint64",
              "name": "sourceChainSelector",
              "type": "uint64"
            },
            {
              "internalType": "bytes",
              "name": "sender",
              "type": "bytes"
            },
            {
              "internalType": "bytes",
              "name": "data",
              "type": "bytes"
            },
            {
              "components": [
                {
                  "internalType": "address",
                  "name": "token",
                  "type": "address"
                },
                {
                  "internalType": "uint256",
                  "name": "amount",
                  "type": "uint256"
                }
              ],
              "internalType": "struct Client.EVMTokenAmount[]",
              "name": "destTokenAmounts",
              "type": "tuple[]"
            }
          ],
          "internalType": "struct Client.Any2EVMMessage",
          "name": "message",
          "type": "tuple"
        }
      ],
      "name": "ccipReceive",
      "outputs": [],
      "stateMutability": "nonpayable",
      "type": "function"
    },
    {
      "inputs": [
        {
          "internalType": "bytes",
          "name": "data",
          "type": "bytes"
        }
      ],
      "name": "converBytes",
      "outputs": [
        {
          "internalType": "uint256",
          "name": "",
          "type": "uint256"
        },
        {
          "internalType": "address",
          "name": "",
          "type": "address"
        },
        {
          "internalType": "uint256",
          "name": "",
          "type": "uint256"
        },
        {
          "internalType": "address",
          "name": "",
          "type": "address"
        },
        {
          "internalType": "uint256",
          "name": "",
          "type": "uint256"
        }
      ],
      "stateMutability": "pure",
      "type": "function"
    },
    {
      "inputs": [],
      "name": "getRouter",
      "outputs": [
        {
          "internalType": "address",
          "name": "",
          "type": "address"
        }
      ],
      "stateMutability": "view",
      "type": "function"
    },
    {
      "inputs": [
        {
          "internalType": "uint256",
          "name": "",
          "type": "uint256"
        }
      ],
      "name": "messages",
      "outputs": [
        {
          "internalType": "uint256",
          "name": "id",
          "type": "uint256"
        },
        {
          "internalType": "address",
          "name": "businessAddress",
          "type": "address"
        },
        {
          "internalType": "uint256",
          "name": "businessAmount",
          "type": "uint256"
        },
        {
          "internalType": "address",
          "name": "dispatcherAddress",
          "type": "address"
        },
        {
          "internalType": "uint256",
          "name": "dispatcherAmount",
          "type": "uint256"
        }
      ],
      "stateMutability": "view",
      "type": "function"
    },
    {
      "inputs": [
        {
          "internalType": "bytes4",
          "name": "interfaceId",
          "type": "bytes4"
        }
      ],
      "name": "supportsInterface",
      "outputs": [
        {
          "internalType": "bool",
          "name": "",
          "type": "bool"
        }
      ],
      "stateMutability": "pure",
      "type": "function"
    },
    {
      "inputs": [],
      "name": "withdraw",
      "outputs": [],
      "stateMutability": "nonpayable",
      "type": "function"
    }
  ],
  "transactionHash": "0xa999e9f517d5c71104bc39c58767b57b3d568400eb6a4f1f13f0ee8da847a015",
  "args": [],
  "numDeployments": 2,
  "solcInputHash": "208ba58ef9913145f2f1f18e94dc4a0a",
  "bytecode": "0x60a06040527375faf114eafb1bdbe2f0316df893fd58ce46aa4d6000806101000a81548173ffffffffffffffffffffffffffffffffffffffff021916908373ffffffffffffffffffffffffffffffffffffffff16021790555034801561006457600080fd5b50732a9c5afb0d0e4bab2bcdae109ec4b0c4be15a165600073ffffffffffffffffffffffffffffffffffffffff168173ffffffffffffffffffffffffffffffffffffffff16036100ec5760006040517fd7f733340000000000000000000000000000000000000000000000000000000081526004016100e39190610167565b60405180910390fd5b8073ffffffffffffffffffffffffffffffffffffffff1660808173ffffffffffffffffffffffffffffffffffffffff168152505050610182565b600073ffffffffffffffffffffffffffffffffffffffff82169050919050565b600061015182610126565b9050919050565b61016181610146565b82525050565b600060208201905061017c6000830184610158565b92915050565b6080516112d26101a4600039600081816104ae01526105ae01526112d26000f3fe608060405234801561001057600080fd5b50600436106100935760003560e01c80634ff61bc9116100665780634ff61bc91461013657806385572ffb1461016a5780638923d5a2146101865780639172bee1146101a4578063b0f479a1146101d457610093565b806301ffc9a7146100985780630d80fefd146100c857806327e235e3146100fc5780633ccfd60b1461012c575b600080fd5b6100b260048036038101906100ad9190610831565b6101f2565b6040516100bf9190610879565b60405180910390f35b6100e260048036038101906100dd91906108ca565b6102c4565b6040516100f3959493929190610947565b60405180910390f35b610116600480360381019061011191906109c6565b61033a565b60405161012391906109f3565b60405180910390f35b610134610352565b005b610150600480360381019061014b9190610b54565b61047d565b604051610161959493929190610947565b60405180910390f35b610184600480360381019061017f9190610bc1565b6104ac565b005b61018e610551565b60405161019b9190610c0a565b60405180910390f35b6101be60048036038101906101b99190610c25565b610575565b6040516101cb9190610d1f565b60405180910390f35b6101dc6105aa565b6040516101e99190610c0a565b60405180910390f35b60007f85572ffb000000000000000000000000000000000000000000000000000000007bffffffffffffffffffffffffffffffffffffffffffffffffffffffff1916827bffffffffffffffffffffffffffffffffffffffffffffffffffffffff191614806102bd57507f01ffc9a7000000000000000000000000000000000000000000000000000000007bffffffffffffffffffffffffffffffffffffffffffffffffffffffff1916827bffffffffffffffffffffffffffffffffffffffffffffffffffffffff1916145b9050919050565b60016020528060005260406000206000915090508060000154908060010160009054906101000a900473ffffffffffffffffffffffffffffffffffffffff16908060020154908060030160009054906101000a900473ffffffffffffffffffffffffffffffffffffffff16908060040154905085565b60026020528060005260406000206000915090505481565b6000600260003373ffffffffffffffffffffffffffffffffffffffff1673ffffffffffffffffffffffffffffffffffffffff1681526020019081526020016000205490506000600260003373ffffffffffffffffffffffffffffffffffffffff1673ffffffffffffffffffffffffffffffffffffffff1681526020019081526020016000208190555060008054906101000a900473ffffffffffffffffffffffffffffffffffffffff1673ffffffffffffffffffffffffffffffffffffffff1663a9059cbb33836040518363ffffffff1660e01b8152600401610436929190610d41565b6020604051808303816000875af1158015610455573d6000803e3d6000fd5b505050506040513d601f19601f820116820180604052508101906104799190610d96565b5050565b6000806000806000858060200190518101906104999190610e16565b9450945094509450945091939590929450565b7f000000000000000000000000000000000000000000000000000000000000000073ffffffffffffffffffffffffffffffffffffffff163373ffffffffffffffffffffffffffffffffffffffff161461053c57336040517fd7f733340000000000000000000000000000000000000000000000000000000081526004016105339190610c0a565b60405180910390fd5b61054e8161054990611109565b6105d2565b50565b60008054906101000a900473ffffffffffffffffffffffffffffffffffffffff1681565b6060858585858560405160200161059095949392919061119f565b604051602081830303815290604052905095945050505050565b60007f0000000000000000000000000000000000000000000000000000000000000000905090565b600080600080600085606001518060200190518101906105f29190610e16565b945094509450945094506040518060a001604052808681526020018573ffffffffffffffffffffffffffffffffffffffff1681526020018481526020018373ffffffffffffffffffffffffffffffffffffffff16815260200182815250600160008781526020019081526020016000206000820151816000015560208201518160010160006101000a81548173ffffffffffffffffffffffffffffffffffffffff021916908373ffffffffffffffffffffffffffffffffffffffff1602179055506040820151816002015560608201518160030160006101000a81548173ffffffffffffffffffffffffffffffffffffffff021916908373ffffffffffffffffffffffffffffffffffffffff1602179055506080820151816004015590505080600260008473ffffffffffffffffffffffffffffffffffffffff1673ffffffffffffffffffffffffffffffffffffffff16815260200190815260200160002060008282546107609190611234565b9250508190555082600260008673ffffffffffffffffffffffffffffffffffffffff1673ffffffffffffffffffffffffffffffffffffffff16815260200190815260200160002060008282546107b69190611268565b92505081905550505050505050565b6000604051905090565b600080fd5b600080fd5b60007fffffffff0000000000000000000000000000000000000000000000000000000082169050919050565b61080e816107d9565b811461081957600080fd5b50565b60008135905061082b81610805565b92915050565b600060208284031215610847576108466107cf565b5b60006108558482850161081c565b91505092915050565b60008115159050919050565b6108738161085e565b82525050565b600060208201905061088e600083018461086a565b92915050565b6000819050919050565b6108a781610894565b81146108b257600080fd5b50565b6000813590506108c48161089e565b92915050565b6000602082840312156108e0576108df6107cf565b5b60006108ee848285016108b5565b91505092915050565b61090081610894565b82525050565b600073ffffffffffffffffffffffffffffffffffffffff82169050919050565b600061093182610906565b9050919050565b61094181610926565b82525050565b600060a08201905061095c60008301886108f7565b6109696020830187610938565b61097660408301866108f7565b6109836060830185610938565b61099060808301846108f7565b9695505050505050565b6109a381610926565b81146109ae57600080fd5b50565b6000813590506109c08161099a565b92915050565b6000602082840312156109dc576109db6107cf565b5b60006109ea848285016109b1565b91505092915050565b6000602082019050610a0860008301846108f7565b92915050565b600080fd5b600080fd5b6000601f19601f8301169050919050565b7f4e487b7100000000000000000000000000000000000000000000000000000000600052604160045260246000fd5b610a6182610a18565b810181811067ffffffffffffffff82111715610a8057610a7f610a29565b5b80604052505050565b6000610a936107c5565b9050610a9f8282610a58565b919050565b600067ffffffffffffffff821115610abf57610abe610a29565b5b610ac882610a18565b9050602081019050919050565b82818337600083830152505050565b6000610af7610af284610aa4565b610a89565b905082815260208101848484011115610b1357610b12610a13565b5b610b1e848285610ad5565b509392505050565b600082601f830112610b3b57610b3a610a0e565b5b8135610b4b848260208601610ae4565b91505092915050565b600060208284031215610b6a57610b696107cf565b5b600082013567ffffffffffffffff811115610b8857610b876107d4565b5b610b9484828501610b26565b91505092915050565b600080fd5b600060a08284031215610bb857610bb7610b9d565b5b81905092915050565b600060208284031215610bd757610bd66107cf565b5b600082013567ffffffffffffffff811115610bf557610bf46107d4565b5b610c0184828501610ba2565b91505092915050565b6000602082019050610c1f6000830184610938565b92915050565b600080600080600060a08688031215610c4157610c406107cf565b5b6000610c4f888289016108b5565b9550506020610c60888289016109b1565b9450506040610c71888289016108b5565b9350506060610c82888289016109b1565b9250506080610c93888289016108b5565b9150509295509295909350565b600081519050919050565b600082825260208201905092915050565b60005b83811015610cda578082015181840152602081019050610cbf565b60008484015250505050565b6000610cf182610ca0565b610cfb8185610cab565b9350610d0b818560208601610cbc565b610d1481610a18565b840191505092915050565b60006020820190508181036000830152610d398184610ce6565b905092915050565b6000604082019050610d566000830185610938565b610d6360208301846108f7565b9392505050565b610d738161085e565b8114610d7e57600080fd5b50565b600081519050610d9081610d6a565b92915050565b600060208284031215610dac57610dab6107cf565b5b6000610dba84828501610d81565b91505092915050565b600081519050610dd28161089e565b92915050565b6000610de382610906565b9050919050565b610df381610dd8565b8114610dfe57600080fd5b50565b600081519050610e1081610dea565b92915050565b600080600080600060a08688031215610e3257610e316107cf565b5b6000610e4088828901610dc3565b9550506020610e5188828901610e01565b9450506040610e6288828901610dc3565b9350506060610e7388828901610e01565b9250506080610e8488828901610dc3565b9150509295509295909350565b600080fd5b600080fd5b6000819050919050565b610eae81610e9b565b8114610eb957600080fd5b50565b600081359050610ecb81610ea5565b92915050565b600067ffffffffffffffff82169050919050565b610eee81610ed1565b8114610ef957600080fd5b50565b600081359050610f0b81610ee5565b92915050565b600067ffffffffffffffff821115610f2c57610f2b610a29565b5b602082029050602081019050919050565b600080fd5b600060408284031215610f5857610f57610e91565b5b610f626040610a89565b90506000610f72848285016109b1565b6000830152506020610f86848285016108b5565b60208301525092915050565b6000610fa5610fa084610f11565b610a89565b90508083825260208201905060408402830185811115610fc857610fc7610f3d565b5b835b81811015610ff15780610fdd8882610f42565b845260208401935050604081019050610fca565b5050509392505050565b600082601f8301126110105761100f610a0e565b5b8135611020848260208601610f92565b91505092915050565b600060a0828403121561103f5761103e610e91565b5b61104960a0610a89565b9050600061105984828501610ebc565b600083015250602061106d84828501610efc565b602083015250604082013567ffffffffffffffff81111561109157611090610e96565b5b61109d84828501610b26565b604083015250606082013567ffffffffffffffff8111156110c1576110c0610e96565b5b6110cd84828501610b26565b606083015250608082013567ffffffffffffffff8111156110f1576110f0610e96565b5b6110fd84828501610ffb565b60808301525092915050565b60006111153683611029565b9050919050565b600082825260208201905092915050565b7f2875696e743235362c616464726573732c75696e743235362c6164647265737360008201527f2c75696e74323536290000000000000000000000000000000000000000000000602082015250565b600061118960298361111c565b91506111948261112d565b604082019050919050565b600060c08201905081810360008301526111b88161117c565b90506111c760208301886108f7565b6111d46040830187610938565b6111e160608301866108f7565b6111ee6080830185610938565b6111fb60a08301846108f7565b9695505050505050565b7f4e487b7100000000000000000000000000000000000000000000000000000000600052601160045260246000fd5b600061123f82610894565b915061124a83610894565b925082820190508082111561126257611261611205565b5b92915050565b600061127382610894565b915061127e83610894565b925082820390508181111561129657611295611205565b5b9291505056fea26469706673582212209fe81978cf29a1da042cd5c854219fb84db65d06902709c5411d0cd040ffca4264736f6c63430008190033",
  "devdoc": {
    "kind": "dev",
    "methods": {
      "ccipReceive((bytes32,uint64,bytes,bytes,(address,uint256)[]))": {
        "details": "Note ensure you check the msg.sender is the OffRampRouter",
        "params": {
          "message": "CCIP Message"
        }
      },
      "getRouter()": {
        "returns": {
          "_0": "CCIP router address"
        }
      },
      "supportsInterface(bytes4)": {
        "details": "Should indicate whether the contract implements IAny2EVMMessageReceiver e.g. return interfaceId == type(IAny2EVMMessageReceiver).interfaceId || interfaceId == type(IERC165).interfaceId This allows CCIP to check if ccipReceive is available before calling it. If this returns false or reverts, only tokens are transferred to the receiver. If this returns true, tokens are transferred and ccipReceive is called atomically. Additionally, if the receiver address does not have code associated with it at the time of execution (EXTCODESIZE returns 0), only tokens will be transferred.",
        "params": {
          "interfaceId": "The interfaceId to check"
        },
        "returns": {
          "_0": "true if the interfaceId is supported"
        }
      }
    },
    "version": 1
  },
  "userdoc": {
    "kind": "user",
    "methods": {
      "ccipReceive((bytes32,uint64,bytes,bytes,(address,uint256)[]))": {
        "notice": "Called by the Router to deliver a message. If this reverts, any token transfers also revert. The message will move to a FAILED state and become available for manual execution."
      },
      "getRouter()": {
        "notice": "Return the current router"
      },
      "supportsInterface(bytes4)": {
        "notice": "IERC165 supports an interfaceId"
      }
    },
    "version": 1
  },
  "storageLayout": {
    "storage": [
      {
        "astId": 1068,
        "contract": "contracts/ArbitrumReceiver.sol:ArbitrumReceiver",
        "label": "_usdcToken",
        "offset": 0,
        "slot": "0",
        "type": "t_address"
      },
      {
        "astId": 1084,
        "contract": "contracts/ArbitrumReceiver.sol:ArbitrumReceiver",
        "label": "messages",
        "offset": 0,
        "slot": "1",
        "type": "t_mapping(t_uint256,t_struct(Messages)1079_storage)"
      },
      {
        "astId": 1088,
        "contract": "contracts/ArbitrumReceiver.sol:ArbitrumReceiver",
        "label": "balances",
        "offset": 0,
        "slot": "2",
        "type": "t_mapping(t_address,t_uint256)"
      }
    ],
    "types": {
      "t_address": {
        "encoding": "inplace",
        "label": "address",
        "numberOfBytes": "20"
      },
      "t_mapping(t_address,t_uint256)": {
        "encoding": "mapping",
        "key": "t_address",
        "label": "mapping(address => uint256)",
        "numberOfBytes": "32",
        "value": "t_uint256"
      },
      "t_mapping(t_uint256,t_struct(Messages)1079_storage)": {
        "encoding": "mapping",
        "key": "t_uint256",
        "label": "mapping(uint256 => struct ArbitrumReceiver.Messages)",
        "numberOfBytes": "32",
        "value": "t_struct(Messages)1079_storage"
      },
      "t_struct(Messages)1079_storage": {
        "encoding": "inplace",
        "label": "struct ArbitrumReceiver.Messages",
        "members": [
          {
            "astId": 1070,
            "contract": "contracts/ArbitrumReceiver.sol:ArbitrumReceiver",
            "label": "id",
            "offset": 0,
            "slot": "0",
            "type": "t_uint256"
          },
          {
            "astId": 1072,
            "contract": "contracts/ArbitrumReceiver.sol:ArbitrumReceiver",
            "label": "businessAddress",
            "offset": 0,
            "slot": "1",
            "type": "t_address"
          },
          {
            "astId": 1074,
            "contract": "contracts/ArbitrumReceiver.sol:ArbitrumReceiver",
            "label": "businessAmount",
            "offset": 0,
            "slot": "2",
            "type": "t_uint256"
          },
          {
            "astId": 1076,
            "contract": "contracts/ArbitrumReceiver.sol:ArbitrumReceiver",
            "label": "dispatcherAddress",
            "offset": 0,
            "slot": "3",
            "type": "t_address"
          },
          {
            "astId": 1078,
            "contract": "contracts/ArbitrumReceiver.sol:ArbitrumReceiver",
            "label": "dispatcherAmount",
            "offset": 0,
            "slot": "4",
            "type": "t_uint256"
          }
        ],
        "numberOfBytes": "160"
      },
      "t_uint256": {
        "encoding": "inplace",
        "label": "uint256",
        "numberOfBytes": "32"
      }
    }
  }
}