{
  "address": "0x2f0610E798DA279afF4109565D4F522E8915Ac7A",
  "abi": [
    {
      "inputs": [],
      "stateMutability": "nonpayable",
      "type": "constructor"
    },
    {
      "inputs": [
        {
          "internalType": "address",
          "name": "router",
          "type": "address"
        }
      ],
      "name": "InvalidRouter",
      "type": "error"
    },
    {
      "inputs": [],
      "name": "_usdcToken",
      "outputs": [
        {
          "internalType": "address",
          "name": "",
          "type": "address"
        }
      ],
      "stateMutability": "view",
      "type": "function"
    },
    {
      "inputs": [
        {
          "internalType": "address",
          "name": "",
          "type": "address"
        }
      ],
      "name": "balances",
      "outputs": [
        {
          "internalType": "uint256",
          "name": "",
          "type": "uint256"
        }
      ],
      "stateMutability": "view",
      "type": "function"
    },
    {
      "inputs": [
        {
          "components": [
            {
              "internalType": "bytes32",
              "name": "messageId",
              "type": "bytes32"
            },
            {
              "internalType": "uint64",
              "name": "sourceChainSelector",
              "type": "uint64"
            },
            {
              "internalType": "bytes",
              "name": "sender",
              "type": "bytes"
            },
            {
              "internalType": "bytes",
              "name": "data",
              "type": "bytes"
            },
            {
              "components": [
                {
                  "internalType": "address",
                  "name": "token",
                  "type": "address"
                },
                {
                  "internalType": "uint256",
                  "name": "amount",
                  "type": "uint256"
                }
              ],
              "internalType": "struct Client.EVMTokenAmount[]",
              "name": "destTokenAmounts",
              "type": "tuple[]"
            }
          ],
          "internalType": "struct Client.Any2EVMMessage",
          "name": "message",
          "type": "tuple"
        }
      ],
      "name": "ccipReceive",
      "outputs": [],
      "stateMutability": "nonpayable",
      "type": "function"
    },
    {
      "inputs": [],
      "name": "getRouter",
      "outputs": [
        {
          "internalType": "address",
          "name": "",
          "type": "address"
        }
      ],
      "stateMutability": "view",
      "type": "function"
    },
    {
      "inputs": [
        {
          "internalType": "uint256",
          "name": "",
          "type": "uint256"
        }
      ],
      "name": "messages",
      "outputs": [
        {
          "internalType": "uint256",
          "name": "id",
          "type": "uint256"
        },
        {
          "internalType": "address",
          "name": "businessAddress",
          "type": "address"
        },
        {
          "internalType": "uint256",
          "name": "businessAmount",
          "type": "uint256"
        },
        {
          "internalType": "address",
          "name": "dispatcherAddress",
          "type": "address"
        },
        {
          "internalType": "uint256",
          "name": "dispatcherAmount",
          "type": "uint256"
        }
      ],
      "stateMutability": "view",
      "type": "function"
    },
    {
      "inputs": [
        {
          "internalType": "bytes4",
          "name": "interfaceId",
          "type": "bytes4"
        }
      ],
      "name": "supportsInterface",
      "outputs": [
        {
          "internalType": "bool",
          "name": "",
          "type": "bool"
        }
      ],
      "stateMutability": "pure",
      "type": "function"
    },
    {
      "inputs": [],
      "name": "withdraw",
      "outputs": [],
      "stateMutability": "nonpayable",
      "type": "function"
    }
  ],
  "transactionHash": "0x8161010c9ed8de5758c39e66e87933e8496b7163444d05da9696b9c0d7b3ce3a",
  "args": [],
  "numDeployments": 1,
  "solcInputHash": "57c9fe41b1b770660597588f0d7831bd",
  "bytecode": "0x60a06040527375faf114eafb1bdbe2f0316df893fd58ce46aa4d6000806101000a81548173ffffffffffffffffffffffffffffffffffffffff021916908373ffffffffffffffffffffffffffffffffffffffff16021790555034801561006457600080fd5b50732a9c5afb0d0e4bab2bcdae109ec4b0c4be15a165600073ffffffffffffffffffffffffffffffffffffffff168173ffffffffffffffffffffffffffffffffffffffff16036100ec5760006040517fd7f733340000000000000000000000000000000000000000000000000000000081526004016100e39190610167565b60405180910390fd5b8073ffffffffffffffffffffffffffffffffffffffff1660808173ffffffffffffffffffffffffffffffffffffffff168152505050610182565b600073ffffffffffffffffffffffffffffffffffffffff82169050919050565b600061015182610126565b9050919050565b61016181610146565b82525050565b600060208201905061017c6000830184610158565b92915050565b608051610fa66101a46000396000818161040501526104d00152610fa66000f3fe608060405234801561001057600080fd5b506004361061007d5760003560e01c80633ccfd60b1161005b5780633ccfd60b1461011657806385572ffb146101205780638923d5a21461013c578063b0f479a11461015a5761007d565b806301ffc9a7146100825780630d80fefd146100b257806327e235e3146100e6575b600080fd5b61009c60048036038101906100979190610753565b610178565b6040516100a9919061079b565b60405180910390f35b6100cc60048036038101906100c791906107ec565b61024a565b6040516100dd959493929190610869565b60405180910390f35b61010060048036038101906100fb91906108e8565b6102c0565b60405161010d9190610915565b60405180910390f35b61011e6102d8565b005b61013a60048036038101906101359190610954565b610403565b005b6101446104a8565b604051610151919061099d565b60405180910390f35b6101626104cc565b60405161016f919061099d565b60405180910390f35b60007f85572ffb000000000000000000000000000000000000000000000000000000007bffffffffffffffffffffffffffffffffffffffffffffffffffffffff1916827bffffffffffffffffffffffffffffffffffffffffffffffffffffffff1916148061024357507f01ffc9a7000000000000000000000000000000000000000000000000000000007bffffffffffffffffffffffffffffffffffffffffffffffffffffffff1916827bffffffffffffffffffffffffffffffffffffffffffffffffffffffff1916145b9050919050565b60016020528060005260406000206000915090508060000154908060010160009054906101000a900473ffffffffffffffffffffffffffffffffffffffff16908060020154908060030160009054906101000a900473ffffffffffffffffffffffffffffffffffffffff16908060040154905085565b60026020528060005260406000206000915090505481565b6000600260003373ffffffffffffffffffffffffffffffffffffffff1673ffffffffffffffffffffffffffffffffffffffff1681526020019081526020016000205490506000600260003373ffffffffffffffffffffffffffffffffffffffff1673ffffffffffffffffffffffffffffffffffffffff1681526020019081526020016000208190555060008054906101000a900473ffffffffffffffffffffffffffffffffffffffff1673ffffffffffffffffffffffffffffffffffffffff1663a9059cbb33836040518363ffffffff1660e01b81526004016103bc9291906109b8565b6020604051808303816000875af11580156103db573d6000803e3d6000fd5b505050506040513d601f19601f820116820180604052508101906103ff9190610a0d565b5050565b7f000000000000000000000000000000000000000000000000000000000000000073ffffffffffffffffffffffffffffffffffffffff163373ffffffffffffffffffffffffffffffffffffffff161461049357336040517fd7f7333400000000000000000000000000000000000000000000000000000000815260040161048a919061099d565b60405180910390fd5b6104a5816104a090610df8565b6104f4565b50565b60008054906101000a900473ffffffffffffffffffffffffffffffffffffffff1681565b60007f0000000000000000000000000000000000000000000000000000000000000000905090565b600080600080600085606001518060200190518101906105149190610e5e565b945094509450945094506040518060a001604052808681526020018573ffffffffffffffffffffffffffffffffffffffff1681526020018481526020018373ffffffffffffffffffffffffffffffffffffffff16815260200182815250600160008781526020019081526020016000206000820151816000015560208201518160010160006101000a81548173ffffffffffffffffffffffffffffffffffffffff021916908373ffffffffffffffffffffffffffffffffffffffff1602179055506040820151816002015560608201518160030160006101000a81548173ffffffffffffffffffffffffffffffffffffffff021916908373ffffffffffffffffffffffffffffffffffffffff1602179055506080820151816004015590505080600260008473ffffffffffffffffffffffffffffffffffffffff1673ffffffffffffffffffffffffffffffffffffffff16815260200190815260200160002060008282546106829190610f08565b9250508190555082600260008673ffffffffffffffffffffffffffffffffffffffff1673ffffffffffffffffffffffffffffffffffffffff16815260200190815260200160002060008282546106d89190610f3c565b92505081905550505050505050565b6000604051905090565b600080fd5b600080fd5b60007fffffffff0000000000000000000000000000000000000000000000000000000082169050919050565b610730816106fb565b811461073b57600080fd5b50565b60008135905061074d81610727565b92915050565b600060208284031215610769576107686106f1565b5b60006107778482850161073e565b91505092915050565b60008115159050919050565b61079581610780565b82525050565b60006020820190506107b0600083018461078c565b92915050565b6000819050919050565b6107c9816107b6565b81146107d457600080fd5b50565b6000813590506107e6816107c0565b92915050565b600060208284031215610802576108016106f1565b5b6000610810848285016107d7565b91505092915050565b610822816107b6565b82525050565b600073ffffffffffffffffffffffffffffffffffffffff82169050919050565b600061085382610828565b9050919050565b61086381610848565b82525050565b600060a08201905061087e6000830188610819565b61088b602083018761085a565b6108986040830186610819565b6108a5606083018561085a565b6108b26080830184610819565b9695505050505050565b6108c581610848565b81146108d057600080fd5b50565b6000813590506108e2816108bc565b92915050565b6000602082840312156108fe576108fd6106f1565b5b600061090c848285016108d3565b91505092915050565b600060208201905061092a6000830184610819565b92915050565b600080fd5b600060a0828403121561094b5761094a610930565b5b81905092915050565b60006020828403121561096a576109696106f1565b5b600082013567ffffffffffffffff811115610988576109876106f6565b5b61099484828501610935565b91505092915050565b60006020820190506109b2600083018461085a565b92915050565b60006040820190506109cd600083018561085a565b6109da6020830184610819565b9392505050565b6109ea81610780565b81146109f557600080fd5b50565b600081519050610a07816109e1565b92915050565b600060208284031215610a2357610a226106f1565b5b6000610a31848285016109f8565b91505092915050565b600080fd5b6000601f19601f8301169050919050565b7f4e487b7100000000000000000000000000000000000000000000000000000000600052604160045260246000fd5b610a8882610a3f565b810181811067ffffffffffffffff82111715610aa757610aa6610a50565b5b80604052505050565b6000610aba6106e7565b9050610ac68282610a7f565b919050565b600080fd5b6000819050919050565b610ae381610ad0565b8114610aee57600080fd5b50565b600081359050610b0081610ada565b92915050565b600067ffffffffffffffff82169050919050565b610b2381610b06565b8114610b2e57600080fd5b50565b600081359050610b4081610b1a565b92915050565b600080fd5b600080fd5b600067ffffffffffffffff821115610b6b57610b6a610a50565b5b610b7482610a3f565b9050602081019050919050565b82818337600083830152505050565b6000610ba3610b9e84610b50565b610ab0565b905082815260208101848484011115610bbf57610bbe610b4b565b5b610bca848285610b81565b509392505050565b600082601f830112610be757610be6610b46565b5b8135610bf7848260208601610b90565b91505092915050565b600067ffffffffffffffff821115610c1b57610c1a610a50565b5b602082029050602081019050919050565b600080fd5b600060408284031215610c4757610c46610a3a565b5b610c516040610ab0565b90506000610c61848285016108d3565b6000830152506020610c75848285016107d7565b60208301525092915050565b6000610c94610c8f84610c00565b610ab0565b90508083825260208201905060408402830185811115610cb757610cb6610c2c565b5b835b81811015610ce05780610ccc8882610c31565b845260208401935050604081019050610cb9565b5050509392505050565b600082601f830112610cff57610cfe610b46565b5b8135610d0f848260208601610c81565b91505092915050565b600060a08284031215610d2e57610d2d610a3a565b5b610d3860a0610ab0565b90506000610d4884828501610af1565b6000830152506020610d5c84828501610b31565b602083015250604082013567ffffffffffffffff811115610d8057610d7f610acb565b5b610d8c84828501610bd2565b604083015250606082013567ffffffffffffffff811115610db057610daf610acb565b5b610dbc84828501610bd2565b606083015250608082013567ffffffffffffffff811115610de057610ddf610acb565b5b610dec84828501610cea565b60808301525092915050565b6000610e043683610d18565b9050919050565b600081519050610e1a816107c0565b92915050565b6000610e2b82610828565b9050919050565b610e3b81610e20565b8114610e4657600080fd5b50565b600081519050610e5881610e32565b92915050565b600080600080600060a08688031215610e7a57610e796106f1565b5b6000610e8888828901610e0b565b9550506020610e9988828901610e49565b9450506040610eaa88828901610e0b565b9350506060610ebb88828901610e49565b9250506080610ecc88828901610e0b565b9150509295509295909350565b7f4e487b7100000000000000000000000000000000000000000000000000000000600052601160045260246000fd5b6000610f13826107b6565b9150610f1e836107b6565b9250828201905080821115610f3657610f35610ed9565b5b92915050565b6000610f47826107b6565b9150610f52836107b6565b9250828203905081811115610f6a57610f69610ed9565b5b9291505056fea2646970667358221220b5882749c0455b604540bd922bd252d134bc70c3a3df168752e1d9ff310d559d64736f6c63430008190033",
  "devdoc": {
    "kind": "dev",
    "methods": {
      "ccipReceive((bytes32,uint64,bytes,bytes,(address,uint256)[]))": {
        "details": "Note ensure you check the msg.sender is the OffRampRouter",
        "params": {
          "message": "CCIP Message"
        }
      },
      "getRouter()": {
        "returns": {
          "_0": "CCIP router address"
        }
      },
      "supportsInterface(bytes4)": {
        "details": "Should indicate whether the contract implements IAny2EVMMessageReceiver e.g. return interfaceId == type(IAny2EVMMessageReceiver).interfaceId || interfaceId == type(IERC165).interfaceId This allows CCIP to check if ccipReceive is available before calling it. If this returns false or reverts, only tokens are transferred to the receiver. If this returns true, tokens are transferred and ccipReceive is called atomically. Additionally, if the receiver address does not have code associated with it at the time of execution (EXTCODESIZE returns 0), only tokens will be transferred.",
        "params": {
          "interfaceId": "The interfaceId to check"
        },
        "returns": {
          "_0": "true if the interfaceId is supported"
        }
      }
    },
    "version": 1
  },
  "userdoc": {
    "kind": "user",
    "methods": {
      "ccipReceive((bytes32,uint64,bytes,bytes,(address,uint256)[]))": {
        "notice": "Called by the Router to deliver a message. If this reverts, any token transfers also revert. The message will move to a FAILED state and become available for manual execution."
      },
      "getRouter()": {
        "notice": "Return the current router"
      },
      "supportsInterface(bytes4)": {
        "notice": "IERC165 supports an interfaceId"
      }
    },
    "version": 1
  },
  "storageLayout": {
    "storage": [
      {
        "astId": 291,
        "contract": "contracts/ArbitrumReceiver.sol:ArbitrumReceiver",
        "label": "_usdcToken",
        "offset": 0,
        "slot": "0",
        "type": "t_address"
      },
      {
        "astId": 307,
        "contract": "contracts/ArbitrumReceiver.sol:ArbitrumReceiver",
        "label": "messages",
        "offset": 0,
        "slot": "1",
        "type": "t_mapping(t_uint256,t_struct(Messages)302_storage)"
      },
      {
        "astId": 311,
        "contract": "contracts/ArbitrumReceiver.sol:ArbitrumReceiver",
        "label": "balances",
        "offset": 0,
        "slot": "2",
        "type": "t_mapping(t_address,t_uint256)"
      }
    ],
    "types": {
      "t_address": {
        "encoding": "inplace",
        "label": "address",
        "numberOfBytes": "20"
      },
      "t_mapping(t_address,t_uint256)": {
        "encoding": "mapping",
        "key": "t_address",
        "label": "mapping(address => uint256)",
        "numberOfBytes": "32",
        "value": "t_uint256"
      },
      "t_mapping(t_uint256,t_struct(Messages)302_storage)": {
        "encoding": "mapping",
        "key": "t_uint256",
        "label": "mapping(uint256 => struct ArbitrumReceiver.Messages)",
        "numberOfBytes": "32",
        "value": "t_struct(Messages)302_storage"
      },
      "t_struct(Messages)302_storage": {
        "encoding": "inplace",
        "label": "struct ArbitrumReceiver.Messages",
        "members": [
          {
            "astId": 293,
            "contract": "contracts/ArbitrumReceiver.sol:ArbitrumReceiver",
            "label": "id",
            "offset": 0,
            "slot": "0",
            "type": "t_uint256"
          },
          {
            "astId": 295,
            "contract": "contracts/ArbitrumReceiver.sol:ArbitrumReceiver",
            "label": "businessAddress",
            "offset": 0,
            "slot": "1",
            "type": "t_address"
          },
          {
            "astId": 297,
            "contract": "contracts/ArbitrumReceiver.sol:ArbitrumReceiver",
            "label": "businessAmount",
            "offset": 0,
            "slot": "2",
            "type": "t_uint256"
          },
          {
            "astId": 299,
            "contract": "contracts/ArbitrumReceiver.sol:ArbitrumReceiver",
            "label": "dispatcherAddress",
            "offset": 0,
            "slot": "3",
            "type": "t_address"
          },
          {
            "astId": 301,
            "contract": "contracts/ArbitrumReceiver.sol:ArbitrumReceiver",
            "label": "dispatcherAmount",
            "offset": 0,
            "slot": "4",
            "type": "t_uint256"
          }
        ],
        "numberOfBytes": "160"
      },
      "t_uint256": {
        "encoding": "inplace",
        "label": "uint256",
        "numberOfBytes": "32"
      }
    }
  }
}