{
  "address": "0xCd44694F9a2558a1B432bB0C58bBeDda5056B85A",
  "abi": [
    {
      "inputs": [
        {
          "internalType": "uint256",
          "name": "id",
          "type": "uint256"
        },
        {
          "internalType": "address",
          "name": "receiver",
          "type": "address"
        },
        {
          "internalType": "uint256",
          "name": "amount",
          "type": "uint256"
        }
      ],
      "name": "inputsToMessage",
      "outputs": [
        {
          "internalType": "bytes",
          "name": "",
          "type": "bytes"
        }
      ],
      "stateMutability": "pure",
      "type": "function"
    },
    {
      "inputs": [],
      "name": "messenger",
      "outputs": [
        {
          "internalType": "contract ITeleporterMessenger",
          "name": "",
          "type": "address"
        }
      ],
      "stateMutability": "view",
      "type": "function"
    },
    {
      "inputs": [
        {
          "internalType": "address",
          "name": "destinationAddress",
          "type": "address"
        },
        {
          "internalType": "uint256",
          "name": "id",
          "type": "uint256"
        },
        {
          "internalType": "address",
          "name": "receiver",
          "type": "address"
        },
        {
          "internalType": "uint256",
          "name": "amount",
          "type": "uint256"
        }
      ],
      "name": "sendMessage",
      "outputs": [],
      "stateMutability": "nonpayable",
      "type": "function"
    }
  ],
  "transactionHash": "0xa28c1a8b1c16accde474321bdc6cb1b6fd3630a1452f59f463d33063e820cf9f",
  "args": [],
  "numDeployments": 1,
  "solcInputHash": "3a4268a96d64f61f3974a8ac1d962546",
  "bytecode": "0x60a060405273253b2784c75e510dd0ff1da844684a1ac0aa5fcf73ffffffffffffffffffffffffffffffffffffffff1660809073ffffffffffffffffffffffffffffffffffffffff16815250348015605657600080fd5b5060805161092b6100786000396000818160b2015261016c015261092b6000f3fe608060405234801561001057600080fd5b50600436106100415760003560e01c80633cb747bf1461004657806377a7a5f014610064578063f4ce3d0614610080575b600080fd5b61004e6100b0565b60405161005b9190610407565b60405180910390f35b61007e6004803603810190610079919061049b565b6100d4565b005b61009a60048036038101906100959190610502565b6102eb565b6040516100a791906105e5565b60405180910390f35b7f000000000000000000000000000000000000000000000000000000000000000081565b60008383836040516024016100eb93929190610625565b6040516020818303038152906040527f29050c73000000000000000000000000000000000000000000000000000000007bffffffffffffffffffffffffffffffffffffffffffffffffffffffff19166020820180517bffffffffffffffffffffffffffffffffffffffffffffffffffffffff838183161783525050505090507f000000000000000000000000000000000000000000000000000000000000000073ffffffffffffffffffffffffffffffffffffffff1663624488506040518060c001604052807f7fc93d85c6d62c5b2ac0b519c87010ea5294012d1e407030d6acd0021cac10d560001b81526020018873ffffffffffffffffffffffffffffffffffffffff1681526020016040518060400160405280600073ffffffffffffffffffffffffffffffffffffffff168152602001600081525081526020016203d0908152602001600067ffffffffffffffff81111561024c5761024b61065c565b5b60405190808252806020026020018201604052801561027a5781602001602082028036833780820191505090505b508152602001848152506040518263ffffffff1660e01b81526004016102a0919061087a565b6020604051808303816000875af11580156102bf573d6000803e3d6000fd5b505050506040513d601f19601f820116820180604052508101906102e391906108c8565b505050505050565b606083838360405160240161030293929190610625565b6040516020818303038152906040527ff099fd6f000000000000000000000000000000000000000000000000000000007bffffffffffffffffffffffffffffffffffffffffffffffffffffffff19166020820180517bffffffffffffffffffffffffffffffffffffffffffffffffffffffff838183161783525050505090509392505050565b600073ffffffffffffffffffffffffffffffffffffffff82169050919050565b6000819050919050565b60006103cd6103c86103c384610388565b6103a8565b610388565b9050919050565b60006103df826103b2565b9050919050565b60006103f1826103d4565b9050919050565b610401816103e6565b82525050565b600060208201905061041c60008301846103f8565b92915050565b600080fd5b600061043282610388565b9050919050565b61044281610427565b811461044d57600080fd5b50565b60008135905061045f81610439565b92915050565b6000819050919050565b61047881610465565b811461048357600080fd5b50565b6000813590506104958161046f565b92915050565b600080600080608085870312156104b5576104b4610422565b5b60006104c387828801610450565b94505060206104d487828801610486565b93505060406104e587828801610450565b92505060606104f687828801610486565b91505092959194509250565b60008060006060848603121561051b5761051a610422565b5b600061052986828701610486565b935050602061053a86828701610450565b925050604061054b86828701610486565b9150509250925092565b600081519050919050565b600082825260208201905092915050565b60005b8381101561058f578082015181840152602081019050610574565b60008484015250505050565b6000601f19601f8301169050919050565b60006105b782610555565b6105c18185610560565b93506105d1818560208601610571565b6105da8161059b565b840191505092915050565b600060208201905081810360008301526105ff81846105ac565b905092915050565b61061081610465565b82525050565b61061f81610427565b82525050565b600060608201905061063a6000830186610607565b6106476020830185610616565b6106546040830184610607565b949350505050565b7f4e487b7100000000000000000000000000000000000000000000000000000000600052604160045260246000fd5b6000819050919050565b61069e8161068b565b82525050565b6106ad81610427565b82525050565b6106bc81610465565b82525050565b6040820160008201516106d860008501826106a4565b5060208201516106eb60208501826106b3565b50505050565b600081519050919050565b600082825260208201905092915050565b6000819050602082019050919050565b600061072983836106a4565b60208301905092915050565b6000602082019050919050565b600061074d826106f1565b61075781856106fc565b93506107628361070d565b8060005b8381101561079357815161077a888261071d565b975061078583610735565b925050600181019050610766565b5085935050505092915050565b600082825260208201905092915050565b60006107bc82610555565b6107c681856107a0565b93506107d6818560208601610571565b6107df8161059b565b840191505092915050565b600060e0830160008301516108026000860182610695565b50602083015161081560208601826106a4565b50604083015161082860408601826106c2565b50606083015161083b60808601826106b3565b50608083015184820360a08601526108538282610742565b91505060a083015184820360c086015261086d82826107b1565b9150508091505092915050565b6000602082019050818103600083015261089481846107ea565b905092915050565b6108a58161068b565b81146108b057600080fd5b50565b6000815190506108c28161089c565b92915050565b6000602082840312156108de576108dd610422565b5b60006108ec848285016108b3565b9150509291505056fea264697066735822122087a50dedd8bce7d0a6843a94e3da2eb056820f50e16807a84e3a948d8f278c1b64736f6c63430008190033",
  "devdoc": {
    "kind": "dev",
    "methods": {
      "sendMessage(address,uint256,address,uint256)": {
        "details": "Sends a message to another chain."
      }
    },
    "version": 1
  },
  "userdoc": {
    "kind": "user",
    "methods": {},
    "version": 1
  },
  "storageLayout": {
    "storage": [],
    "types": null
  }
}