{
  "address": "0x95B77BbE60E9e94f6F0216eeD7D437D2CBbBfCAd",
  "abi": [
    {
      "inputs": [
        {
          "internalType": "uint256",
          "name": "id",
          "type": "uint256"
        },
        {
          "internalType": "address",
          "name": "receiver",
          "type": "address"
        },
        {
          "internalType": "uint256",
          "name": "amount",
          "type": "uint256"
        }
      ],
      "name": "inputsToMessage",
      "outputs": [
        {
          "internalType": "bytes",
          "name": "",
          "type": "bytes"
        }
      ],
      "stateMutability": "pure",
      "type": "function"
    },
    {
      "inputs": [],
      "name": "messenger",
      "outputs": [
        {
          "internalType": "contract ITeleporterMessenger",
          "name": "",
          "type": "address"
        }
      ],
      "stateMutability": "view",
      "type": "function"
    },
    {
      "inputs": [
        {
          "internalType": "address",
          "name": "destinationAddress",
          "type": "address"
        },
        {
          "internalType": "uint256",
          "name": "id",
          "type": "uint256"
        },
        {
          "internalType": "address",
          "name": "receiver",
          "type": "address"
        },
        {
          "internalType": "uint256",
          "name": "amount",
          "type": "uint256"
        },
        {
          "internalType": "uint256",
          "name": "gasLimit",
          "type": "uint256"
        }
      ],
      "name": "sendMessage",
      "outputs": [],
      "stateMutability": "nonpayable",
      "type": "function"
    }
  ],
  "transactionHash": "0xcfc1689a5c8ca9292cc5bfc9e0d8812b808c37ec046fcf26cc04c4efb269b3f2",
  "args": [],
  "numDeployments": 1,
  "solcInputHash": "91b45ae1aadc4086fd88363b98ff7ae5",
  "bytecode": "0x60a060405273253b2784c75e510dd0ff1da844684a1ac0aa5fcf73ffffffffffffffffffffffffffffffffffffffff1660809073ffffffffffffffffffffffffffffffffffffffff16815250348015605657600080fd5b5060805161093d6100786000396000818160b2015261016c015261093d6000f3fe608060405234801561001057600080fd5b50600436106100415760003560e01c80633cb747bf14610046578063e3a6963914610064578063f4ce3d0614610080575b600080fd5b61004e6100b0565b60405161005b9190610405565b60405180910390f35b61007e60048036038101906100799190610499565b6100d4565b005b61009a60048036038101906100959190610514565b6102e9565b6040516100a791906105f7565b60405180910390f35b7f000000000000000000000000000000000000000000000000000000000000000081565b60008484846040516024016100eb93929190610637565b6040516020818303038152906040527f29050c73000000000000000000000000000000000000000000000000000000007bffffffffffffffffffffffffffffffffffffffffffffffffffffffff19166020820180517bffffffffffffffffffffffffffffffffffffffffffffffffffffffff838183161783525050505090507f000000000000000000000000000000000000000000000000000000000000000073ffffffffffffffffffffffffffffffffffffffff1663624488506040518060c001604052807f7fc93d85c6d62c5b2ac0b519c87010ea5294012d1e407030d6acd0021cac10d560001b81526020018973ffffffffffffffffffffffffffffffffffffffff1681526020016040518060400160405280600073ffffffffffffffffffffffffffffffffffffffff16815260200160008152508152602001858152602001600067ffffffffffffffff8111156102495761024861066e565b5b6040519080825280602002602001820160405280156102775781602001602082028036833780820191505090505b508152602001848152506040518263ffffffff1660e01b815260040161029d919061088c565b6020604051808303816000875af11580156102bc573d6000803e3d6000fd5b505050506040513d601f19601f820116820180604052508101906102e091906108da565b50505050505050565b606083838360405160240161030093929190610637565b6040516020818303038152906040527ff099fd6f000000000000000000000000000000000000000000000000000000007bffffffffffffffffffffffffffffffffffffffffffffffffffffffff19166020820180517bffffffffffffffffffffffffffffffffffffffffffffffffffffffff838183161783525050505090509392505050565b600073ffffffffffffffffffffffffffffffffffffffff82169050919050565b6000819050919050565b60006103cb6103c66103c184610386565b6103a6565b610386565b9050919050565b60006103dd826103b0565b9050919050565b60006103ef826103d2565b9050919050565b6103ff816103e4565b82525050565b600060208201905061041a60008301846103f6565b92915050565b600080fd5b600061043082610386565b9050919050565b61044081610425565b811461044b57600080fd5b50565b60008135905061045d81610437565b92915050565b6000819050919050565b61047681610463565b811461048157600080fd5b50565b6000813590506104938161046d565b92915050565b600080600080600060a086880312156104b5576104b4610420565b5b60006104c38882890161044e565b95505060206104d488828901610484565b94505060406104e58882890161044e565b93505060606104f688828901610484565b925050608061050788828901610484565b9150509295509295909350565b60008060006060848603121561052d5761052c610420565b5b600061053b86828701610484565b935050602061054c8682870161044e565b925050604061055d86828701610484565b9150509250925092565b600081519050919050565b600082825260208201905092915050565b60005b838110156105a1578082015181840152602081019050610586565b60008484015250505050565b6000601f19601f8301169050919050565b60006105c982610567565b6105d38185610572565b93506105e3818560208601610583565b6105ec816105ad565b840191505092915050565b6000602082019050818103600083015261061181846105be565b905092915050565b61062281610463565b82525050565b61063181610425565b82525050565b600060608201905061064c6000830186610619565b6106596020830185610628565b6106666040830184610619565b949350505050565b7f4e487b7100000000000000000000000000000000000000000000000000000000600052604160045260246000fd5b6000819050919050565b6106b08161069d565b82525050565b6106bf81610425565b82525050565b6106ce81610463565b82525050565b6040820160008201516106ea60008501826106b6565b5060208201516106fd60208501826106c5565b50505050565b600081519050919050565b600082825260208201905092915050565b6000819050602082019050919050565b600061073b83836106b6565b60208301905092915050565b6000602082019050919050565b600061075f82610703565b610769818561070e565b93506107748361071f565b8060005b838110156107a557815161078c888261072f565b975061079783610747565b925050600181019050610778565b5085935050505092915050565b600082825260208201905092915050565b60006107ce82610567565b6107d881856107b2565b93506107e8818560208601610583565b6107f1816105ad565b840191505092915050565b600060e08301600083015161081460008601826106a7565b50602083015161082760208601826106b6565b50604083015161083a60408601826106d4565b50606083015161084d60808601826106c5565b50608083015184820360a08601526108658282610754565b91505060a083015184820360c086015261087f82826107c3565b9150508091505092915050565b600060208201905081810360008301526108a681846107fc565b905092915050565b6108b78161069d565b81146108c257600080fd5b50565b6000815190506108d4816108ae565b92915050565b6000602082840312156108f0576108ef610420565b5b60006108fe848285016108c5565b9150509291505056fea2646970667358221220ebddd8bc6f343ff488c57d6de6259219e9fd10c6facf903c28affaf2a2a379a364736f6c63430008190033",
  "devdoc": {
    "kind": "dev",
    "methods": {
      "sendMessage(address,uint256,address,uint256,uint256)": {
        "details": "Sends a message to another chain."
      }
    },
    "version": 1
  },
  "userdoc": {
    "kind": "user",
    "methods": {},
    "version": 1
  },
  "storageLayout": {
    "storage": [],
    "types": null
  }
}