{
  "address": "0x2B8327293600Aa39221590013697314eC32D4b2c",
  "abi": [
    {
      "inputs": [],
      "stateMutability": "nonpayable",
      "type": "constructor"
    },
    {
      "inputs": [],
      "name": "InvalidUsdcToken",
      "type": "error"
    },
    {
      "inputs": [
        {
          "internalType": "uint256",
          "name": "balance",
          "type": "uint256"
        },
        {
          "internalType": "uint256",
          "name": "fees",
          "type": "uint256"
        }
      ],
      "name": "NotEnoughBalanceForFees",
      "type": "error"
    },
    {
      "anonymous": false,
      "inputs": [
        {
          "indexed": false,
          "internalType": "bytes",
          "name": "data",
          "type": "bytes"
        }
      ],
      "name": "EncodeedData",
      "type": "event"
    },
    {
      "anonymous": false,
      "inputs": [
        {
          "indexed": false,
          "internalType": "uint256",
          "name": "id",
          "type": "uint256"
        },
        {
          "indexed": false,
          "internalType": "address",
          "name": "receiver",
          "type": "address"
        },
        {
          "indexed": false,
          "internalType": "uint256",
          "name": "amount",
          "type": "uint256"
        }
      ],
      "name": "TransferUSDCCIP",
      "type": "event"
    },
    {
      "inputs": [
        {
          "internalType": "bytes",
          "name": "data",
          "type": "bytes"
        }
      ],
      "name": "decodeMessage",
      "outputs": [
        {
          "internalType": "string",
          "name": "",
          "type": "string"
        }
      ],
      "stateMutability": "pure",
      "type": "function"
    },
    {
      "inputs": [],
      "name": "infinitApproveLink",
      "outputs": [],
      "stateMutability": "nonpayable",
      "type": "function"
    },
    {
      "inputs": [],
      "name": "infinitApproveUSDC",
      "outputs": [],
      "stateMutability": "nonpayable",
      "type": "function"
    },
    {
      "inputs": [
        {
          "internalType": "uint256",
          "name": "",
          "type": "uint256"
        }
      ],
      "name": "messages",
      "outputs": [
        {
          "internalType": "uint256",
          "name": "id",
          "type": "uint256"
        },
        {
          "internalType": "address",
          "name": "receiver",
          "type": "address"
        },
        {
          "internalType": "uint256",
          "name": "amount",
          "type": "uint256"
        }
      ],
      "stateMutability": "view",
      "type": "function"
    },
    {
      "inputs": [],
      "name": "myAmount",
      "outputs": [
        {
          "internalType": "uint256",
          "name": "",
          "type": "uint256"
        }
      ],
      "stateMutability": "view",
      "type": "function"
    },
    {
      "inputs": [],
      "name": "myId",
      "outputs": [
        {
          "internalType": "uint256",
          "name": "",
          "type": "uint256"
        }
      ],
      "stateMutability": "view",
      "type": "function"
    },
    {
      "inputs": [],
      "name": "myReceiver",
      "outputs": [
        {
          "internalType": "address",
          "name": "",
          "type": "address"
        }
      ],
      "stateMutability": "view",
      "type": "function"
    },
    {
      "inputs": [],
      "name": "owner",
      "outputs": [
        {
          "internalType": "address",
          "name": "",
          "type": "address"
        }
      ],
      "stateMutability": "view",
      "type": "function"
    },
    {
      "inputs": [],
      "name": "receiverTeleporter",
      "outputs": [
        {
          "internalType": "address",
          "name": "",
          "type": "address"
        }
      ],
      "stateMutability": "view",
      "type": "function"
    },
    {
      "inputs": [],
      "name": "router",
      "outputs": [
        {
          "internalType": "contract IRouterClient",
          "name": "",
          "type": "address"
        }
      ],
      "stateMutability": "view",
      "type": "function"
    },
    {
      "inputs": [
        {
          "internalType": "uint64",
          "name": "destinationChainSelector",
          "type": "uint64"
        },
        {
          "internalType": "address",
          "name": "receiver",
          "type": "address"
        },
        {
          "internalType": "string",
          "name": "text",
          "type": "string"
        },
        {
          "internalType": "address",
          "name": "token",
          "type": "address"
        },
        {
          "internalType": "uint256",
          "name": "amount",
          "type": "uint256"
        }
      ],
      "name": "sendCrossChainMessage",
      "outputs": [
        {
          "internalType": "bytes32",
          "name": "messageId",
          "type": "bytes32"
        }
      ],
      "stateMutability": "nonpayable",
      "type": "function"
    },
    {
      "inputs": [
        {
          "internalType": "uint256",
          "name": "",
          "type": "uint256"
        }
      ],
      "name": "sentMessages",
      "outputs": [
        {
          "internalType": "bool",
          "name": "",
          "type": "bool"
        }
      ],
      "stateMutability": "view",
      "type": "function"
    },
    {
      "inputs": [
        {
          "internalType": "uint256",
          "name": "id",
          "type": "uint256"
        },
        {
          "internalType": "address",
          "name": "receiver",
          "type": "address"
        },
        {
          "internalType": "uint256",
          "name": "amount",
          "type": "uint256"
        }
      ],
      "name": "transferUSDCCIP",
      "outputs": [],
      "stateMutability": "nonpayable",
      "type": "function"
    },
    {
      "inputs": [],
      "name": "updated",
      "outputs": [
        {
          "internalType": "bool",
          "name": "",
          "type": "bool"
        }
      ],
      "stateMutability": "view",
      "type": "function"
    },
    {
      "inputs": [],
      "name": "withdrawLink",
      "outputs": [],
      "stateMutability": "nonpayable",
      "type": "function"
    },
    {
      "inputs": [],
      "name": "withdrawUSDC",
      "outputs": [],
      "stateMutability": "nonpayable",
      "type": "function"
    }
  ],
  "transactionHash": "0xd7252129159ade8ebbd032bbd3d099e52275371db67207f2a352c037ef72f59b",
  "args": [],
  "numDeployments": 1,
  "solcInputHash": "348c7b4ddfd0964fd22f8feee8664f73",
  "bytecode": "0x60c0604052730b9d5d9136855f6fec3c0993fee6e9ce8a29784673ffffffffffffffffffffffffffffffffffffffff1660809073ffffffffffffffffffffffffffffffffffffffff16815250735425890298aed601595a70ab815c96711a31bc6573ffffffffffffffffffffffffffffffffffffffff1660a09073ffffffffffffffffffffffffffffffffffffffff1681525073f694e193200268f9a4868e4aa017a0118c9a81776000806101000a81548173ffffffffffffffffffffffffffffffffffffffff021916908373ffffffffffffffffffffffffffffffffffffffff1602179055506000600260146101000a81548160ff02191690831515021790555034801561010d57600080fd5b5033600160006101000a81548173ffffffffffffffffffffffffffffffffffffffff021916908373ffffffffffffffffffffffffffffffffffffffff16021790555060805160a051611d57610197600039600081816105d5015281816108fd015261099701526000818161043d015281816104d7015281816107660152610a100152611d576000f3fe608060405234801561001057600080fd5b50600436106101005760003560e01c8063afa2a18011610097578063dbb8475911610066578063dbb8475914610255578063e78c7f7014610273578063f099fd6f146102a3578063f887ea40146102bf57610100565b8063afa2a18014610207578063bc294d7d14610211578063c56a459114610241578063d8fc063d1461024b57610100565b80637b2aab03116100d35780637b2aab03146101a35780638da5cb5b146101c15780638dc654a2146101df578063a69cecb9146101e957610100565b80630d80fefd1461010557806329896b9a1461013757806354e0d6a814610155578063634d45b214610173575b600080fd5b61011f600480360381019061011a919061117c565b6102dd565b60405161012e939291906111f9565b60405180910390f35b61013f610327565b60405161014c9190611230565b60405180910390f35b61015d61032d565b60405161016a9190611230565b60405180910390f35b61018d600480360381019061018891906112b0565b610333565b60405161019a919061138d565b60405180910390f35b6101ab61034c565b6040516101b891906113ca565b60405180910390f35b6101c961035f565b6040516101d691906113e5565b60405180910390f35b6101e7610385565b005b6101f161051d565b6040516101fe91906113e5565b60405180910390f35b61020f610543565b005b61022b6004803603810190610226919061117c565b6106b4565b60405161023891906113ca565b60405180910390f35b6102496106d4565b005b610253610845565b005b61025d6109dd565b60405161026a91906113e5565b60405180910390f35b61028d600480360381019061028891906114c2565b610a03565b60405161029a9190611575565b60405180910390f35b6102bd60048036038101906102b89190611590565b610aa4565b005b6102c7610bb2565b6040516102d49190611642565b60405180910390f35b60046020528060005260406000206000915090508060000154908060010160009054906101000a900473ffffffffffffffffffffffffffffffffffffffff16908060020154905083565b60075481565b60055481565b60608282810190610344919061178d565b905092915050565b600260149054906101000a900460ff1681565b600160009054906101000a900473ffffffffffffffffffffffffffffffffffffffff1681565b600160009054906101000a900473ffffffffffffffffffffffffffffffffffffffff1673ffffffffffffffffffffffffffffffffffffffff163373ffffffffffffffffffffffffffffffffffffffff1614610415576040517f08c379a000000000000000000000000000000000000000000000000000000000815260040161040c90611822565b60405180910390fd5b61051b600160009054906101000a900473ffffffffffffffffffffffffffffffffffffffff167f000000000000000000000000000000000000000000000000000000000000000073ffffffffffffffffffffffffffffffffffffffff166370a08231306040518263ffffffff1660e01b815260040161049491906113e5565b602060405180830381865afa1580156104b1573d6000803e3d6000fd5b505050506040513d601f19601f820116820180604052508101906104d59190611857565b7f000000000000000000000000000000000000000000000000000000000000000073ffffffffffffffffffffffffffffffffffffffff16610bd69092919063ffffffff16565b565b600660009054906101000a900473ffffffffffffffffffffffffffffffffffffffff1681565b600160009054906101000a900473ffffffffffffffffffffffffffffffffffffffff1673ffffffffffffffffffffffffffffffffffffffff163373ffffffffffffffffffffffffffffffffffffffff16146105d3576040517f08c379a00000000000000000000000000000000000000000000000000000000081526004016105ca90611822565b60405180910390fd5b7f000000000000000000000000000000000000000000000000000000000000000073ffffffffffffffffffffffffffffffffffffffff1663095ea7b360008054906101000a900473ffffffffffffffffffffffffffffffffffffffff167fffffffffffffffffffffffffffffffffffffffffffffffffffffffffffffffff6040518363ffffffff1660e01b815260040161066e929190611884565b6020604051808303816000875af115801561068d573d6000803e3d6000fd5b505050506040513d601f19601f820116820180604052508101906106b191906118d9565b50565b60036020528060005260406000206000915054906101000a900460ff1681565b600160009054906101000a900473ffffffffffffffffffffffffffffffffffffffff1673ffffffffffffffffffffffffffffffffffffffff163373ffffffffffffffffffffffffffffffffffffffff1614610764576040517f08c379a000000000000000000000000000000000000000000000000000000000815260040161075b90611822565b60405180910390fd5b7f000000000000000000000000000000000000000000000000000000000000000073ffffffffffffffffffffffffffffffffffffffff1663095ea7b360008054906101000a900473ffffffffffffffffffffffffffffffffffffffff167fffffffffffffffffffffffffffffffffffffffffffffffffffffffffffffffff6040518363ffffffff1660e01b81526004016107ff929190611884565b6020604051808303816000875af115801561081e573d6000803e3d6000fd5b505050506040513d601f19601f8201168201806040525081019061084291906118d9565b50565b600160009054906101000a900473ffffffffffffffffffffffffffffffffffffffff1673ffffffffffffffffffffffffffffffffffffffff163373ffffffffffffffffffffffffffffffffffffffff16146108d5576040517f08c379a00000000000000000000000000000000000000000000000000000000081526004016108cc90611822565b60405180910390fd5b6109db600160009054906101000a900473ffffffffffffffffffffffffffffffffffffffff167f000000000000000000000000000000000000000000000000000000000000000073ffffffffffffffffffffffffffffffffffffffff166370a08231306040518263ffffffff1660e01b815260040161095491906113e5565b602060405180830381865afa158015610971573d6000803e3d6000fd5b505050506040513d601f19601f820116820180604052508101906109959190611857565b7f000000000000000000000000000000000000000000000000000000000000000073ffffffffffffffffffffffffffffffffffffffff16610bd69092919063ffffffff16565b565b600260009054906101000a900473ffffffffffffffffffffffffffffffffffffffff1681565b600080610a3487878787877f0000000000000000000000000000000000000000000000000000000000000000610c5c565b90507f5dd4444cdba4331b30262b57fd86ef81bf26f421e44bd7c90b7482b0967511f4600036604051610a68929190611944565b60405180910390a1604051602001610a7f906119b4565b604051602081830303815290604052610a9790611a11565b9150509695505050505050565b60405180606001604052808481526020018373ffffffffffffffffffffffffffffffffffffffff16815260200182815250600460008581526020019081526020016000206000820151816000015560208201518160010160006101000a81548173ffffffffffffffffffffffffffffffffffffffff021916908373ffffffffffffffffffffffffffffffffffffffff1602179055506040820151816002015590505060016003600085815260200190815260200160002060006101000a81548160ff0219169083151502179055507f117f98de0fb7abfad7b68e4ed4f5898976df4b7da38d60ddc6a6e689369f16bf838383604051610ba5939291906111f9565b60405180910390a1505050565b60008054906101000a900473ffffffffffffffffffffffffffffffffffffffff1681565b610c578363a9059cbb60e01b8484604051602401610bf5929190611884565b604051602081830303815290604052907bffffffffffffffffffffffffffffffffffffffffffffffffffffffff19166020820180517bffffffffffffffffffffffffffffffffffffffffffffffffffffffff8381831617835250505050610daa565b505050565b610c646110bd565b6000600167ffffffffffffffff811115610c8157610c80611662565b5b604051908082528060200260200182016040528015610cba57816020015b610ca7611102565b815260200190600190039081610c9f5790505b50905060405180604001604052808673ffffffffffffffffffffffffffffffffffffffff1681526020018581525081600081518110610cfc57610cfb611a78565b5b60200260200101819052506040518060a0016040528089604051602001610d2391906113e5565b60405160208183030381529060405281526020018888604051602001610d4a929190611ad4565b60405160208183030381529060405281526020018281526020018473ffffffffffffffffffffffffffffffffffffffff168152602001610d9a604051806020016040528062030d40815250610e71565b8152509150509695505050505050565b6000610e0c826040518060400160405280602081526020017f5361666545524332303a206c6f772d6c6576656c2063616c6c206661696c65648152508573ffffffffffffffffffffffffffffffffffffffff16610ef09092919063ffffffff16565b9050600081511115610e6c5780806020019051810190610e2c91906118d9565b610e6b576040517f08c379a0000000000000000000000000000000000000000000000000000000008152600401610e6290611b6a565b60405180910390fd5b5b505050565b60606397a657c960e01b82604051602401610e8c9190611bb5565b604051602081830303815290604052907bffffffffffffffffffffffffffffffffffffffffffffffffffffffff19166020820180517bffffffffffffffffffffffffffffffffffffffffffffffffffffffff83818316178352505050509050919050565b6060610eff8484600085610f08565b90509392505050565b606082471015610f4d576040517f08c379a0000000000000000000000000000000000000000000000000000000008152600401610f4490611c42565b60405180910390fd5b6000808673ffffffffffffffffffffffffffffffffffffffff168587604051610f769190611c9e565b60006040518083038185875af1925050503d8060008114610fb3576040519150601f19603f3d011682016040523d82523d6000602084013e610fb8565b606091505b5091509150610fc987838387610fd5565b92505050949350505050565b6060831561103757600083510361102f57610fef8561104a565b61102e576040517f08c379a000000000000000000000000000000000000000000000000000000000815260040161102590611d01565b60405180910390fd5b5b829050611042565b611041838361106d565b5b949350505050565b6000808273ffffffffffffffffffffffffffffffffffffffff163b119050919050565b6000825111156110805781518083602001fd5b806040517f08c379a00000000000000000000000000000000000000000000000000000000081526004016110b4919061138d565b60405180910390fd5b6040518060a00160405280606081526020016060815260200160608152602001600073ffffffffffffffffffffffffffffffffffffffff168152602001606081525090565b6040518060400160405280600073ffffffffffffffffffffffffffffffffffffffff168152602001600081525090565b6000604051905090565b600080fd5b600080fd5b6000819050919050565b61115981611146565b811461116457600080fd5b50565b60008135905061117681611150565b92915050565b6000602082840312156111925761119161113c565b5b60006111a084828501611167565b91505092915050565b6111b281611146565b82525050565b600073ffffffffffffffffffffffffffffffffffffffff82169050919050565b60006111e3826111b8565b9050919050565b6111f3816111d8565b82525050565b600060608201905061120e60008301866111a9565b61121b60208301856111ea565b61122860408301846111a9565b949350505050565b600060208201905061124560008301846111a9565b92915050565b600080fd5b600080fd5b600080fd5b60008083601f8401126112705761126f61124b565b5b8235905067ffffffffffffffff81111561128d5761128c611250565b5b6020830191508360018202830111156112a9576112a8611255565b5b9250929050565b600080602083850312156112c7576112c661113c565b5b600083013567ffffffffffffffff8111156112e5576112e4611141565b5b6112f18582860161125a565b92509250509250929050565b600081519050919050565b600082825260208201905092915050565b60005b8381101561133757808201518184015260208101905061131c565b60008484015250505050565b6000601f19601f8301169050919050565b600061135f826112fd565b6113698185611308565b9350611379818560208601611319565b61138281611343565b840191505092915050565b600060208201905081810360008301526113a78184611354565b905092915050565b60008115159050919050565b6113c4816113af565b82525050565b60006020820190506113df60008301846113bb565b92915050565b60006020820190506113fa60008301846111ea565b92915050565b600067ffffffffffffffff82169050919050565b61141d81611400565b811461142857600080fd5b50565b60008135905061143a81611414565b92915050565b611449816111d8565b811461145457600080fd5b50565b60008135905061146681611440565b92915050565b60008083601f8401126114825761148161124b565b5b8235905067ffffffffffffffff81111561149f5761149e611250565b5b6020830191508360018202830111156114bb576114ba611255565b5b9250929050565b60008060008060008060a087890312156114df576114de61113c565b5b60006114ed89828a0161142b565b96505060206114fe89828a01611457565b955050604087013567ffffffffffffffff81111561151f5761151e611141565b5b61152b89828a0161146c565b9450945050606061153e89828a01611457565b925050608061154f89828a01611167565b9150509295509295509295565b6000819050919050565b61156f8161155c565b82525050565b600060208201905061158a6000830184611566565b92915050565b6000806000606084860312156115a9576115a861113c565b5b60006115b786828701611167565b93505060206115c886828701611457565b92505060406115d986828701611167565b9150509250925092565b6000819050919050565b60006116086116036115fe846111b8565b6115e3565b6111b8565b9050919050565b600061161a826115ed565b9050919050565b600061162c8261160f565b9050919050565b61163c81611621565b82525050565b60006020820190506116576000830184611633565b92915050565b600080fd5b7f4e487b7100000000000000000000000000000000000000000000000000000000600052604160045260246000fd5b61169a82611343565b810181811067ffffffffffffffff821117156116b9576116b8611662565b5b80604052505050565b60006116cc611132565b90506116d88282611691565b919050565b600067ffffffffffffffff8211156116f8576116f7611662565b5b61170182611343565b9050602081019050919050565b82818337600083830152505050565b600061173061172b846116dd565b6116c2565b90508281526020810184848401111561174c5761174b61165d565b5b61175784828561170e565b509392505050565b600082601f8301126117745761177361124b565b5b813561178484826020860161171d565b91505092915050565b6000602082840312156117a3576117a261113c565b5b600082013567ffffffffffffffff8111156117c1576117c0611141565b5b6117cd8482850161175f565b91505092915050565b7f4343495053656e6465723a20756e617574686f72697a6564204f776e65720000600082015250565b600061180c601e83611308565b9150611817826117d6565b602082019050919050565b6000602082019050818103600083015261183b816117ff565b9050919050565b60008151905061185181611150565b92915050565b60006020828403121561186d5761186c61113c565b5b600061187b84828501611842565b91505092915050565b600060408201905061189960008301856111ea565b6118a660208301846111a9565b9392505050565b6118b6816113af565b81146118c157600080fd5b50565b6000815190506118d3816118ad565b92915050565b6000602082840312156118ef576118ee61113c565b5b60006118fd848285016118c4565b91505092915050565b600082825260208201905092915050565b60006119238385611906565b935061193083858461170e565b61193983611343565b840190509392505050565b6000602082019050818103600083015261195f818486611917565b90509392505050565b7f686f6c61206d756e646f00000000000000000000000000000000000000000000600082015250565b600061199e600a83611308565b91506119a982611968565b602082019050919050565b600060208201905081810360008301526119cd81611991565b9050919050565b600081519050919050565b6000819050602082019050919050565b60006119fb825161155c565b80915050919050565b600082821b905092915050565b6000611a1c826119d4565b82611a26846119df565b9050611a31816119ef565b92506020821015611a7157611a6c7fffffffffffffffffffffffffffffffffffffffffffffffffffffffffffffffff83602003600802611a04565b831692505b5050919050565b7f4e487b7100000000000000000000000000000000000000000000000000000000600052603260045260246000fd5b6000611ab38385611308565b9350611ac083858461170e565b611ac983611343565b840190509392505050565b60006020820190508181036000830152611aef818486611aa7565b90509392505050565b7f5361666545524332303a204552433230206f7065726174696f6e20646964206e60008201527f6f74207375636365656400000000000000000000000000000000000000000000602082015250565b6000611b54602a83611308565b9150611b5f82611af8565b604082019050919050565b60006020820190508181036000830152611b8381611b47565b9050919050565b611b9381611146565b82525050565b602082016000820151611baf6000850182611b8a565b50505050565b6000602082019050611bca6000830184611b99565b92915050565b7f416464726573733a20696e73756666696369656e742062616c616e636520666f60008201527f722063616c6c0000000000000000000000000000000000000000000000000000602082015250565b6000611c2c602683611308565b9150611c3782611bd0565b604082019050919050565b60006020820190508181036000830152611c5b81611c1f565b9050919050565b600081905092915050565b6000611c78826119d4565b611c828185611c62565b9350611c92818560208601611319565b80840191505092915050565b6000611caa8284611c6d565b915081905092915050565b7f416464726573733a2063616c6c20746f206e6f6e2d636f6e7472616374000000600082015250565b6000611ceb601d83611308565b9150611cf682611cb5565b602082019050919050565b60006020820190508181036000830152611d1a81611cde565b905091905056fea26469706673582212206a84c957cb0044c4cf635b781ac217cc8023facde0cca86f3d197d7a09818fb764736f6c63430008190033",
  "devdoc": {
    "kind": "dev",
    "methods": {},
    "version": 1
  },
  "userdoc": {
    "kind": "user",
    "methods": {},
    "version": 1
  },
  "storageLayout": {
    "storage": [
      {
        "astId": 876,
        "contract": "contracts/CCIPSender.sol:CCIPSender",
        "label": "router",
        "offset": 0,
        "slot": "0",
        "type": "t_contract(IRouterClient)51"
      },
      {
        "astId": 878,
        "contract": "contracts/CCIPSender.sol:CCIPSender",
        "label": "owner",
        "offset": 0,
        "slot": "1",
        "type": "t_address"
      },
      {
        "astId": 880,
        "contract": "contracts/CCIPSender.sol:CCIPSender",
        "label": "receiverTeleporter",
        "offset": 0,
        "slot": "2",
        "type": "t_address"
      },
      {
        "astId": 883,
        "contract": "contracts/CCIPSender.sol:CCIPSender",
        "label": "updated",
        "offset": 20,
        "slot": "2",
        "type": "t_bool"
      },
      {
        "astId": 887,
        "contract": "contracts/CCIPSender.sol:CCIPSender",
        "label": "sentMessages",
        "offset": 0,
        "slot": "3",
        "type": "t_mapping(t_uint256,t_bool)"
      },
      {
        "astId": 892,
        "contract": "contracts/CCIPSender.sol:CCIPSender",
        "label": "messages",
        "offset": 0,
        "slot": "4",
        "type": "t_mapping(t_uint256,t_struct(Messages)858_storage)"
      },
      {
        "astId": 923,
        "contract": "contracts/CCIPSender.sol:CCIPSender",
        "label": "myId",
        "offset": 0,
        "slot": "5",
        "type": "t_uint256"
      },
      {
        "astId": 925,
        "contract": "contracts/CCIPSender.sol:CCIPSender",
        "label": "myReceiver",
        "offset": 0,
        "slot": "6",
        "type": "t_address"
      },
      {
        "astId": 927,
        "contract": "contracts/CCIPSender.sol:CCIPSender",
        "label": "myAmount",
        "offset": 0,
        "slot": "7",
        "type": "t_uint256"
      }
    ],
    "types": {
      "t_address": {
        "encoding": "inplace",
        "label": "address",
        "numberOfBytes": "20"
      },
      "t_bool": {
        "encoding": "inplace",
        "label": "bool",
        "numberOfBytes": "1"
      },
      "t_contract(IRouterClient)51": {
        "encoding": "inplace",
        "label": "contract IRouterClient",
        "numberOfBytes": "20"
      },
      "t_mapping(t_uint256,t_bool)": {
        "encoding": "mapping",
        "key": "t_uint256",
        "label": "mapping(uint256 => bool)",
        "numberOfBytes": "32",
        "value": "t_bool"
      },
      "t_mapping(t_uint256,t_struct(Messages)858_storage)": {
        "encoding": "mapping",
        "key": "t_uint256",
        "label": "mapping(uint256 => struct CCIPSender.Messages)",
        "numberOfBytes": "32",
        "value": "t_struct(Messages)858_storage"
      },
      "t_struct(Messages)858_storage": {
        "encoding": "inplace",
        "label": "struct CCIPSender.Messages",
        "members": [
          {
            "astId": 853,
            "contract": "contracts/CCIPSender.sol:CCIPSender",
            "label": "id",
            "offset": 0,
            "slot": "0",
            "type": "t_uint256"
          },
          {
            "astId": 855,
            "contract": "contracts/CCIPSender.sol:CCIPSender",
            "label": "receiver",
            "offset": 0,
            "slot": "1",
            "type": "t_address"
          },
          {
            "astId": 857,
            "contract": "contracts/CCIPSender.sol:CCIPSender",
            "label": "amount",
            "offset": 0,
            "slot": "2",
            "type": "t_uint256"
          }
        ],
        "numberOfBytes": "96"
      },
      "t_uint256": {
        "encoding": "inplace",
        "label": "uint256",
        "numberOfBytes": "32"
      }
    }
  }
}