{
  "address": "0x31BDcc1Cc978778Be29CE1e3A4c3180448F6687e",
  "abi": [
    {
      "inputs": [],
      "stateMutability": "nonpayable",
      "type": "constructor"
    },
    {
      "inputs": [],
      "name": "InvalidUsdcToken",
      "type": "error"
    },
    {
      "inputs": [
        {
          "internalType": "uint256",
          "name": "balance",
          "type": "uint256"
        },
        {
          "internalType": "uint256",
          "name": "fees",
          "type": "uint256"
        }
      ],
      "name": "NotEnoughBalanceForFees",
      "type": "error"
    },
    {
      "anonymous": false,
      "inputs": [
        {
          "indexed": false,
          "internalType": "bytes",
          "name": "data",
          "type": "bytes"
        }
      ],
      "name": "EncodeedData",
      "type": "event"
    },
    {
      "anonymous": false,
      "inputs": [
        {
          "indexed": false,
          "internalType": "address",
          "name": "teleporterSender",
          "type": "address"
        }
      ],
      "name": "TeleporterSender",
      "type": "event"
    },
    {
      "anonymous": false,
      "inputs": [
        {
          "indexed": true,
          "internalType": "uint256",
          "name": "id",
          "type": "uint256"
        },
        {
          "indexed": false,
          "internalType": "address",
          "name": "businessAddress",
          "type": "address"
        },
        {
          "indexed": true,
          "internalType": "uint256",
          "name": "businessAmount",
          "type": "uint256"
        },
        {
          "indexed": false,
          "internalType": "address",
          "name": "dispatcherAddress",
          "type": "address"
        },
        {
          "indexed": true,
          "internalType": "uint256",
          "name": "dispatcherAmount",
          "type": "uint256"
        }
      ],
      "name": "TransferUSDCCIP",
      "type": "event"
    },
    {
      "inputs": [],
      "name": "destinationChainSelector",
      "outputs": [
        {
          "internalType": "uint64",
          "name": "",
          "type": "uint64"
        }
      ],
      "stateMutability": "view",
      "type": "function"
    },
    {
      "inputs": [],
      "name": "infinitApproveLink",
      "outputs": [],
      "stateMutability": "nonpayable",
      "type": "function"
    },
    {
      "inputs": [],
      "name": "infinitApproveUSDC",
      "outputs": [],
      "stateMutability": "nonpayable",
      "type": "function"
    },
    {
      "inputs": [],
      "name": "owner",
      "outputs": [
        {
          "internalType": "address",
          "name": "",
          "type": "address"
        }
      ],
      "stateMutability": "view",
      "type": "function"
    },
    {
      "inputs": [],
      "name": "receiverCCIPArbitrum",
      "outputs": [
        {
          "internalType": "address",
          "name": "",
          "type": "address"
        }
      ],
      "stateMutability": "view",
      "type": "function"
    },
    {
      "inputs": [],
      "name": "receiverTeleporter",
      "outputs": [
        {
          "internalType": "address",
          "name": "",
          "type": "address"
        }
      ],
      "stateMutability": "view",
      "type": "function"
    },
    {
      "inputs": [],
      "name": "router",
      "outputs": [
        {
          "internalType": "contract IRouterClient",
          "name": "",
          "type": "address"
        }
      ],
      "stateMutability": "view",
      "type": "function"
    },
    {
      "inputs": [
        {
          "internalType": "uint256",
          "name": "",
          "type": "uint256"
        }
      ],
      "name": "sentMessages",
      "outputs": [
        {
          "internalType": "bool",
          "name": "",
          "type": "bool"
        }
      ],
      "stateMutability": "view",
      "type": "function"
    },
    {
      "inputs": [
        {
          "internalType": "uint256",
          "name": "id",
          "type": "uint256"
        },
        {
          "internalType": "address",
          "name": "businessAddress",
          "type": "address"
        },
        {
          "internalType": "uint256",
          "name": "businessAmount",
          "type": "uint256"
        },
        {
          "internalType": "address",
          "name": "dispatcherAddress",
          "type": "address"
        },
        {
          "internalType": "uint256",
          "name": "dispatcherAmount",
          "type": "uint256"
        }
      ],
      "name": "transferUSDCCIP",
      "outputs": [],
      "stateMutability": "nonpayable",
      "type": "function"
    },
    {
      "inputs": [
        {
          "internalType": "address",
          "name": "newReceiver",
          "type": "address"
        }
      ],
      "name": "updateArbitrumCCIPReceiver",
      "outputs": [],
      "stateMutability": "nonpayable",
      "type": "function"
    },
    {
      "inputs": [],
      "name": "withdrawLink",
      "outputs": [],
      "stateMutability": "nonpayable",
      "type": "function"
    },
    {
      "inputs": [],
      "name": "withdrawUSDC",
      "outputs": [],
      "stateMutability": "nonpayable",
      "type": "function"
    }
  ],
  "transactionHash": "0xc2fe8b6806469344a22958db18523ecabfbe401c43c66df815736fb83263f304",
  "args": [],
  "numDeployments": 1,
  "solcInputHash": "bbfe76539dc50eff7ea4ff34e6a3e3bf",
  "bytecode": "0x60c0604052730b9d5d9136855f6fec3c0993fee6e9ce8a29784673ffffffffffffffffffffffffffffffffffffffff1660809073ffffffffffffffffffffffffffffffffffffffff16815250735425890298aed601595a70ab815c96711a31bc6573ffffffffffffffffffffffffffffffffffffffff1660a09073ffffffffffffffffffffffffffffffffffffffff1681525073f694e193200268f9a4868e4aa017a0118c9a8177600160006101000a81548173ffffffffffffffffffffffffffffffffffffffff021916908373ffffffffffffffffffffffffffffffffffffffff16021790555067304611b6affba76a600160146101000a81548167ffffffffffffffff021916908367ffffffffffffffff16021790555034801561012457600080fd5b5033600260006101000a81548173ffffffffffffffffffffffffffffffffffffffff021916908373ffffffffffffffffffffffffffffffffffffffff16021790555060805160a05161210e6101c36000396000818161078e01528181610aba01528181610b540152610c0f01526000818161061c015281816106b60152818161092101528181610c3101528181610d120152610db3015261210e6000f3fe608060405234801561001057600080fd5b50600436106100b45760003560e01c8063afa2a18011610071578063afa2a18014610155578063bc294d7d1461015f578063c56a45911461018f578063d8fc063d14610199578063dbb84759146101a3578063f887ea40146101c1576100b4565b806325f00ecf146100b957806331db1ffc146100d75780636127fc4c146100f5578063619daea1146101115780638da5cb5b1461012d5780638dc654a21461014b575b600080fd5b6100c16101df565b6040516100ce91906114c4565b60405180910390f35b6100df610203565b6040516100ec9190611502565b60405180910390f35b61010f600480360381019061010a919061154e565b61021d565b005b61012b600480360381019061012691906115b1565b61035f565b005b61013561053e565b60405161014291906114c4565b60405180910390f35b610153610564565b005b61015d6106fc565b005b6101796004803603810190610174919061162c565b61086f565b6040516101869190611674565b60405180910390f35b61019761088f565b005b6101a1610a02565b005b6101ab610b9a565b6040516101b891906114c4565b60405180910390f35b6101c9610bc0565b6040516101d691906116ee565b60405180910390f35b60008054906101000a900473ffffffffffffffffffffffffffffffffffffffff1681565b600160149054906101000a900467ffffffffffffffff1681565b600260009054906101000a900473ffffffffffffffffffffffffffffffffffffffff1673ffffffffffffffffffffffffffffffffffffffff163373ffffffffffffffffffffffffffffffffffffffff16146102ad576040517f08c379a00000000000000000000000000000000000000000000000000000000081526004016102a490611766565b60405180910390fd5b600073ffffffffffffffffffffffffffffffffffffffff168173ffffffffffffffffffffffffffffffffffffffff160361031c576040517f08c379a0000000000000000000000000000000000000000000000000000000008152600401610313906117f8565b60405180910390fd5b806000806101000a81548173ffffffffffffffffffffffffffffffffffffffff021916908373ffffffffffffffffffffffffffffffffffffffff16021790555050565b600073ffffffffffffffffffffffffffffffffffffffff1660008054906101000a900473ffffffffffffffffffffffffffffffffffffffff1673ffffffffffffffffffffffffffffffffffffffff16036103ee576040517f08c379a00000000000000000000000000000000000000000000000000000000081526004016103e590611864565b60405180910390fd5b6004600086815260200190815260200160002060009054906101000a900460ff161561044f576040517f08c379a0000000000000000000000000000000000000000000000000000000008152600401610446906118d0565b60405180910390fd5b60016004600087815260200190815260200160002060006101000a81548160ff02191690831515021790555060008585858585604051602001610496959493929190611971565b6040516020818303038152906040529050600082856104b59190611a06565b90506104c18183610be6565b507fbf0c6b20b671258adc6eec62b68ba45ff4f1d34c2ac9d19b9164f6ad93ae184b336040516104f191906114c4565b60405180910390a18285887f9b42f82cf04ee2573163dbc276e268b7de75f39844d3736a08b503595102b815898860405161052d929190611a3a565b60405180910390a450505050505050565b600260009054906101000a900473ffffffffffffffffffffffffffffffffffffffff1681565b600260009054906101000a900473ffffffffffffffffffffffffffffffffffffffff1673ffffffffffffffffffffffffffffffffffffffff163373ffffffffffffffffffffffffffffffffffffffff16146105f4576040517f08c379a00000000000000000000000000000000000000000000000000000000081526004016105eb90611766565b60405180910390fd5b6106fa600260009054906101000a900473ffffffffffffffffffffffffffffffffffffffff167f000000000000000000000000000000000000000000000000000000000000000073ffffffffffffffffffffffffffffffffffffffff166370a08231306040518263ffffffff1660e01b815260040161067391906114c4565b602060405180830381865afa158015610690573d6000803e3d6000fd5b505050506040513d601f19601f820116820180604052508101906106b49190611a78565b7f000000000000000000000000000000000000000000000000000000000000000073ffffffffffffffffffffffffffffffffffffffff16610f499092919063ffffffff16565b565b600260009054906101000a900473ffffffffffffffffffffffffffffffffffffffff1673ffffffffffffffffffffffffffffffffffffffff163373ffffffffffffffffffffffffffffffffffffffff161461078c576040517f08c379a000000000000000000000000000000000000000000000000000000000815260040161078390611766565b60405180910390fd5b7f000000000000000000000000000000000000000000000000000000000000000073ffffffffffffffffffffffffffffffffffffffff1663095ea7b3600160009054906101000a900473ffffffffffffffffffffffffffffffffffffffff167fffffffffffffffffffffffffffffffffffffffffffffffffffffffffffffffff6040518363ffffffff1660e01b8152600401610829929190611aa5565b6020604051808303816000875af1158015610848573d6000803e3d6000fd5b505050506040513d601f19601f8201168201806040525081019061086c9190611afa565b50565b60046020528060005260406000206000915054906101000a900460ff1681565b600260009054906101000a900473ffffffffffffffffffffffffffffffffffffffff1673ffffffffffffffffffffffffffffffffffffffff163373ffffffffffffffffffffffffffffffffffffffff161461091f576040517f08c379a000000000000000000000000000000000000000000000000000000000815260040161091690611766565b60405180910390fd5b7f000000000000000000000000000000000000000000000000000000000000000073ffffffffffffffffffffffffffffffffffffffff1663095ea7b3600160009054906101000a900473ffffffffffffffffffffffffffffffffffffffff167fffffffffffffffffffffffffffffffffffffffffffffffffffffffffffffffff6040518363ffffffff1660e01b81526004016109bc929190611aa5565b6020604051808303816000875af11580156109db573d6000803e3d6000fd5b505050506040513d601f19601f820116820180604052508101906109ff9190611afa565b50565b600260009054906101000a900473ffffffffffffffffffffffffffffffffffffffff1673ffffffffffffffffffffffffffffffffffffffff163373ffffffffffffffffffffffffffffffffffffffff1614610a92576040517f08c379a0000000000000000000000000000000000000000000000000000000008152600401610a8990611766565b60405180910390fd5b610b98600260009054906101000a900473ffffffffffffffffffffffffffffffffffffffff167f000000000000000000000000000000000000000000000000000000000000000073ffffffffffffffffffffffffffffffffffffffff166370a08231306040518263ffffffff1660e01b8152600401610b1191906114c4565b602060405180830381865afa158015610b2e573d6000803e3d6000fd5b505050506040513d601f19601f82011682018060405250810190610b529190611a78565b7f000000000000000000000000000000000000000000000000000000000000000073ffffffffffffffffffffffffffffffffffffffff16610f499092919063ffffffff16565b565b600360009054906101000a900473ffffffffffffffffffffffffffffffffffffffff1681565b600160009054906101000a900473ffffffffffffffffffffffffffffffffffffffff1681565b600080610c5660008054906101000a900473ffffffffffffffffffffffffffffffffffffffff167f0000000000000000000000000000000000000000000000000000000000000000867f000000000000000000000000000000000000000000000000000000000000000087610fcf565b90506000600160009054906101000a900473ffffffffffffffffffffffffffffffffffffffff1673ffffffffffffffffffffffffffffffffffffffff166320487ded600160149054906101000a900467ffffffffffffffff16846040518363ffffffff1660e01b8152600401610ccd929190611d3e565b602060405180830381865afa158015610cea573d6000803e3d6000fd5b505050506040513d601f19601f82011682018060405250810190610d0e9190611a78565b90507f000000000000000000000000000000000000000000000000000000000000000073ffffffffffffffffffffffffffffffffffffffff166370a08231306040518263ffffffff1660e01b8152600401610d6991906114c4565b602060405180830381865afa158015610d86573d6000803e3d6000fd5b505050506040513d601f19601f82011682018060405250810190610daa9190611a78565b811115610e89577f000000000000000000000000000000000000000000000000000000000000000073ffffffffffffffffffffffffffffffffffffffff166370a08231306040518263ffffffff1660e01b8152600401610e0a91906114c4565b602060405180830381865afa158015610e27573d6000803e3d6000fd5b505050506040513d601f19601f82011682018060405250810190610e4b9190611a78565b816040517f28fdcaa1000000000000000000000000000000000000000000000000000000008152600401610e80929190611d6e565b60405180910390fd5b600160009054906101000a900473ffffffffffffffffffffffffffffffffffffffff1673ffffffffffffffffffffffffffffffffffffffff166396f4e9f9600160149054906101000a900467ffffffffffffffff16846040518363ffffffff1660e01b8152600401610efc929190611d3e565b6020604051808303816000875af1158015610f1b573d6000803e3d6000fd5b505050506040513d601f19601f82011682018060405250810190610f3f9190611dcd565b9250505092915050565b610fca8363a9059cbb60e01b8484604051602401610f68929190611aa5565b604051602081830303815290604052907bffffffffffffffffffffffffffffffffffffffffffffffffffffffff19166020820180517bffffffffffffffffffffffffffffffffffffffffffffffffffffffff83818316178352505050506110fb565b505050565b610fd761140e565b6000600167ffffffffffffffff811115610ff457610ff3611dfa565b5b60405190808252806020026020018201604052801561102d57816020015b61101a611453565b8152602001906001900390816110125790505b50905060405180604001604052808773ffffffffffffffffffffffffffffffffffffffff168152602001868152508160008151811061106f5761106e611e29565b5b60200260200101819052506040518060a001604052808860405160200161109691906114c4565b60405160208183030381529060405281526020018481526020018281526020018573ffffffffffffffffffffffffffffffffffffffff1681526020016110ec604051806020016040528062030d408152506111c2565b81525091505095945050505050565b600061115d826040518060400160405280602081526020017f5361666545524332303a206c6f772d6c6576656c2063616c6c206661696c65648152508573ffffffffffffffffffffffffffffffffffffffff166112419092919063ffffffff16565b90506000815111156111bd578080602001905181019061117d9190611afa565b6111bc576040517f08c379a00000000000000000000000000000000000000000000000000000000081526004016111b390611eca565b60405180910390fd5b5b505050565b60606397a657c960e01b826040516024016111dd9190611f06565b604051602081830303815290604052907bffffffffffffffffffffffffffffffffffffffffffffffffffffffff19166020820180517bffffffffffffffffffffffffffffffffffffffffffffffffffffffff83818316178352505050509050919050565b60606112508484600085611259565b90509392505050565b60608247101561129e576040517f08c379a000000000000000000000000000000000000000000000000000000000815260040161129590611f93565b60405180910390fd5b6000808673ffffffffffffffffffffffffffffffffffffffff1685876040516112c79190611fef565b60006040518083038185875af1925050503d8060008114611304576040519150601f19603f3d011682016040523d82523d6000602084013e611309565b606091505b509150915061131a87838387611326565b92505050949350505050565b60608315611388576000835103611380576113408561139b565b61137f576040517f08c379a000000000000000000000000000000000000000000000000000000000815260040161137690612052565b60405180910390fd5b5b829050611393565b61139283836113be565b5b949350505050565b6000808273ffffffffffffffffffffffffffffffffffffffff163b119050919050565b6000825111156113d15781518083602001fd5b806040517f08c379a000000000000000000000000000000000000000000000000000000000815260040161140591906120b6565b60405180910390fd5b6040518060a00160405280606081526020016060815260200160608152602001600073ffffffffffffffffffffffffffffffffffffffff168152602001606081525090565b6040518060400160405280600073ffffffffffffffffffffffffffffffffffffffff168152602001600081525090565b600073ffffffffffffffffffffffffffffffffffffffff82169050919050565b60006114ae82611483565b9050919050565b6114be816114a3565b82525050565b60006020820190506114d960008301846114b5565b92915050565b600067ffffffffffffffff82169050919050565b6114fc816114df565b82525050565b600060208201905061151760008301846114f3565b92915050565b600080fd5b61152b816114a3565b811461153657600080fd5b50565b60008135905061154881611522565b92915050565b6000602082840312156115645761156361151d565b5b600061157284828501611539565b91505092915050565b6000819050919050565b61158e8161157b565b811461159957600080fd5b50565b6000813590506115ab81611585565b92915050565b600080600080600060a086880312156115cd576115cc61151d565b5b60006115db8882890161159c565b95505060206115ec88828901611539565b94505060406115fd8882890161159c565b935050606061160e88828901611539565b925050608061161f8882890161159c565b9150509295509295909350565b6000602082840312156116425761164161151d565b5b60006116508482850161159c565b91505092915050565b60008115159050919050565b61166e81611659565b82525050565b60006020820190506116896000830184611665565b92915050565b6000819050919050565b60006116b46116af6116aa84611483565b61168f565b611483565b9050919050565b60006116c682611699565b9050919050565b60006116d8826116bb565b9050919050565b6116e8816116cd565b82525050565b600060208201905061170360008301846116df565b92915050565b600082825260208201905092915050565b7f4343495053656e6465723a20756e617574686f72697a6564204f776e65720000600082015250565b6000611750601e83611709565b915061175b8261171a565b602082019050919050565b6000602082019050818103600083015261177f81611743565b9050919050565b7f4343495053656e6465723a20696e76616c69642072656365697665722061646460008201527f7265737300000000000000000000000000000000000000000000000000000000602082015250565b60006117e2602483611709565b91506117ed82611786565b604082019050919050565b60006020820190508181036000830152611811816117d5565b9050919050565b7f4343495053656e6465723a207265636569766572206e6f742073657400000000600082015250565b600061184e601c83611709565b915061185982611818565b602082019050919050565b6000602082019050818103600083015261187d81611841565b9050919050565b7f4343495053656e6465723a206d65737361676520616c72656164792073656e74600082015250565b60006118ba602083611709565b91506118c582611884565b602082019050919050565b600060208201905081810360008301526118e9816118ad565b9050919050565b7f2875696e743235362c616464726573732c75696e743235362c6164647265737360008201527f2c75696e74323536290000000000000000000000000000000000000000000000602082015250565b600061194c602983611709565b9150611957826118f0565b604082019050919050565b61196b8161157b565b82525050565b600060c082019050818103600083015261198a8161193f565b90506119996020830188611962565b6119a660408301876114b5565b6119b36060830186611962565b6119c060808301856114b5565b6119cd60a0830184611962565b9695505050505050565b7f4e487b7100000000000000000000000000000000000000000000000000000000600052601160045260246000fd5b6000611a118261157b565b9150611a1c8361157b565b9250828201905080821115611a3457611a336119d7565b5b92915050565b6000604082019050611a4f60008301856114b5565b611a5c60208301846114b5565b9392505050565b600081519050611a7281611585565b92915050565b600060208284031215611a8e57611a8d61151d565b5b6000611a9c84828501611a63565b91505092915050565b6000604082019050611aba60008301856114b5565b611ac76020830184611962565b9392505050565b611ad781611659565b8114611ae257600080fd5b50565b600081519050611af481611ace565b92915050565b600060208284031215611b1057611b0f61151d565b5b6000611b1e84828501611ae5565b91505092915050565b600081519050919050565b600082825260208201905092915050565b60005b83811015611b61578082015181840152602081019050611b46565b60008484015250505050565b6000601f19601f8301169050919050565b6000611b8982611b27565b611b938185611b32565b9350611ba3818560208601611b43565b611bac81611b6d565b840191505092915050565b600081519050919050565b600082825260208201905092915050565b6000819050602082019050919050565b611bec816114a3565b82525050565b611bfb8161157b565b82525050565b604082016000820151611c176000850182611be3565b506020820151611c2a6020850182611bf2565b50505050565b6000611c3c8383611c01565b60408301905092915050565b6000602082019050919050565b6000611c6082611bb7565b611c6a8185611bc2565b9350611c7583611bd3565b8060005b83811015611ca6578151611c8d8882611c30565b9750611c9883611c48565b925050600181019050611c79565b5085935050505092915050565b600060a0830160008301518482036000860152611cd08282611b7e565b91505060208301518482036020860152611cea8282611b7e565b91505060408301518482036040860152611d048282611c55565b9150506060830151611d196060860182611be3565b5060808301518482036080860152611d318282611b7e565b9150508091505092915050565b6000604082019050611d5360008301856114f3565b8181036020830152611d658184611cb3565b90509392505050565b6000604082019050611d836000830185611962565b611d906020830184611962565b9392505050565b6000819050919050565b611daa81611d97565b8114611db557600080fd5b50565b600081519050611dc781611da1565b92915050565b600060208284031215611de357611de261151d565b5b6000611df184828501611db8565b91505092915050565b7f4e487b7100000000000000000000000000000000000000000000000000000000600052604160045260246000fd5b7f4e487b7100000000000000000000000000000000000000000000000000000000600052603260045260246000fd5b7f5361666545524332303a204552433230206f7065726174696f6e20646964206e60008201527f6f74207375636365656400000000000000000000000000000000000000000000602082015250565b6000611eb4602a83611709565b9150611ebf82611e58565b604082019050919050565b60006020820190508181036000830152611ee381611ea7565b9050919050565b602082016000820151611f006000850182611bf2565b50505050565b6000602082019050611f1b6000830184611eea565b92915050565b7f416464726573733a20696e73756666696369656e742062616c616e636520666f60008201527f722063616c6c0000000000000000000000000000000000000000000000000000602082015250565b6000611f7d602683611709565b9150611f8882611f21565b604082019050919050565b60006020820190508181036000830152611fac81611f70565b9050919050565b600081905092915050565b6000611fc982611b27565b611fd38185611fb3565b9350611fe3818560208601611b43565b80840191505092915050565b6000611ffb8284611fbe565b915081905092915050565b7f416464726573733a2063616c6c20746f206e6f6e2d636f6e7472616374000000600082015250565b600061203c601d83611709565b915061204782612006565b602082019050919050565b6000602082019050818103600083015261206b8161202f565b9050919050565b600081519050919050565b600061208882612072565b6120928185611709565b93506120a2818560208601611b43565b6120ab81611b6d565b840191505092915050565b600060208201905081810360008301526120d0818461207d565b90509291505056fea2646970667358221220446a54725638d39581e365665540d1fa4f2b18e74c876d771da97b9089b03a0d64736f6c63430008190033",
  "devdoc": {
    "kind": "dev",
    "methods": {},
    "version": 1
  },
  "userdoc": {
    "kind": "user",
    "methods": {},
    "version": 1
  },
  "storageLayout": {
    "storage": [
      {
        "astId": 1212,
        "contract": "contracts/CCIPSender.sol:CCIPSender",
        "label": "receiverCCIPArbitrum",
        "offset": 0,
        "slot": "0",
        "type": "t_address"
      },
      {
        "astId": 1230,
        "contract": "contracts/CCIPSender.sol:CCIPSender",
        "label": "router",
        "offset": 0,
        "slot": "1",
        "type": "t_contract(IRouterClient)184"
      },
      {
        "astId": 1233,
        "contract": "contracts/CCIPSender.sol:CCIPSender",
        "label": "destinationChainSelector",
        "offset": 20,
        "slot": "1",
        "type": "t_uint64"
      },
      {
        "astId": 1235,
        "contract": "contracts/CCIPSender.sol:CCIPSender",
        "label": "owner",
        "offset": 0,
        "slot": "2",
        "type": "t_address"
      },
      {
        "astId": 1237,
        "contract": "contracts/CCIPSender.sol:CCIPSender",
        "label": "receiverTeleporter",
        "offset": 0,
        "slot": "3",
        "type": "t_address"
      },
      {
        "astId": 1241,
        "contract": "contracts/CCIPSender.sol:CCIPSender",
        "label": "sentMessages",
        "offset": 0,
        "slot": "4",
        "type": "t_mapping(t_uint256,t_bool)"
      }
    ],
    "types": {
      "t_address": {
        "encoding": "inplace",
        "label": "address",
        "numberOfBytes": "20"
      },
      "t_bool": {
        "encoding": "inplace",
        "label": "bool",
        "numberOfBytes": "1"
      },
      "t_contract(IRouterClient)184": {
        "encoding": "inplace",
        "label": "contract IRouterClient",
        "numberOfBytes": "20"
      },
      "t_mapping(t_uint256,t_bool)": {
        "encoding": "mapping",
        "key": "t_uint256",
        "label": "mapping(uint256 => bool)",
        "numberOfBytes": "32",
        "value": "t_bool"
      },
      "t_uint256": {
        "encoding": "inplace",
        "label": "uint256",
        "numberOfBytes": "32"
      },
      "t_uint64": {
        "encoding": "inplace",
        "label": "uint64",
        "numberOfBytes": "8"
      }
    }
  }
}