{
  "address": "0x85ff74BDB31bD4615d6D5e50122e41Ab0940cBf9",
  "abi": [
    {
      "inputs": [],
      "stateMutability": "nonpayable",
      "type": "constructor"
    },
    {
      "inputs": [],
      "name": "InvalidUsdcToken",
      "type": "error"
    },
    {
      "inputs": [
        {
          "internalType": "uint256",
          "name": "balance",
          "type": "uint256"
        },
        {
          "internalType": "uint256",
          "name": "fees",
          "type": "uint256"
        }
      ],
      "name": "NotEnoughBalanceForFees",
      "type": "error"
    },
    {
      "anonymous": false,
      "inputs": [
        {
          "indexed": false,
          "internalType": "bytes",
          "name": "data",
          "type": "bytes"
        }
      ],
      "name": "EncodeedData",
      "type": "event"
    },
    {
      "anonymous": false,
      "inputs": [
        {
          "indexed": false,
          "internalType": "uint256",
          "name": "id",
          "type": "uint256"
        },
        {
          "indexed": false,
          "internalType": "address",
          "name": "receiver",
          "type": "address"
        },
        {
          "indexed": false,
          "internalType": "uint256",
          "name": "amount",
          "type": "uint256"
        }
      ],
      "name": "TransferUSDCCIP",
      "type": "event"
    },
    {
      "inputs": [
        {
          "internalType": "bytes",
          "name": "data",
          "type": "bytes"
        }
      ],
      "name": "decodeMessage",
      "outputs": [
        {
          "internalType": "string",
          "name": "",
          "type": "string"
        }
      ],
      "stateMutability": "pure",
      "type": "function"
    },
    {
      "inputs": [],
      "name": "infinitApproveLink",
      "outputs": [],
      "stateMutability": "nonpayable",
      "type": "function"
    },
    {
      "inputs": [],
      "name": "infinitApproveUSDC",
      "outputs": [],
      "stateMutability": "nonpayable",
      "type": "function"
    },
    {
      "inputs": [
        {
          "internalType": "uint256",
          "name": "",
          "type": "uint256"
        }
      ],
      "name": "messages",
      "outputs": [
        {
          "internalType": "uint256",
          "name": "id",
          "type": "uint256"
        },
        {
          "internalType": "address",
          "name": "receiver",
          "type": "address"
        },
        {
          "internalType": "uint256",
          "name": "amount",
          "type": "uint256"
        }
      ],
      "stateMutability": "view",
      "type": "function"
    },
    {
      "inputs": [],
      "name": "owner",
      "outputs": [
        {
          "internalType": "address",
          "name": "",
          "type": "address"
        }
      ],
      "stateMutability": "view",
      "type": "function"
    },
    {
      "inputs": [],
      "name": "receiverTeleporter",
      "outputs": [
        {
          "internalType": "address",
          "name": "",
          "type": "address"
        }
      ],
      "stateMutability": "view",
      "type": "function"
    },
    {
      "inputs": [],
      "name": "router",
      "outputs": [
        {
          "internalType": "contract IRouterClient",
          "name": "",
          "type": "address"
        }
      ],
      "stateMutability": "view",
      "type": "function"
    },
    {
      "inputs": [
        {
          "internalType": "uint64",
          "name": "destinationChainSelector",
          "type": "uint64"
        },
        {
          "internalType": "address",
          "name": "receiver",
          "type": "address"
        },
        {
          "internalType": "address",
          "name": "token",
          "type": "address"
        },
        {
          "internalType": "uint256",
          "name": "amount",
          "type": "uint256"
        }
      ],
      "name": "sendCrossChainMessage",
      "outputs": [
        {
          "internalType": "bytes32",
          "name": "messageId",
          "type": "bytes32"
        }
      ],
      "stateMutability": "nonpayable",
      "type": "function"
    },
    {
      "inputs": [
        {
          "internalType": "uint256",
          "name": "",
          "type": "uint256"
        }
      ],
      "name": "sentMessages",
      "outputs": [
        {
          "internalType": "bool",
          "name": "",
          "type": "bool"
        }
      ],
      "stateMutability": "view",
      "type": "function"
    },
    {
      "inputs": [
        {
          "internalType": "uint256",
          "name": "id",
          "type": "uint256"
        },
        {
          "internalType": "address",
          "name": "receiver",
          "type": "address"
        },
        {
          "internalType": "uint256",
          "name": "amount",
          "type": "uint256"
        }
      ],
      "name": "transferUSDCCIP",
      "outputs": [],
      "stateMutability": "nonpayable",
      "type": "function"
    },
    {
      "inputs": [],
      "name": "updated",
      "outputs": [
        {
          "internalType": "bool",
          "name": "",
          "type": "bool"
        }
      ],
      "stateMutability": "view",
      "type": "function"
    },
    {
      "inputs": [],
      "name": "withdrawLink",
      "outputs": [],
      "stateMutability": "nonpayable",
      "type": "function"
    },
    {
      "inputs": [],
      "name": "withdrawUSDC",
      "outputs": [],
      "stateMutability": "nonpayable",
      "type": "function"
    }
  ],
  "transactionHash": "0xe23606a3604936466434b5f493b209e532b1bd0c5315e637be279b3429c8e932",
  "args": [],
  "numDeployments": 1,
  "solcInputHash": "9138de8a4973025d3648b46b619b5c0f",
  "bytecode": "0x60c0604052730b9d5d9136855f6fec3c0993fee6e9ce8a29784673ffffffffffffffffffffffffffffffffffffffff1660809073ffffffffffffffffffffffffffffffffffffffff16815250735425890298aed601595a70ab815c96711a31bc6573ffffffffffffffffffffffffffffffffffffffff1660a09073ffffffffffffffffffffffffffffffffffffffff1681525073f694e193200268f9a4868e4aa017a0118c9a81776000806101000a81548173ffffffffffffffffffffffffffffffffffffffff021916908373ffffffffffffffffffffffffffffffffffffffff1602179055506000600260146101000a81548160ff02191690831515021790555034801561010d57600080fd5b5033600160006101000a81548173ffffffffffffffffffffffffffffffffffffffff021916908373ffffffffffffffffffffffffffffffffffffffff16021790555060805160a051611f3c6101ac6000396000818161080d01528181610b3501528181610bcf0152610d1d0152600081816103a601528181610440015281816104910152818161055a015281816105fb015261099e0152611f3c6000f3fe608060405234801561001057600080fd5b50600436106100cf5760003560e01c8063afa2a1801161008c578063d8fc063d11610066578063d8fc063d146101f0578063dbb84759146101fa578063f099fd6f14610218578063f887ea4014610234576100cf565b8063afa2a180146101ac578063bc294d7d146101b6578063c56a4591146101e6576100cf565b80630d80fefd146100d4578063634d45b2146101065780637b2aab03146101365780638da5cb5b146101545780638dc654a2146101725780639bb4e5371461017c575b600080fd5b6100ee60048036038101906100e9919061133a565b610252565b6040516100fd939291906113b7565b60405180910390f35b610120600480360381019061011b9190611453565b61029c565b60405161012d9190611530565b60405180910390f35b61013e6102b5565b60405161014b919061156d565b60405180910390f35b61015c6102c8565b6040516101699190611588565b60405180910390f35b61017a6102ee565b005b6101966004803603810190610191919061160f565b610486565b6040516101a3919061168f565b60405180910390f35b6101b461077b565b005b6101d060048036038101906101cb919061133a565b6108ec565b6040516101dd919061156d565b60405180910390f35b6101ee61090c565b005b6101f8610a7d565b005b610202610c15565b60405161020f9190611588565b60405180910390f35b610232600480360381019061022d91906116aa565b610c3b565b005b61023c610d84565b604051610249919061175c565b60405180910390f35b60046020528060005260406000206000915090508060000154908060010160009054906101000a900473ffffffffffffffffffffffffffffffffffffffff16908060020154905083565b606082828101906102ad91906118a7565b905092915050565b600260149054906101000a900460ff1681565b600160009054906101000a900473ffffffffffffffffffffffffffffffffffffffff1681565b600160009054906101000a900473ffffffffffffffffffffffffffffffffffffffff1673ffffffffffffffffffffffffffffffffffffffff163373ffffffffffffffffffffffffffffffffffffffff161461037e576040517f08c379a00000000000000000000000000000000000000000000000000000000081526004016103759061193c565b60405180910390fd5b610484600160009054906101000a900473ffffffffffffffffffffffffffffffffffffffff167f000000000000000000000000000000000000000000000000000000000000000073ffffffffffffffffffffffffffffffffffffffff166370a08231306040518263ffffffff1660e01b81526004016103fd9190611588565b602060405180830381865afa15801561041a573d6000803e3d6000fd5b505050506040513d601f19601f8201168201806040525081019061043e9190611971565b7f000000000000000000000000000000000000000000000000000000000000000073ffffffffffffffffffffffffffffffffffffffff16610da89092919063ffffffff16565b565b6000806104b58585857f0000000000000000000000000000000000000000000000000000000000000000610e2e565b905060008060009054906101000a900473ffffffffffffffffffffffffffffffffffffffff1673ffffffffffffffffffffffffffffffffffffffff166320487ded88846040518363ffffffff1660e01b8152600401610515929190611b89565b602060405180830381865afa158015610532573d6000803e3d6000fd5b505050506040513d601f19601f820116820180604052508101906105569190611971565b90507f000000000000000000000000000000000000000000000000000000000000000073ffffffffffffffffffffffffffffffffffffffff166370a08231306040518263ffffffff1660e01b81526004016105b19190611588565b602060405180830381865afa1580156105ce573d6000803e3d6000fd5b505050506040513d601f19601f820116820180604052508101906105f29190611971565b8111156106d1577f000000000000000000000000000000000000000000000000000000000000000073ffffffffffffffffffffffffffffffffffffffff166370a08231306040518263ffffffff1660e01b81526004016106529190611588565b602060405180830381865afa15801561066f573d6000803e3d6000fd5b505050506040513d601f19601f820116820180604052508101906106939190611971565b816040517f28fdcaa10000000000000000000000000000000000000000000000000000000081526004016106c8929190611bb9565b60405180910390fd5b60008054906101000a900473ffffffffffffffffffffffffffffffffffffffff1673ffffffffffffffffffffffffffffffffffffffff166396f4e9f988846040518363ffffffff1660e01b815260040161072c929190611b89565b6020604051808303816000875af115801561074b573d6000803e3d6000fd5b505050506040513d601f19601f8201168201806040525081019061076f9190611c0e565b92505050949350505050565b600160009054906101000a900473ffffffffffffffffffffffffffffffffffffffff1673ffffffffffffffffffffffffffffffffffffffff163373ffffffffffffffffffffffffffffffffffffffff161461080b576040517f08c379a00000000000000000000000000000000000000000000000000000000081526004016108029061193c565b60405180910390fd5b7f000000000000000000000000000000000000000000000000000000000000000073ffffffffffffffffffffffffffffffffffffffff1663095ea7b360008054906101000a900473ffffffffffffffffffffffffffffffffffffffff167fffffffffffffffffffffffffffffffffffffffffffffffffffffffffffffffff6040518363ffffffff1660e01b81526004016108a6929190611c3b565b6020604051808303816000875af11580156108c5573d6000803e3d6000fd5b505050506040513d601f19601f820116820180604052508101906108e99190611c90565b50565b60036020528060005260406000206000915054906101000a900460ff1681565b600160009054906101000a900473ffffffffffffffffffffffffffffffffffffffff1673ffffffffffffffffffffffffffffffffffffffff163373ffffffffffffffffffffffffffffffffffffffff161461099c576040517f08c379a00000000000000000000000000000000000000000000000000000000081526004016109939061193c565b60405180910390fd5b7f000000000000000000000000000000000000000000000000000000000000000073ffffffffffffffffffffffffffffffffffffffff1663095ea7b360008054906101000a900473ffffffffffffffffffffffffffffffffffffffff167fffffffffffffffffffffffffffffffffffffffffffffffffffffffffffffffff6040518363ffffffff1660e01b8152600401610a37929190611c3b565b6020604051808303816000875af1158015610a56573d6000803e3d6000fd5b505050506040513d601f19601f82011682018060405250810190610a7a9190611c90565b50565b600160009054906101000a900473ffffffffffffffffffffffffffffffffffffffff1673ffffffffffffffffffffffffffffffffffffffff163373ffffffffffffffffffffffffffffffffffffffff1614610b0d576040517f08c379a0000000000000000000000000000000000000000000000000000000008152600401610b049061193c565b60405180910390fd5b610c13600160009054906101000a900473ffffffffffffffffffffffffffffffffffffffff167f000000000000000000000000000000000000000000000000000000000000000073ffffffffffffffffffffffffffffffffffffffff166370a08231306040518263ffffffff1660e01b8152600401610b8c9190611588565b602060405180830381865afa158015610ba9573d6000803e3d6000fd5b505050506040513d601f19601f82011682018060405250810190610bcd9190611971565b7f000000000000000000000000000000000000000000000000000000000000000073ffffffffffffffffffffffffffffffffffffffff16610da89092919063ffffffff16565b565b600260009054906101000a900473ffffffffffffffffffffffffffffffffffffffff1681565b600067304611b6affba76a905060405180606001604052808581526020018473ffffffffffffffffffffffffffffffffffffffff16815260200183815250600460008681526020019081526020016000206000820151816000015560208201518160010160006101000a81548173ffffffffffffffffffffffffffffffffffffffff021916908373ffffffffffffffffffffffffffffffffffffffff1602179055506040820151816002015590505060016003600086815260200190815260200160002060006101000a81548160ff021916908315150217905550610d4281847f000000000000000000000000000000000000000000000000000000000000000085610486565b507f117f98de0fb7abfad7b68e4ed4f5898976df4b7da38d60ddc6a6e689369f16bf848484604051610d76939291906113b7565b60405180910390a150505050565b60008054906101000a900473ffffffffffffffffffffffffffffffffffffffff1681565b610e298363a9059cbb60e01b8484604051602401610dc7929190611c3b565b604051602081830303815290604052907bffffffffffffffffffffffffffffffffffffffffffffffffffffffff19166020820180517bffffffffffffffffffffffffffffffffffffffffffffffffffffffff8381831617835250505050610f68565b505050565b610e3661127b565b6000600167ffffffffffffffff811115610e5357610e5261177c565b5b604051908082528060200260200182016040528015610e8c57816020015b610e796112c0565b815260200190600190039081610e715790505b50905060405180604001604052808673ffffffffffffffffffffffffffffffffffffffff1681526020018581525081600081518110610ece57610ecd611cbd565b5b60200260200101819052506040518060a0016040528087604051602001610ef59190611588565b60405160208183030381529060405281526020016040518060200160405280600081525081526020018281526020018473ffffffffffffffffffffffffffffffffffffffff168152602001610f5a604051806020016040528062030d4081525061102f565b815250915050949350505050565b6000610fca826040518060400160405280602081526020017f5361666545524332303a206c6f772d6c6576656c2063616c6c206661696c65648152508573ffffffffffffffffffffffffffffffffffffffff166110ae9092919063ffffffff16565b905060008151111561102a5780806020019051810190610fea9190611c90565b611029576040517f08c379a000000000000000000000000000000000000000000000000000000000815260040161102090611d5e565b60405180910390fd5b5b505050565b60606397a657c960e01b8260405160240161104a9190611d9a565b604051602081830303815290604052907bffffffffffffffffffffffffffffffffffffffffffffffffffffffff19166020820180517bffffffffffffffffffffffffffffffffffffffffffffffffffffffff83818316178352505050509050919050565b60606110bd84846000856110c6565b90509392505050565b60608247101561110b576040517f08c379a000000000000000000000000000000000000000000000000000000000815260040161110290611e27565b60405180910390fd5b6000808673ffffffffffffffffffffffffffffffffffffffff1685876040516111349190611e83565b60006040518083038185875af1925050503d8060008114611171576040519150601f19603f3d011682016040523d82523d6000602084013e611176565b606091505b509150915061118787838387611193565b92505050949350505050565b606083156111f55760008351036111ed576111ad85611208565b6111ec576040517f08c379a00000000000000000000000000000000000000000000000000000000081526004016111e390611ee6565b60405180910390fd5b5b829050611200565b6111ff838361122b565b5b949350505050565b6000808273ffffffffffffffffffffffffffffffffffffffff163b119050919050565b60008251111561123e5781518083602001fd5b806040517f08c379a00000000000000000000000000000000000000000000000000000000081526004016112729190611530565b60405180910390fd5b6040518060a00160405280606081526020016060815260200160608152602001600073ffffffffffffffffffffffffffffffffffffffff168152602001606081525090565b6040518060400160405280600073ffffffffffffffffffffffffffffffffffffffff168152602001600081525090565b6000604051905090565b600080fd5b600080fd5b6000819050919050565b61131781611304565b811461132257600080fd5b50565b6000813590506113348161130e565b92915050565b6000602082840312156113505761134f6112fa565b5b600061135e84828501611325565b91505092915050565b61137081611304565b82525050565b600073ffffffffffffffffffffffffffffffffffffffff82169050919050565b60006113a182611376565b9050919050565b6113b181611396565b82525050565b60006060820190506113cc6000830186611367565b6113d960208301856113a8565b6113e66040830184611367565b949350505050565b600080fd5b600080fd5b600080fd5b60008083601f840112611413576114126113ee565b5b8235905067ffffffffffffffff8111156114305761142f6113f3565b5b60208301915083600182028301111561144c5761144b6113f8565b5b9250929050565b6000806020838503121561146a576114696112fa565b5b600083013567ffffffffffffffff811115611488576114876112ff565b5b611494858286016113fd565b92509250509250929050565b600081519050919050565b600082825260208201905092915050565b60005b838110156114da5780820151818401526020810190506114bf565b60008484015250505050565b6000601f19601f8301169050919050565b6000611502826114a0565b61150c81856114ab565b935061151c8185602086016114bc565b611525816114e6565b840191505092915050565b6000602082019050818103600083015261154a81846114f7565b905092915050565b60008115159050919050565b61156781611552565b82525050565b6000602082019050611582600083018461155e565b92915050565b600060208201905061159d60008301846113a8565b92915050565b600067ffffffffffffffff82169050919050565b6115c0816115a3565b81146115cb57600080fd5b50565b6000813590506115dd816115b7565b92915050565b6115ec81611396565b81146115f757600080fd5b50565b600081359050611609816115e3565b92915050565b60008060008060808587031215611629576116286112fa565b5b6000611637878288016115ce565b9450506020611648878288016115fa565b9350506040611659878288016115fa565b925050606061166a87828801611325565b91505092959194509250565b6000819050919050565b61168981611676565b82525050565b60006020820190506116a46000830184611680565b92915050565b6000806000606084860312156116c3576116c26112fa565b5b60006116d186828701611325565b93505060206116e2868287016115fa565b92505060406116f386828701611325565b9150509250925092565b6000819050919050565b600061172261171d61171884611376565b6116fd565b611376565b9050919050565b600061173482611707565b9050919050565b600061174682611729565b9050919050565b6117568161173b565b82525050565b6000602082019050611771600083018461174d565b92915050565b600080fd5b7f4e487b7100000000000000000000000000000000000000000000000000000000600052604160045260246000fd5b6117b4826114e6565b810181811067ffffffffffffffff821117156117d3576117d261177c565b5b80604052505050565b60006117e66112f0565b90506117f282826117ab565b919050565b600067ffffffffffffffff8211156118125761181161177c565b5b61181b826114e6565b9050602081019050919050565b82818337600083830152505050565b600061184a611845846117f7565b6117dc565b90508281526020810184848401111561186657611865611777565b5b611871848285611828565b509392505050565b600082601f83011261188e5761188d6113ee565b5b813561189e848260208601611837565b91505092915050565b6000602082840312156118bd576118bc6112fa565b5b600082013567ffffffffffffffff8111156118db576118da6112ff565b5b6118e784828501611879565b91505092915050565b7f4343495053656e6465723a20756e617574686f72697a6564204f776e65720000600082015250565b6000611926601e836114ab565b9150611931826118f0565b602082019050919050565b6000602082019050818103600083015261195581611919565b9050919050565b60008151905061196b8161130e565b92915050565b600060208284031215611987576119866112fa565b5b60006119958482850161195c565b91505092915050565b6119a7816115a3565b82525050565b600081519050919050565b600082825260208201905092915050565b60006119d4826119ad565b6119de81856119b8565b93506119ee8185602086016114bc565b6119f7816114e6565b840191505092915050565b600081519050919050565b600082825260208201905092915050565b6000819050602082019050919050565b611a3781611396565b82525050565b611a4681611304565b82525050565b604082016000820151611a626000850182611a2e565b506020820151611a756020850182611a3d565b50505050565b6000611a878383611a4c565b60408301905092915050565b6000602082019050919050565b6000611aab82611a02565b611ab58185611a0d565b9350611ac083611a1e565b8060005b83811015611af1578151611ad88882611a7b565b9750611ae383611a93565b925050600181019050611ac4565b5085935050505092915050565b600060a0830160008301518482036000860152611b1b82826119c9565b91505060208301518482036020860152611b3582826119c9565b91505060408301518482036040860152611b4f8282611aa0565b9150506060830151611b646060860182611a2e565b5060808301518482036080860152611b7c82826119c9565b9150508091505092915050565b6000604082019050611b9e600083018561199e565b8181036020830152611bb08184611afe565b90509392505050565b6000604082019050611bce6000830185611367565b611bdb6020830184611367565b9392505050565b611beb81611676565b8114611bf657600080fd5b50565b600081519050611c0881611be2565b92915050565b600060208284031215611c2457611c236112fa565b5b6000611c3284828501611bf9565b91505092915050565b6000604082019050611c5060008301856113a8565b611c5d6020830184611367565b9392505050565b611c6d81611552565b8114611c7857600080fd5b50565b600081519050611c8a81611c64565b92915050565b600060208284031215611ca657611ca56112fa565b5b6000611cb484828501611c7b565b91505092915050565b7f4e487b7100000000000000000000000000000000000000000000000000000000600052603260045260246000fd5b7f5361666545524332303a204552433230206f7065726174696f6e20646964206e60008201527f6f74207375636365656400000000000000000000000000000000000000000000602082015250565b6000611d48602a836114ab565b9150611d5382611cec565b604082019050919050565b60006020820190508181036000830152611d7781611d3b565b9050919050565b602082016000820151611d946000850182611a3d565b50505050565b6000602082019050611daf6000830184611d7e565b92915050565b7f416464726573733a20696e73756666696369656e742062616c616e636520666f60008201527f722063616c6c0000000000000000000000000000000000000000000000000000602082015250565b6000611e116026836114ab565b9150611e1c82611db5565b604082019050919050565b60006020820190508181036000830152611e4081611e04565b9050919050565b600081905092915050565b6000611e5d826119ad565b611e678185611e47565b9350611e778185602086016114bc565b80840191505092915050565b6000611e8f8284611e52565b915081905092915050565b7f416464726573733a2063616c6c20746f206e6f6e2d636f6e7472616374000000600082015250565b6000611ed0601d836114ab565b9150611edb82611e9a565b602082019050919050565b60006020820190508181036000830152611eff81611ec3565b905091905056fea2646970667358221220f3e5c05b0c9ac065b64c486d57b13f0d29c215bc1d55e882ecba8152e633b2ab64736f6c63430008190033",
  "devdoc": {
    "kind": "dev",
    "methods": {},
    "version": 1
  },
  "userdoc": {
    "kind": "user",
    "methods": {},
    "version": 1
  },
  "storageLayout": {
    "storage": [
      {
        "astId": 876,
        "contract": "contracts/CCIPSender.sol:CCIPSender",
        "label": "router",
        "offset": 0,
        "slot": "0",
        "type": "t_contract(IRouterClient)51"
      },
      {
        "astId": 878,
        "contract": "contracts/CCIPSender.sol:CCIPSender",
        "label": "owner",
        "offset": 0,
        "slot": "1",
        "type": "t_address"
      },
      {
        "astId": 880,
        "contract": "contracts/CCIPSender.sol:CCIPSender",
        "label": "receiverTeleporter",
        "offset": 0,
        "slot": "2",
        "type": "t_address"
      },
      {
        "astId": 883,
        "contract": "contracts/CCIPSender.sol:CCIPSender",
        "label": "updated",
        "offset": 20,
        "slot": "2",
        "type": "t_bool"
      },
      {
        "astId": 887,
        "contract": "contracts/CCIPSender.sol:CCIPSender",
        "label": "sentMessages",
        "offset": 0,
        "slot": "3",
        "type": "t_mapping(t_uint256,t_bool)"
      },
      {
        "astId": 892,
        "contract": "contracts/CCIPSender.sol:CCIPSender",
        "label": "messages",
        "offset": 0,
        "slot": "4",
        "type": "t_mapping(t_uint256,t_struct(Messages)858_storage)"
      }
    ],
    "types": {
      "t_address": {
        "encoding": "inplace",
        "label": "address",
        "numberOfBytes": "20"
      },
      "t_bool": {
        "encoding": "inplace",
        "label": "bool",
        "numberOfBytes": "1"
      },
      "t_contract(IRouterClient)51": {
        "encoding": "inplace",
        "label": "contract IRouterClient",
        "numberOfBytes": "20"
      },
      "t_mapping(t_uint256,t_bool)": {
        "encoding": "mapping",
        "key": "t_uint256",
        "label": "mapping(uint256 => bool)",
        "numberOfBytes": "32",
        "value": "t_bool"
      },
      "t_mapping(t_uint256,t_struct(Messages)858_storage)": {
        "encoding": "mapping",
        "key": "t_uint256",
        "label": "mapping(uint256 => struct CCIPSender.Messages)",
        "numberOfBytes": "32",
        "value": "t_struct(Messages)858_storage"
      },
      "t_struct(Messages)858_storage": {
        "encoding": "inplace",
        "label": "struct CCIPSender.Messages",
        "members": [
          {
            "astId": 853,
            "contract": "contracts/CCIPSender.sol:CCIPSender",
            "label": "id",
            "offset": 0,
            "slot": "0",
            "type": "t_uint256"
          },
          {
            "astId": 855,
            "contract": "contracts/CCIPSender.sol:CCIPSender",
            "label": "receiver",
            "offset": 0,
            "slot": "1",
            "type": "t_address"
          },
          {
            "astId": 857,
            "contract": "contracts/CCIPSender.sol:CCIPSender",
            "label": "amount",
            "offset": 0,
            "slot": "2",
            "type": "t_uint256"
          }
        ],
        "numberOfBytes": "96"
      },
      "t_uint256": {
        "encoding": "inplace",
        "label": "uint256",
        "numberOfBytes": "32"
      }
    }
  }
}