{
  "address": "0x284CCF4408C56E594242dF0E45919FE32885A3e9",
  "abi": [
    {
      "inputs": [],
      "stateMutability": "nonpayable",
      "type": "constructor"
    },
    {
      "anonymous": false,
      "inputs": [
        {
          "indexed": false,
          "internalType": "uint256",
          "name": "id",
          "type": "uint256"
        },
        {
          "indexed": false,
          "internalType": "address",
          "name": "dispatcherAddress",
          "type": "address"
        }
      ],
      "name": "OrderTaken",
      "type": "event"
    },
    {
      "anonymous": false,
      "inputs": [
        {
          "indexed": false,
          "internalType": "bytes",
          "name": "message",
          "type": "bytes"
        }
      ],
      "name": "ReceivedMessage",
      "type": "event"
    },
    {
      "inputs": [
        {
          "internalType": "uint256",
          "name": "",
          "type": "uint256"
        }
      ],
      "name": "dispatchAssigned",
      "outputs": [
        {
          "internalType": "bool",
          "name": "",
          "type": "bool"
        }
      ],
      "stateMutability": "view",
      "type": "function"
    },
    {
      "inputs": [],
      "name": "dispatchContract",
      "outputs": [
        {
          "internalType": "address",
          "name": "",
          "type": "address"
        }
      ],
      "stateMutability": "view",
      "type": "function"
    },
    {
      "inputs": [
        {
          "internalType": "uint256",
          "name": "",
          "type": "uint256"
        }
      ],
      "name": "dispatchStatus",
      "outputs": [
        {
          "internalType": "enum DispatchEcho.DispatchStatus",
          "name": "",
          "type": "uint8"
        }
      ],
      "stateMutability": "view",
      "type": "function"
    },
    {
      "inputs": [
        {
          "internalType": "uint256",
          "name": "",
          "type": "uint256"
        }
      ],
      "name": "dispatches",
      "outputs": [
        {
          "internalType": "uint256",
          "name": "id",
          "type": "uint256"
        },
        {
          "internalType": "address",
          "name": "clientAddress",
          "type": "address"
        },
        {
          "internalType": "uint256",
          "name": "totalAmount",
          "type": "uint256"
        },
        {
          "internalType": "address",
          "name": "dispatcherAddress",
          "type": "address"
        },
        {
          "internalType": "uint256",
          "name": "dispatcherAmount",
          "type": "uint256"
        },
        {
          "internalType": "address",
          "name": "businessAddress",
          "type": "address"
        },
        {
          "internalType": "uint256",
          "name": "businessAmount",
          "type": "uint256"
        }
      ],
      "stateMutability": "view",
      "type": "function"
    },
    {
      "inputs": [
        {
          "internalType": "uint256",
          "name": "id",
          "type": "uint256"
        },
        {
          "internalType": "address",
          "name": "dispatcherAddress",
          "type": "address"
        }
      ],
      "name": "inputsToMessage",
      "outputs": [
        {
          "internalType": "bytes",
          "name": "",
          "type": "bytes"
        }
      ],
      "stateMutability": "pure",
      "type": "function"
    },
    {
      "inputs": [],
      "name": "messenger",
      "outputs": [
        {
          "internalType": "contract ITeleporterMessenger",
          "name": "",
          "type": "address"
        }
      ],
      "stateMutability": "view",
      "type": "function"
    },
    {
      "inputs": [],
      "name": "owner",
      "outputs": [
        {
          "internalType": "address",
          "name": "",
          "type": "address"
        }
      ],
      "stateMutability": "view",
      "type": "function"
    },
    {
      "inputs": [
        {
          "internalType": "uint256",
          "name": "id",
          "type": "uint256"
        },
        {
          "internalType": "address",
          "name": "clientAddress",
          "type": "address"
        },
        {
          "internalType": "uint256",
          "name": "totalAmount",
          "type": "uint256"
        },
        {
          "internalType": "address",
          "name": "dispatcherAddress",
          "type": "address"
        },
        {
          "internalType": "uint256",
          "name": "dispatcherAmount",
          "type": "uint256"
        },
        {
          "internalType": "address",
          "name": "businessAddress",
          "type": "address"
        },
        {
          "internalType": "uint256",
          "name": "businessAmount",
          "type": "uint256"
        }
      ],
      "name": "placeDispatch",
      "outputs": [],
      "stateMutability": "nonpayable",
      "type": "function"
    },
    {
      "inputs": [
        {
          "internalType": "bytes32",
          "name": "",
          "type": "bytes32"
        },
        {
          "internalType": "address",
          "name": "",
          "type": "address"
        },
        {
          "internalType": "bytes",
          "name": "message",
          "type": "bytes"
        }
      ],
      "name": "receiveTeleporterMessage",
      "outputs": [],
      "stateMutability": "nonpayable",
      "type": "function"
    },
    {
      "inputs": [
        {
          "internalType": "bytes",
          "name": "message",
          "type": "bytes"
        }
      ],
      "name": "receiveTeleporterMessageMockUp",
      "outputs": [],
      "stateMutability": "nonpayable",
      "type": "function"
    },
    {
      "inputs": [
        {
          "internalType": "address",
          "name": "destinationAddress",
          "type": "address"
        },
        {
          "internalType": "uint256",
          "name": "id",
          "type": "uint256"
        },
        {
          "internalType": "address",
          "name": "dispatcherAddress",
          "type": "address"
        },
        {
          "internalType": "uint256",
          "name": "amount",
          "type": "uint256"
        },
        {
          "internalType": "uint256",
          "name": "gasLimit",
          "type": "uint256"
        }
      ],
      "name": "sendMessage",
      "outputs": [],
      "stateMutability": "nonpayable",
      "type": "function"
    },
    {
      "inputs": [
        {
          "internalType": "address",
          "name": "destinationAddress",
          "type": "address"
        },
        {
          "internalType": "uint256",
          "name": "id",
          "type": "uint256"
        },
        {
          "internalType": "address",
          "name": "dispatcherAddress",
          "type": "address"
        },
        {
          "internalType": "uint256",
          "name": "amount",
          "type": "uint256"
        },
        {
          "internalType": "uint256",
          "name": "gasLimit",
          "type": "uint256"
        }
      ],
      "name": "sendMessageMockUp",
      "outputs": [],
      "stateMutability": "nonpayable",
      "type": "function"
    },
    {
      "inputs": [
        {
          "internalType": "uint256",
          "name": "id",
          "type": "uint256"
        }
      ],
      "name": "takeOrder",
      "outputs": [],
      "stateMutability": "nonpayable",
      "type": "function"
    },
    {
      "inputs": [
        {
          "internalType": "address",
          "name": "newDispatchContract",
          "type": "address"
        }
      ],
      "name": "updateDispatchContract",
      "outputs": [],
      "stateMutability": "nonpayable",
      "type": "function"
    }
  ],
  "transactionHash": "0xe9471f30e618eb64118dab4fcc493542ad373c7914e982cd10ca4ae202625cb9",
  "args": [],
  "numDeployments": 1,
  "solcInputHash": "0be120d9e92a878075e4540ec126f81b",
  "bytecode": "0x60a060405273253b2784c75e510dd0ff1da844684a1ac0aa5fcf73ffffffffffffffffffffffffffffffffffffffff1660809073ffffffffffffffffffffffffffffffffffffffff16815250348015605657600080fd5b5033600160006101000a81548173ffffffffffffffffffffffffffffffffffffffff021916908373ffffffffffffffffffffffffffffffffffffffff1602179055506080516119c26100c1600039600081816104d10152818161085b0152610a0b01526119c26000f3fe608060405234801561001057600080fd5b50600436106100ea5760003560e01c80638da5cb5b1161008c578063c868efaa11610066578063c868efaa14610261578063e3a696391461027d578063e69dadc114610299578063fc8c517e146102b7576100ea565b80638da5cb5b1461020b578063a499510014610229578063bdfe996314610245576100ea565b80633b5d1a24116100c85780633b5d1a241461016b5780633cb747bf146101875780635ec58878146101a5578063761968a1146101d5576100ea565b80631eec7681146100ef57806326d8e7061461010b5780632f325fc71461013b575b600080fd5b61010960048036038101906101049190610e06565b6102d3565b005b61012560048036038101906101209190610e69565b610316565b6040516101329190610f39565b60405180910390f35b61015560048036038101906101509190610f5b565b6103b0565b6040516101629190610fff565b60405180910390f35b61018560048036038101906101809190610f5b565b6103d0565b005b61018f6104cf565b60405161019c9190611079565b60405180910390f35b6101bf60048036038101906101ba9190610f5b565b6104f3565b6040516101cc91906110af565b60405180910390f35b6101ef60048036038101906101ea9190610f5b565b610513565b60405161020297969594939291906110e8565b60405180910390f35b6102136105b5565b6040516102209190611157565b60405180910390f35b610243600480360381019061023e9190611172565b6105db565b005b61025f600480360381019061025a9190611252565b6107cd565b005b61027b600480360381019061027691906112d5565b610859565b005b61029760048036038101906102929190611172565b610975565b005b6102a1610b88565b6040516102ae9190611157565b60405180910390f35b6102d160048036038101906102cc9190611349565b610bac565b005b806000806101000a81548173ffffffffffffffffffffffffffffffffffffffff021916908373ffffffffffffffffffffffffffffffffffffffff16021790555050565b6060828260405160240161032b9291906113eb565b6040516020818303038152906040527f27a29618000000000000000000000000000000000000000000000000000000007bffffffffffffffffffffffffffffffffffffffffffffffffffffffff19166020820180517bffffffffffffffffffffffffffffffffffffffffffffffffffffffff8381831617835250505050905092915050565b60046020528060005260406000206000915054906101000a900460ff1681565b6000600360008381526020019081526020016000209050338160030160006101000a81548173ffffffffffffffffffffffffffffffffffffffff021916908373ffffffffffffffffffffffffffffffffffffffff16021790555060016002600084815260200190815260200160002060006101000a81548160ff02191690831515021790555060016004600084815260200190815260200160002060006101000a81548160ff0219169083600381111561048d5761048c610f88565b5b02179055507f9db2daab7847c7ac2c20246379b31e171fa4cc75c7b66394f27bf65d9f13a7bc82336040516104c39291906113eb565b60405180910390a15050565b7f000000000000000000000000000000000000000000000000000000000000000081565b60026020528060005260406000206000915054906101000a900460ff1681565b60036020528060005260406000206000915090508060000154908060010160009054906101000a900473ffffffffffffffffffffffffffffffffffffffff16908060020154908060030160009054906101000a900473ffffffffffffffffffffffffffffffffffffffff16908060040154908060050160009054906101000a900473ffffffffffffffffffffffffffffffffffffffff16908060060154905087565b600160009054906101000a900473ffffffffffffffffffffffffffffffffffffffff1681565b600073ffffffffffffffffffffffffffffffffffffffff1660008054906101000a900473ffffffffffffffffffffffffffffffffffffffff1673ffffffffffffffffffffffffffffffffffffffff160361066a576040517f08c379a000000000000000000000000000000000000000000000000000000000815260040161066190611471565b60405180910390fd5b6000848460405160240161067f9291906113eb565b6040516020818303038152906040527f27a29618000000000000000000000000000000000000000000000000000000007bffffffffffffffffffffffffffffffffffffffffffffffffffffffff19166020820180517bffffffffffffffffffffffffffffffffffffffffffffffffffffffff8381831617835250505050905060026004600087815260200190815260200160002060006101000a81548160ff0219169083600381111561073557610734610f88565b5b021790555060008054906101000a900473ffffffffffffffffffffffffffffffffffffffff1673ffffffffffffffffffffffffffffffffffffffff1663bdfe9963826040518263ffffffff1660e01b81526004016107939190610f39565b600060405180830381600087803b1580156107ad57600080fd5b505af11580156107c1573d6000803e3d6000fd5b50505050505050505050565b6000806000806000806000888860049080926107eb9392919061149b565b8101906107f89190611514565b965096509650965096509650965061081587878787878787610bac565b7fd48f8fe505159014f137e2a0c1ff2a2892d08c5b639c94f0303210acd4a1444089896040516108469291906115f2565b60405180910390a1505050505050505050565b7f000000000000000000000000000000000000000000000000000000000000000073ffffffffffffffffffffffffffffffffffffffff163373ffffffffffffffffffffffffffffffffffffffff16146108e7576040517f08c379a00000000000000000000000000000000000000000000000000000000081526004016108de90611688565b60405180910390fd5b6000806000806000806000888860049080926109059392919061149b565b8101906109129190611514565b965096509650965096509650965061092f87878787878787610bac565b7fd48f8fe505159014f137e2a0c1ff2a2892d08c5b639c94f0303210acd4a1444089896040516109609291906115f2565b60405180910390a15050505050505050505050565b6000848460405160240161098a9291906113eb565b6040516020818303038152906040527f510254c1000000000000000000000000000000000000000000000000000000007bffffffffffffffffffffffffffffffffffffffffffffffffffffffff19166020820180517bffffffffffffffffffffffffffffffffffffffffffffffffffffffff838183161783525050505090507f000000000000000000000000000000000000000000000000000000000000000073ffffffffffffffffffffffffffffffffffffffff1663624488506040518060c001604052807f7fc93d85c6d62c5b2ac0b519c87010ea5294012d1e407030d6acd0021cac10d560001b81526020018973ffffffffffffffffffffffffffffffffffffffff1681526020016040518060400160405280600073ffffffffffffffffffffffffffffffffffffffff16815260200160008152508152602001858152602001600067ffffffffffffffff811115610ae857610ae76116a8565b5b604051908082528060200260200182016040528015610b165781602001602082028036833780820191505090505b508152602001848152506040518263ffffffff1660e01b8152600401610b3c91906118bc565b6020604051808303816000875af1158015610b5b573d6000803e3d6000fd5b505050506040513d601f19601f82011682018060405250810190610b7f91906118f3565b50505050505050565b60008054906101000a900473ffffffffffffffffffffffffffffffffffffffff1681565b6002600088815260200190815260200160002060009054906101000a900460ff1615610c0d576040517f08c379a0000000000000000000000000000000000000000000000000000000008152600401610c049061196c565b60405180910390fd5b6040518060e001604052808881526020018773ffffffffffffffffffffffffffffffffffffffff1681526020018681526020018573ffffffffffffffffffffffffffffffffffffffff1681526020018481526020018373ffffffffffffffffffffffffffffffffffffffff16815260200182815250600360008981526020019081526020016000206000820151816000015560208201518160010160006101000a81548173ffffffffffffffffffffffffffffffffffffffff021916908373ffffffffffffffffffffffffffffffffffffffff1602179055506040820151816002015560608201518160030160006101000a81548173ffffffffffffffffffffffffffffffffffffffff021916908373ffffffffffffffffffffffffffffffffffffffff1602179055506080820151816004015560a08201518160050160006101000a81548173ffffffffffffffffffffffffffffffffffffffff021916908373ffffffffffffffffffffffffffffffffffffffff16021790555060c0820151816006015590505050505050505050565b600080fd5b600080fd5b600073ffffffffffffffffffffffffffffffffffffffff82169050919050565b6000610dd382610da8565b9050919050565b610de381610dc8565b8114610dee57600080fd5b50565b600081359050610e0081610dda565b92915050565b600060208284031215610e1c57610e1b610d9e565b5b6000610e2a84828501610df1565b91505092915050565b6000819050919050565b610e4681610e33565b8114610e5157600080fd5b50565b600081359050610e6381610e3d565b92915050565b60008060408385031215610e8057610e7f610d9e565b5b6000610e8e85828601610e54565b9250506020610e9f85828601610df1565b9150509250929050565b600081519050919050565b600082825260208201905092915050565b60005b83811015610ee3578082015181840152602081019050610ec8565b60008484015250505050565b6000601f19601f8301169050919050565b6000610f0b82610ea9565b610f158185610eb4565b9350610f25818560208601610ec5565b610f2e81610eef565b840191505092915050565b60006020820190508181036000830152610f538184610f00565b905092915050565b600060208284031215610f7157610f70610d9e565b5b6000610f7f84828501610e54565b91505092915050565b7f4e487b7100000000000000000000000000000000000000000000000000000000600052602160045260246000fd5b60048110610fc857610fc7610f88565b5b50565b6000819050610fd982610fb7565b919050565b6000610fe982610fcb565b9050919050565b610ff981610fde565b82525050565b60006020820190506110146000830184610ff0565b92915050565b6000819050919050565b600061103f61103a61103584610da8565b61101a565b610da8565b9050919050565b600061105182611024565b9050919050565b600061106382611046565b9050919050565b61107381611058565b82525050565b600060208201905061108e600083018461106a565b92915050565b60008115159050919050565b6110a981611094565b82525050565b60006020820190506110c460008301846110a0565b92915050565b6110d381610e33565b82525050565b6110e281610dc8565b82525050565b600060e0820190506110fd600083018a6110ca565b61110a60208301896110d9565b61111760408301886110ca565b61112460608301876110d9565b61113160808301866110ca565b61113e60a08301856110d9565b61114b60c08301846110ca565b98975050505050505050565b600060208201905061116c60008301846110d9565b92915050565b600080600080600060a0868803121561118e5761118d610d9e565b5b600061119c88828901610df1565b95505060206111ad88828901610e54565b94505060406111be88828901610df1565b93505060606111cf88828901610e54565b92505060806111e088828901610e54565b9150509295509295909350565b600080fd5b600080fd5b600080fd5b60008083601f840112611212576112116111ed565b5b8235905067ffffffffffffffff81111561122f5761122e6111f2565b5b60208301915083600182028301111561124b5761124a6111f7565b5b9250929050565b6000806020838503121561126957611268610d9e565b5b600083013567ffffffffffffffff81111561128757611286610da3565b5b611293858286016111fc565b92509250509250929050565b6000819050919050565b6112b28161129f565b81146112bd57600080fd5b50565b6000813590506112cf816112a9565b92915050565b600080600080606085870312156112ef576112ee610d9e565b5b60006112fd878288016112c0565b945050602061130e87828801610df1565b935050604085013567ffffffffffffffff81111561132f5761132e610da3565b5b61133b878288016111fc565b925092505092959194509250565b600080600080600080600060e0888a03121561136857611367610d9e565b5b60006113768a828b01610e54565b97505060206113878a828b01610df1565b96505060406113988a828b01610e54565b95505060606113a98a828b01610df1565b94505060806113ba8a828b01610e54565b93505060a06113cb8a828b01610df1565b92505060c06113dc8a828b01610e54565b91505092959891949750929550565b600060408201905061140060008301856110ca565b61140d60208301846110d9565b9392505050565b600082825260208201905092915050565b7f446973706174636820636f6e7472616374206e6f742073657400000000000000600082015250565b600061145b601983611414565b915061146682611425565b602082019050919050565b6000602082019050818103600083015261148a8161144e565b9050919050565b600080fd5b600080fd5b600080858511156114af576114ae611491565b5b838611156114c0576114bf611496565b5b6001850283019150848603905094509492505050565b60006114e182610da8565b9050919050565b6114f1816114d6565b81146114fc57600080fd5b50565b60008135905061150e816114e8565b92915050565b600080600080600080600060e0888a03121561153357611532610d9e565b5b60006115418a828b01610e54565b97505060206115528a828b016114ff565b96505060406115638a828b01610e54565b95505060606115748a828b016114ff565b94505060806115858a828b01610e54565b93505060a06115968a828b016114ff565b92505060c06115a78a828b01610e54565b91505092959891949750929550565b82818337600083830152505050565b60006115d18385610eb4565b93506115de8385846115b6565b6115e783610eef565b840190509392505050565b6000602082019050818103600083015261160d8184866115c5565b90509392505050565b7f52656365697665724f6e5375626e65743a20756e617574686f72697a6564205460008201527f656c65706f727465724d657373656e6765720000000000000000000000000000602082015250565b6000611672603283611414565b915061167d82611616565b604082019050919050565b600060208201905081810360008301526116a181611665565b9050919050565b7f4e487b7100000000000000000000000000000000000000000000000000000000600052604160045260246000fd5b6116e08161129f565b82525050565b6116ef81610dc8565b82525050565b6116fe81610e33565b82525050565b60408201600082015161171a60008501826116e6565b50602082015161172d60208501826116f5565b50505050565b600081519050919050565b600082825260208201905092915050565b6000819050602082019050919050565b600061176b83836116e6565b60208301905092915050565b6000602082019050919050565b600061178f82611733565b611799818561173e565b93506117a48361174f565b8060005b838110156117d55781516117bc888261175f565b97506117c783611777565b9250506001810190506117a8565b5085935050505092915050565b600082825260208201905092915050565b60006117fe82610ea9565b61180881856117e2565b9350611818818560208601610ec5565b61182181610eef565b840191505092915050565b600060e08301600083015161184460008601826116d7565b50602083015161185760208601826116e6565b50604083015161186a6040860182611704565b50606083015161187d60808601826116f5565b50608083015184820360a08601526118958282611784565b91505060a083015184820360c08601526118af82826117f3565b9150508091505092915050565b600060208201905081810360008301526118d6818461182c565b905092915050565b6000815190506118ed816112a9565b92915050565b60006020828403121561190957611908610d9e565b5b6000611917848285016118de565b91505092915050565b7f446973706174636820616c72656164792061737369676e656400000000000000600082015250565b6000611956601983611414565b915061196182611920565b602082019050919050565b6000602082019050818103600083015261198581611949565b905091905056fea2646970667358221220174d859c71accb3fa60a685048f7f7c164ea2fbf45e6cafcbe6e0abeb545a47964736f6c63430008190033",
  "devdoc": {
    "kind": "dev",
    "methods": {
      "sendMessage(address,uint256,address,uint256,uint256)": {
        "details": "Sends a message to another chain."
      }
    },
    "version": 1
  },
  "userdoc": {
    "kind": "user",
    "methods": {},
    "version": 1
  },
  "storageLayout": {
    "storage": [
      {
        "astId": 1903,
        "contract": "contracts/DispatchEcho.sol:DispatchEcho",
        "label": "dispatchContract",
        "offset": 0,
        "slot": "0",
        "type": "t_address"
      },
      {
        "astId": 1905,
        "contract": "contracts/DispatchEcho.sol:DispatchEcho",
        "label": "owner",
        "offset": 0,
        "slot": "1",
        "type": "t_address"
      },
      {
        "astId": 1929,
        "contract": "contracts/DispatchEcho.sol:DispatchEcho",
        "label": "dispatchAssigned",
        "offset": 0,
        "slot": "2",
        "type": "t_mapping(t_uint256,t_bool)"
      },
      {
        "astId": 1934,
        "contract": "contracts/DispatchEcho.sol:DispatchEcho",
        "label": "dispatches",
        "offset": 0,
        "slot": "3",
        "type": "t_mapping(t_uint256,t_struct(DispatchStruct)1925_storage)"
      },
      {
        "astId": 1939,
        "contract": "contracts/DispatchEcho.sol:DispatchEcho",
        "label": "dispatchStatus",
        "offset": 0,
        "slot": "4",
        "type": "t_mapping(t_uint256,t_enum(DispatchStatus)1910)"
      }
    ],
    "types": {
      "t_address": {
        "encoding": "inplace",
        "label": "address",
        "numberOfBytes": "20"
      },
      "t_bool": {
        "encoding": "inplace",
        "label": "bool",
        "numberOfBytes": "1"
      },
      "t_enum(DispatchStatus)1910": {
        "encoding": "inplace",
        "label": "enum DispatchEcho.DispatchStatus",
        "numberOfBytes": "1"
      },
      "t_mapping(t_uint256,t_bool)": {
        "encoding": "mapping",
        "key": "t_uint256",
        "label": "mapping(uint256 => bool)",
        "numberOfBytes": "32",
        "value": "t_bool"
      },
      "t_mapping(t_uint256,t_enum(DispatchStatus)1910)": {
        "encoding": "mapping",
        "key": "t_uint256",
        "label": "mapping(uint256 => enum DispatchEcho.DispatchStatus)",
        "numberOfBytes": "32",
        "value": "t_enum(DispatchStatus)1910"
      },
      "t_mapping(t_uint256,t_struct(DispatchStruct)1925_storage)": {
        "encoding": "mapping",
        "key": "t_uint256",
        "label": "mapping(uint256 => struct DispatchEcho.DispatchStruct)",
        "numberOfBytes": "32",
        "value": "t_struct(DispatchStruct)1925_storage"
      },
      "t_struct(DispatchStruct)1925_storage": {
        "encoding": "inplace",
        "label": "struct DispatchEcho.DispatchStruct",
        "members": [
          {
            "astId": 1912,
            "contract": "contracts/DispatchEcho.sol:DispatchEcho",
            "label": "id",
            "offset": 0,
            "slot": "0",
            "type": "t_uint256"
          },
          {
            "astId": 1914,
            "contract": "contracts/DispatchEcho.sol:DispatchEcho",
            "label": "clientAddress",
            "offset": 0,
            "slot": "1",
            "type": "t_address"
          },
          {
            "astId": 1916,
            "contract": "contracts/DispatchEcho.sol:DispatchEcho",
            "label": "totalAmount",
            "offset": 0,
            "slot": "2",
            "type": "t_uint256"
          },
          {
            "astId": 1918,
            "contract": "contracts/DispatchEcho.sol:DispatchEcho",
            "label": "dispatcherAddress",
            "offset": 0,
            "slot": "3",
            "type": "t_address"
          },
          {
            "astId": 1920,
            "contract": "contracts/DispatchEcho.sol:DispatchEcho",
            "label": "dispatcherAmount",
            "offset": 0,
            "slot": "4",
            "type": "t_uint256"
          },
          {
            "astId": 1922,
            "contract": "contracts/DispatchEcho.sol:DispatchEcho",
            "label": "businessAddress",
            "offset": 0,
            "slot": "5",
            "type": "t_address"
          },
          {
            "astId": 1924,
            "contract": "contracts/DispatchEcho.sol:DispatchEcho",
            "label": "businessAmount",
            "offset": 0,
            "slot": "6",
            "type": "t_uint256"
          }
        ],
        "numberOfBytes": "224"
      },
      "t_uint256": {
        "encoding": "inplace",
        "label": "uint256",
        "numberOfBytes": "32"
      }
    }
  }
}