{
  "address": "0x01B10F737F6d6D82d8f7ec510911763090E680fc",
  "abi": [
    {
      "inputs": [],
      "stateMutability": "nonpayable",
      "type": "constructor"
    },
    {
      "anonymous": false,
      "inputs": [
        {
          "indexed": true,
          "internalType": "uint256",
          "name": "id",
          "type": "uint256"
        },
        {
          "indexed": true,
          "internalType": "address",
          "name": "clientAddress",
          "type": "address"
        },
        {
          "indexed": true,
          "internalType": "address",
          "name": "businessAddress",
          "type": "address"
        },
        {
          "indexed": false,
          "internalType": "uint256",
          "name": "amount",
          "type": "uint256"
        }
      ],
      "name": "Deposited",
      "type": "event"
    },
    {
      "anonymous": false,
      "inputs": [
        {
          "indexed": false,
          "internalType": "bytes",
          "name": "message",
          "type": "bytes"
        }
      ],
      "name": "ReceivedMessage",
      "type": "event"
    },
    {
      "inputs": [],
      "name": "approveInfinite",
      "outputs": [],
      "stateMutability": "nonpayable",
      "type": "function"
    },
    {
      "inputs": [
        {
          "internalType": "uint256",
          "name": "amount",
          "type": "uint256"
        }
      ],
      "name": "calculateFee",
      "outputs": [
        {
          "internalType": "uint256",
          "name": "",
          "type": "uint256"
        }
      ],
      "stateMutability": "view",
      "type": "function"
    },
    {
      "inputs": [],
      "name": "ccipSender",
      "outputs": [
        {
          "internalType": "address",
          "name": "",
          "type": "address"
        }
      ],
      "stateMutability": "view",
      "type": "function"
    },
    {
      "inputs": [
        {
          "internalType": "uint256",
          "name": "",
          "type": "uint256"
        }
      ],
      "name": "dispatched",
      "outputs": [
        {
          "internalType": "bool",
          "name": "",
          "type": "bool"
        }
      ],
      "stateMutability": "view",
      "type": "function"
    },
    {
      "inputs": [
        {
          "internalType": "uint256",
          "name": "",
          "type": "uint256"
        }
      ],
      "name": "dispatches",
      "outputs": [
        {
          "internalType": "uint256",
          "name": "id",
          "type": "uint256"
        },
        {
          "internalType": "address",
          "name": "clientAddress",
          "type": "address"
        },
        {
          "internalType": "uint256",
          "name": "totalAmount",
          "type": "uint256"
        },
        {
          "internalType": "address",
          "name": "dispatcherAddress",
          "type": "address"
        },
        {
          "internalType": "uint256",
          "name": "dispatcherAmount",
          "type": "uint256"
        },
        {
          "internalType": "address",
          "name": "businessAddress",
          "type": "address"
        },
        {
          "internalType": "uint256",
          "name": "businessAmount",
          "type": "uint256"
        }
      ],
      "stateMutability": "view",
      "type": "function"
    },
    {
      "inputs": [],
      "name": "emergencyWithdrawUSDC",
      "outputs": [],
      "stateMutability": "nonpayable",
      "type": "function"
    },
    {
      "inputs": [],
      "name": "feePercentage",
      "outputs": [
        {
          "internalType": "uint256",
          "name": "",
          "type": "uint256"
        }
      ],
      "stateMutability": "view",
      "type": "function"
    },
    {
      "inputs": [
        {
          "internalType": "uint256",
          "name": "id",
          "type": "uint256"
        },
        {
          "internalType": "address",
          "name": "dispatcherAddress",
          "type": "address"
        }
      ],
      "name": "finalize",
      "outputs": [],
      "stateMutability": "nonpayable",
      "type": "function"
    },
    {
      "inputs": [
        {
          "internalType": "uint256",
          "name": "id",
          "type": "uint256"
        },
        {
          "internalType": "address",
          "name": "businessAddress",
          "type": "address"
        },
        {
          "internalType": "uint256",
          "name": "amount",
          "type": "uint256"
        }
      ],
      "name": "getDispatchStruct",
      "outputs": [
        {
          "components": [
            {
              "internalType": "uint256",
              "name": "id",
              "type": "uint256"
            },
            {
              "internalType": "address",
              "name": "clientAddress",
              "type": "address"
            },
            {
              "internalType": "uint256",
              "name": "totalAmount",
              "type": "uint256"
            },
            {
              "internalType": "address",
              "name": "dispatcherAddress",
              "type": "address"
            },
            {
              "internalType": "uint256",
              "name": "dispatcherAmount",
              "type": "uint256"
            },
            {
              "internalType": "address",
              "name": "businessAddress",
              "type": "address"
            },
            {
              "internalType": "uint256",
              "name": "businessAmount",
              "type": "uint256"
            }
          ],
          "internalType": "struct DispatchCChain.DispatchStruct",
          "name": "",
          "type": "tuple"
        }
      ],
      "stateMutability": "view",
      "type": "function"
    },
    {
      "inputs": [],
      "name": "idCounter",
      "outputs": [
        {
          "internalType": "uint256",
          "name": "",
          "type": "uint256"
        }
      ],
      "stateMutability": "view",
      "type": "function"
    },
    {
      "inputs": [],
      "name": "lastMessage",
      "outputs": [
        {
          "internalType": "bytes",
          "name": "",
          "type": "bytes"
        }
      ],
      "stateMutability": "view",
      "type": "function"
    },
    {
      "inputs": [],
      "name": "messenger",
      "outputs": [
        {
          "internalType": "contract ITeleporterMessenger",
          "name": "",
          "type": "address"
        }
      ],
      "stateMutability": "view",
      "type": "function"
    },
    {
      "inputs": [],
      "name": "owner",
      "outputs": [
        {
          "internalType": "address",
          "name": "",
          "type": "address"
        }
      ],
      "stateMutability": "view",
      "type": "function"
    },
    {
      "inputs": [
        {
          "internalType": "address",
          "name": "businessAddress",
          "type": "address"
        },
        {
          "internalType": "uint256",
          "name": "amount",
          "type": "uint256"
        },
        {
          "internalType": "address",
          "name": "destinationAddress",
          "type": "address"
        },
        {
          "internalType": "uint256",
          "name": "gasLimit",
          "type": "uint256"
        }
      ],
      "name": "payout",
      "outputs": [],
      "stateMutability": "nonpayable",
      "type": "function"
    },
    {
      "inputs": [
        {
          "internalType": "bytes32",
          "name": "",
          "type": "bytes32"
        },
        {
          "internalType": "address",
          "name": "",
          "type": "address"
        },
        {
          "internalType": "bytes",
          "name": "message",
          "type": "bytes"
        }
      ],
      "name": "receiveTeleporterMessage",
      "outputs": [],
      "stateMutability": "nonpayable",
      "type": "function"
    },
    {
      "inputs": [
        {
          "internalType": "address",
          "name": "destinationAddress",
          "type": "address"
        },
        {
          "internalType": "uint256",
          "name": "id",
          "type": "uint256"
        },
        {
          "internalType": "address",
          "name": "clientAddress",
          "type": "address"
        },
        {
          "internalType": "uint256",
          "name": "totalAmount",
          "type": "uint256"
        },
        {
          "internalType": "address",
          "name": "dispatcherAddress",
          "type": "address"
        },
        {
          "internalType": "uint256",
          "name": "dispatcherAmount",
          "type": "uint256"
        },
        {
          "internalType": "address",
          "name": "businessAddress",
          "type": "address"
        },
        {
          "internalType": "uint256",
          "name": "businessAmount",
          "type": "uint256"
        },
        {
          "internalType": "uint256",
          "name": "gasLimit",
          "type": "uint256"
        }
      ],
      "name": "sendMessage",
      "outputs": [],
      "stateMutability": "nonpayable",
      "type": "function"
    },
    {
      "inputs": [],
      "name": "totalTransfered",
      "outputs": [
        {
          "internalType": "uint256",
          "name": "",
          "type": "uint256"
        }
      ],
      "stateMutability": "view",
      "type": "function"
    },
    {
      "inputs": [
        {
          "internalType": "address",
          "name": "newCCIPSender",
          "type": "address"
        }
      ],
      "name": "updateCCIPSender",
      "outputs": [],
      "stateMutability": "nonpayable",
      "type": "function"
    }
  ],
  "transactionHash": "0xeb46f71cdb335a689362f16690a989c3a227f9a1d48476aee7de8da1afb0092c",
  "args": [],
  "numDeployments": 1,
  "solcInputHash": "c7947dfbd7b8471daa41ede1584c0e73",
  "bytecode": "0x60e0604052600f608090815250735425890298aed601595a70ab815c96711a31bc6573ffffffffffffffffffffffffffffffffffffffff1660a09073ffffffffffffffffffffffffffffffffffffffff1681525073253b2784c75e510dd0ff1da844684a1ac0aa5fcf73ffffffffffffffffffffffffffffffffffffffff1660c09073ffffffffffffffffffffffffffffffffffffffff168152503480156100a657600080fd5b5033600260006101000a81548173ffffffffffffffffffffffffffffffffffffffff021916908373ffffffffffffffffffffffffffffffffffffffff16021790555060805160a05160c051612639610148600039600081816104af01528181610f1501526111be0152600081816105920152818161066c01528181610ad501528181610b1201526110fd01526000818161109c01526110d901526126396000f3fe608060405234801561001057600080fd5b50600436106101165760003560e01c8063761968a1116100a2578063a001ecdd11610071578063a001ecdd146102d3578063b12317da146102f1578063c868efaa146102fb578063ce057d6414610317578063eb08ab281461033557610116565b8063761968a1146102335780638da5cb5b1461026957806391010c931461028757806399a5d747146102a357610116565b80633cf9d1bf116100e95780633cf9d1bf146101b75780633ee3e84b146101d35780634fef1488146101ef578063510254c1146101f95780635b04fed31461021557610116565b80630bc9456a1461011b578063329707101461014b57806333924b4c146101695780633cb747bf14610199575b600080fd5b610135600480360381019061013091906113b9565b610353565b6040516101429190611401565b60405180910390f35b610153610373565b60405161016091906114ac565b60405180910390f35b610183600480360381019061017e919061152c565b610401565b604051610190919061162b565b60405180910390f35b6101a16104ad565b6040516101ae91906116a5565b60405180910390f35b6101d160048036038101906101cc91906116c0565b6104d1565b005b6101ed60048036038101906101e89190611727565b610900565b005b6101f7610a43565b005b610213600480360381019061020e9190611754565b610c0d565b005b61021d610da7565b60405161022a91906117a3565b60405180910390f35b61024d600480360381019061024891906113b9565b610dad565b60405161026097969594939291906117cd565b60405180910390f35b610271610e4f565b60405161027e919061183c565b60405180910390f35b6102a1600480360381019061029c9190611857565b610e75565b005b6102bd60048036038101906102b891906113b9565b611096565b6040516102ca91906117a3565b60405180910390f35b6102db6110d7565b6040516102e891906117a3565b60405180910390f35b6102f96110fb565b005b610315600480360381019061031091906119bc565b6111bc565b005b61031f6112ce565b60405161032c919061183c565b60405180910390f35b61033d6112f4565b60405161034a91906117a3565b60405180910390f35b60066020528060005260406000206000915054906101000a900460ff1681565b6004805461038090611a5f565b80601f01602080910402602001604051908101604052809291908181526020018280546103ac90611a5f565b80156103f95780601f106103ce576101008083540402835291602001916103f9565b820191906000526020600020905b8154815290600101906020018083116103dc57829003601f168201915b505050505081565b6104096112fa565b600061041483611096565b9050600081846104249190611abf565b905060006040518060e001604052808881526020013373ffffffffffffffffffffffffffffffffffffffff168152602001838152602001600073ffffffffffffffffffffffffffffffffffffffff1681526020018481526020018773ffffffffffffffffffffffffffffffffffffffff1681526020018681525090508093505050509392505050565b7f000000000000000000000000000000000000000000000000000000000000000081565b600073ffffffffffffffffffffffffffffffffffffffff16600360009054906101000a900473ffffffffffffffffffffffffffffffffffffffff1673ffffffffffffffffffffffffffffffffffffffff1603610562576040517f08c379a000000000000000000000000000000000000000000000000000000000815260040161055990611b76565b60405180910390fd5b6001600081548092919061057590611b96565b919050555060006105896001548686610401565b905080604001517f000000000000000000000000000000000000000000000000000000000000000073ffffffffffffffffffffffffffffffffffffffff166370a08231336040518263ffffffff1660e01b81526004016105e9919061183c565b602060405180830381865afa158015610606573d6000803e3d6000fd5b505050506040513d601f19601f8201168201806040525081019061062a9190611bf3565b1161066a576040517f08c379a000000000000000000000000000000000000000000000000000000000815260040161066190611c92565b60405180910390fd5b7f000000000000000000000000000000000000000000000000000000000000000073ffffffffffffffffffffffffffffffffffffffff166323b872dd33600360009054906101000a900473ffffffffffffffffffffffffffffffffffffffff1684604001516040518463ffffffff1660e01b81526004016106ed93929190611cb2565b6020604051808303816000875af115801561070c573d6000803e3d6000fd5b505050506040513d601f19601f820116820180604052508101906107309190611d15565b50600060066000600154815260200190815260200160002060006101000a81548160ff021916908315150217905550806005600060015481526020019081526020016000206000820151816000015560208201518160010160006101000a81548173ffffffffffffffffffffffffffffffffffffffff021916908373ffffffffffffffffffffffffffffffffffffffff1602179055506040820151816002015560608201518160030160006101000a81548173ffffffffffffffffffffffffffffffffffffffff021916908373ffffffffffffffffffffffffffffffffffffffff1602179055506080820151816004015560a08201518160050160006101000a81548173ffffffffffffffffffffffffffffffffffffffff021916908373ffffffffffffffffffffffffffffffffffffffff16021790555060c082015181600601559050508473ffffffffffffffffffffffffffffffffffffffff163373ffffffffffffffffffffffffffffffffffffffff166001547f984a71c9d95fd4794aeba33ae72edfec22053fde75488d63abef9dc69ee795af876040516108d591906117a3565b60405180910390a46108f983600154338460400151600086608001518b8b8a610e75565b5050505050565b600260009054906101000a900473ffffffffffffffffffffffffffffffffffffffff1673ffffffffffffffffffffffffffffffffffffffff163373ffffffffffffffffffffffffffffffffffffffff1614610990576040517f08c379a000000000000000000000000000000000000000000000000000000000815260040161098790611d8e565b60405180910390fd5b600073ffffffffffffffffffffffffffffffffffffffff168173ffffffffffffffffffffffffffffffffffffffff16036109ff576040517f08c379a00000000000000000000000000000000000000000000000000000000081526004016109f690611e20565b60405180910390fd5b80600360006101000a81548173ffffffffffffffffffffffffffffffffffffffff021916908373ffffffffffffffffffffffffffffffffffffffff16021790555050565b600260009054906101000a900473ffffffffffffffffffffffffffffffffffffffff1673ffffffffffffffffffffffffffffffffffffffff163373ffffffffffffffffffffffffffffffffffffffff1614610ad3576040517f08c379a0000000000000000000000000000000000000000000000000000000008152600401610aca90611d8e565b60405180910390fd5b7f000000000000000000000000000000000000000000000000000000000000000073ffffffffffffffffffffffffffffffffffffffff1663a9059cbb337f000000000000000000000000000000000000000000000000000000000000000073ffffffffffffffffffffffffffffffffffffffff166370a08231306040518263ffffffff1660e01b8152600401610b69919061183c565b602060405180830381865afa158015610b86573d6000803e3d6000fd5b505050506040513d601f19601f82011682018060405250810190610baa9190611bf3565b6040518363ffffffff1660e01b8152600401610bc7929190611e40565b6020604051808303816000875af1158015610be6573d6000803e3d6000fd5b505050506040513d601f19601f82011682018060405250810190610c0a9190611d15565b50565b6000600560008481526020019081526020016000209050818160030160006101000a81548173ffffffffffffffffffffffffffffffffffffffff021916908373ffffffffffffffffffffffffffffffffffffffff1602179055506006600084815260200190815260200160002060009054906101000a900460ff1615610cc8576040517f08c379a0000000000000000000000000000000000000000000000000000000008152600401610cbf90611eb5565b60405180910390fd5b3373ffffffffffffffffffffffffffffffffffffffff168160010160009054906101000a900473ffffffffffffffffffffffffffffffffffffffff1673ffffffffffffffffffffffffffffffffffffffff1614610d5a576040517f08c379a0000000000000000000000000000000000000000000000000000000008152600401610d5190611d8e565b60405180910390fd5b60016006600085815260200190815260200160002060006101000a81548160ff0219169083151502179055508060060154600080828254610d9b9190611abf565b92505081905550505050565b60005481565b60056020528060005260406000206000915090508060000154908060010160009054906101000a900473ffffffffffffffffffffffffffffffffffffffff16908060020154908060030160009054906101000a900473ffffffffffffffffffffffffffffffffffffffff16908060040154908060050160009054906101000a900473ffffffffffffffffffffffffffffffffffffffff16908060060154905087565b600260009054906101000a900473ffffffffffffffffffffffffffffffffffffffff1681565b600088888888888888604051602401610e9497969594939291906117cd565b6040516020818303038152906040527ffc8c517e000000000000000000000000000000000000000000000000000000007bffffffffffffffffffffffffffffffffffffffffffffffffffffffff19166020820180517bffffffffffffffffffffffffffffffffffffffffffffffffffffffff838183161783525050505090507f000000000000000000000000000000000000000000000000000000000000000073ffffffffffffffffffffffffffffffffffffffff1663624488506040518060c001604052807f1278d1be4b987e847be3465940eb5066c4604a7fbd6e086900823597d81af4c160001b81526020018d73ffffffffffffffffffffffffffffffffffffffff1681526020016040518060400160405280600073ffffffffffffffffffffffffffffffffffffffff16815260200160008152508152602001858152602001600067ffffffffffffffff811115610ff257610ff1611ed5565b5b6040519080825280602002602001820160405280156110205781602001602082028036833780820191505090505b508152602001848152506040518263ffffffff1660e01b815260040161104691906120cb565b6020604051808303816000875af1158015611065573d6000803e3d6000fd5b505050506040513d601f19601f820116820180604052508101906110899190612102565b5050505050505050505050565b600060647f0000000000000000000000000000000000000000000000000000000000000000836110c6919061212f565b6110d091906121a0565b9050919050565b7f000000000000000000000000000000000000000000000000000000000000000081565b7f000000000000000000000000000000000000000000000000000000000000000073ffffffffffffffffffffffffffffffffffffffff1663095ea7b3307fffffffffffffffffffffffffffffffffffffffffffffffffffffffffffffffff6040518363ffffffff1660e01b8152600401611176929190611e40565b6020604051808303816000875af1158015611195573d6000803e3d6000fd5b505050506040513d601f19601f820116820180604052508101906111b99190611d15565b50565b7f000000000000000000000000000000000000000000000000000000000000000073ffffffffffffffffffffffffffffffffffffffff163373ffffffffffffffffffffffffffffffffffffffff161461124a576040517f08c379a000000000000000000000000000000000000000000000000000000000815260040161124190612243565b60405180910390fd5b600080838360049080926112609392919061226d565b81019061126d91906122e6565b915091508383600491826112829291906124d3565b5061128d8282610c0d565b7fd48f8fe505159014f137e2a0c1ff2a2892d08c5b639c94f0303210acd4a1444084846040516112be9291906125df565b60405180910390a1505050505050565b600360009054906101000a900473ffffffffffffffffffffffffffffffffffffffff1681565b60015481565b6040518060e0016040528060008152602001600073ffffffffffffffffffffffffffffffffffffffff16815260200160008152602001600073ffffffffffffffffffffffffffffffffffffffff16815260200160008152602001600073ffffffffffffffffffffffffffffffffffffffff168152602001600081525090565b600080fd5b600080fd5b6000819050919050565b61139681611383565b81146113a157600080fd5b50565b6000813590506113b38161138d565b92915050565b6000602082840312156113cf576113ce611379565b5b60006113dd848285016113a4565b91505092915050565b60008115159050919050565b6113fb816113e6565b82525050565b600060208201905061141660008301846113f2565b92915050565b600081519050919050565b600082825260208201905092915050565b60005b8381101561145657808201518184015260208101905061143b565b60008484015250505050565b6000601f19601f8301169050919050565b600061147e8261141c565b6114888185611427565b9350611498818560208601611438565b6114a181611462565b840191505092915050565b600060208201905081810360008301526114c68184611473565b905092915050565b600073ffffffffffffffffffffffffffffffffffffffff82169050919050565b60006114f9826114ce565b9050919050565b611509816114ee565b811461151457600080fd5b50565b60008135905061152681611500565b92915050565b60008060006060848603121561154557611544611379565b5b6000611553868287016113a4565b935050602061156486828701611517565b9250506040611575868287016113a4565b9150509250925092565b61158881611383565b82525050565b611597816114ee565b82525050565b60e0820160008201516115b3600085018261157f565b5060208201516115c6602085018261158e565b5060408201516115d9604085018261157f565b5060608201516115ec606085018261158e565b5060808201516115ff608085018261157f565b5060a082015161161260a085018261158e565b5060c082015161162560c085018261157f565b50505050565b600060e082019050611640600083018461159d565b92915050565b6000819050919050565b600061166b611666611661846114ce565b611646565b6114ce565b9050919050565b600061167d82611650565b9050919050565b600061168f82611672565b9050919050565b61169f81611684565b82525050565b60006020820190506116ba6000830184611696565b92915050565b600080600080608085870312156116da576116d9611379565b5b60006116e887828801611517565b94505060206116f9878288016113a4565b935050604061170a87828801611517565b925050606061171b878288016113a4565b91505092959194509250565b60006020828403121561173d5761173c611379565b5b600061174b84828501611517565b91505092915050565b6000806040838503121561176b5761176a611379565b5b6000611779858286016113a4565b925050602061178a85828601611517565b9150509250929050565b61179d81611383565b82525050565b60006020820190506117b86000830184611794565b92915050565b6117c7816114ee565b82525050565b600060e0820190506117e2600083018a611794565b6117ef60208301896117be565b6117fc6040830188611794565b61180960608301876117be565b6118166080830186611794565b61182360a08301856117be565b61183060c0830184611794565b98975050505050505050565b600060208201905061185160008301846117be565b92915050565b60008060008060008060008060006101208a8c03121561187a57611879611379565b5b60006118888c828d01611517565b99505060206118998c828d016113a4565b98505060406118aa8c828d01611517565b97505060606118bb8c828d016113a4565b96505060806118cc8c828d01611517565b95505060a06118dd8c828d016113a4565b94505060c06118ee8c828d01611517565b93505060e06118ff8c828d016113a4565b9250506101006119118c828d016113a4565b9150509295985092959850929598565b6000819050919050565b61193481611921565b811461193f57600080fd5b50565b6000813590506119518161192b565b92915050565b600080fd5b600080fd5b600080fd5b60008083601f84011261197c5761197b611957565b5b8235905067ffffffffffffffff8111156119995761199861195c565b5b6020830191508360018202830111156119b5576119b4611961565b5b9250929050565b600080600080606085870312156119d6576119d5611379565b5b60006119e487828801611942565b94505060206119f587828801611517565b935050604085013567ffffffffffffffff811115611a1657611a1561137e565b5b611a2287828801611966565b925092505092959194509250565b7f4e487b7100000000000000000000000000000000000000000000000000000000600052602260045260246000fd5b60006002820490506001821680611a7757607f821691505b602082108103611a8a57611a89611a30565b5b50919050565b7f4e487b7100000000000000000000000000000000000000000000000000000000600052601160045260246000fd5b6000611aca82611383565b9150611ad583611383565b9250828201905080821115611aed57611aec611a90565b5b92915050565b600082825260208201905092915050565b7f52656365697665724f6e5375626e65743a204343495053656e646572206e6f7460008201527f2073657400000000000000000000000000000000000000000000000000000000602082015250565b6000611b60602483611af3565b9150611b6b82611b04565b604082019050919050565b60006020820190508181036000830152611b8f81611b53565b9050919050565b6000611ba182611383565b91507fffffffffffffffffffffffffffffffffffffffffffffffffffffffffffffffff8203611bd357611bd2611a90565b5b600182019050919050565b600081519050611bed8161138d565b92915050565b600060208284031215611c0957611c08611379565b5b6000611c1784828501611bde565b91505092915050565b7f44697370617463682043436861696e3a20496e73756666696369656e7420555360008201527f4443000000000000000000000000000000000000000000000000000000000000602082015250565b6000611c7c602283611af3565b9150611c8782611c20565b604082019050919050565b60006020820190508181036000830152611cab81611c6f565b9050919050565b6000606082019050611cc760008301866117be565b611cd460208301856117be565b611ce16040830184611794565b949350505050565b611cf2816113e6565b8114611cfd57600080fd5b50565b600081519050611d0f81611ce9565b92915050565b600060208284031215611d2b57611d2a611379565b5b6000611d3984828501611d00565b91505092915050565b7f44697370617463683a20756e617574686f72697a656400000000000000000000600082015250565b6000611d78601683611af3565b9150611d8382611d42565b602082019050919050565b60006020820190508181036000830152611da781611d6b565b9050919050565b7f52656365697665724f6e5375626e65743a20696e76616c69642043434950536560008201527f6e64657220616464726573730000000000000000000000000000000000000000602082015250565b6000611e0a602c83611af3565b9150611e1582611dae565b604082019050919050565b60006020820190508181036000830152611e3981611dfd565b9050919050565b6000604082019050611e5560008301856117be565b611e626020830184611794565b9392505050565b7f44697370617463683a20616c7265616479206469737061746368656400000000600082015250565b6000611e9f601c83611af3565b9150611eaa82611e69565b602082019050919050565b60006020820190508181036000830152611ece81611e92565b9050919050565b7f4e487b7100000000000000000000000000000000000000000000000000000000600052604160045260246000fd5b611f0d81611921565b82525050565b604082016000820151611f29600085018261158e565b506020820151611f3c602085018261157f565b50505050565b600081519050919050565b600082825260208201905092915050565b6000819050602082019050919050565b6000611f7a838361158e565b60208301905092915050565b6000602082019050919050565b6000611f9e82611f42565b611fa88185611f4d565b9350611fb383611f5e565b8060005b83811015611fe4578151611fcb8882611f6e565b9750611fd683611f86565b925050600181019050611fb7565b5085935050505092915050565b600082825260208201905092915050565b600061200d8261141c565b6120178185611ff1565b9350612027818560208601611438565b61203081611462565b840191505092915050565b600060e0830160008301516120536000860182611f04565b506020830151612066602086018261158e565b5060408301516120796040860182611f13565b50606083015161208c608086018261157f565b50608083015184820360a08601526120a48282611f93565b91505060a083015184820360c08601526120be8282612002565b9150508091505092915050565b600060208201905081810360008301526120e5818461203b565b905092915050565b6000815190506120fc8161192b565b92915050565b60006020828403121561211857612117611379565b5b6000612126848285016120ed565b91505092915050565b600061213a82611383565b915061214583611383565b925082820261215381611383565b9150828204841483151761216a57612169611a90565b5b5092915050565b7f4e487b7100000000000000000000000000000000000000000000000000000000600052601260045260246000fd5b60006121ab82611383565b91506121b683611383565b9250826121c6576121c5612171565b5b828204905092915050565b7f52656365697665724f6e5375626e65743a20756e617574686f72697a6564205460008201527f656c65706f727465724d657373656e6765720000000000000000000000000000602082015250565b600061222d603283611af3565b9150612238826121d1565b604082019050919050565b6000602082019050818103600083015261225c81612220565b9050919050565b600080fd5b600080fd5b6000808585111561228157612280612263565b5b8386111561229257612291612268565b5b6001850283019150848603905094509492505050565b60006122b3826114ce565b9050919050565b6122c3816122a8565b81146122ce57600080fd5b50565b6000813590506122e0816122ba565b92915050565b600080604083850312156122fd576122fc611379565b5b600061230b858286016113a4565b925050602061231c858286016122d1565b9150509250929050565b600082905092915050565b60008190508160005260206000209050919050565b60006020601f8301049050919050565b600082821b905092915050565b6000600883026123937fffffffffffffffffffffffffffffffffffffffffffffffffffffffffffffffff82612356565b61239d8683612356565b95508019841693508086168417925050509392505050565b60006123d06123cb6123c684611383565b611646565b611383565b9050919050565b6000819050919050565b6123ea836123b5565b6123fe6123f6826123d7565b848454612363565b825550505050565b600090565b612413612406565b61241e8184846123e1565b505050565b5b818110156124425761243760008261240b565b600181019050612424565b5050565b601f8211156124875761245881612331565b61246184612346565b81016020851015612470578190505b61248461247c85612346565b830182612423565b50505b505050565b600082821c905092915050565b60006124aa6000198460080261248c565b1980831691505092915050565b60006124c38383612499565b9150826002028217905092915050565b6124dd8383612326565b67ffffffffffffffff8111156124f6576124f5611ed5565b5b6125008254611a5f565b61250b828285612446565b6000601f83116001811461253a5760008415612528578287013590505b61253285826124b7565b86555061259a565b601f19841661254886612331565b60005b828110156125705784890135825560018201915060208501945060208101905061254b565b8683101561258d5784890135612589601f891682612499565b8355505b6001600288020188555050505b50505050505050565b82818337600083830152505050565b60006125be8385611427565b93506125cb8385846125a3565b6125d483611462565b840190509392505050565b600060208201905081810360008301526125fa8184866125b2565b9050939250505056fea26469706673582212203a69ba7a0c80d7aa57dca22da4e9b0f19959614693796ca9a400f47a09ada45e64736f6c63430008190033",
  "devdoc": {
    "kind": "dev",
    "methods": {},
    "version": 1
  },
  "userdoc": {
    "kind": "user",
    "methods": {},
    "version": 1
  },
  "storageLayout": {
    "storage": [
      {
        "astId": 1363,
        "contract": "contracts/DispatchCChain.sol:DispatchCChain",
        "label": "totalTransfered",
        "offset": 0,
        "slot": "0",
        "type": "t_uint256"
      },
      {
        "astId": 1365,
        "contract": "contracts/DispatchCChain.sol:DispatchCChain",
        "label": "idCounter",
        "offset": 0,
        "slot": "1",
        "type": "t_uint256"
      },
      {
        "astId": 1367,
        "contract": "contracts/DispatchCChain.sol:DispatchCChain",
        "label": "owner",
        "offset": 0,
        "slot": "2",
        "type": "t_address"
      },
      {
        "astId": 1369,
        "contract": "contracts/DispatchCChain.sol:DispatchCChain",
        "label": "ccipSender",
        "offset": 0,
        "slot": "3",
        "type": "t_address"
      },
      {
        "astId": 1371,
        "contract": "contracts/DispatchCChain.sol:DispatchCChain",
        "label": "lastMessage",
        "offset": 0,
        "slot": "4",
        "type": "t_bytes_storage"
      },
      {
        "astId": 1412,
        "contract": "contracts/DispatchCChain.sol:DispatchCChain",
        "label": "dispatches",
        "offset": 0,
        "slot": "5",
        "type": "t_mapping(t_uint256,t_struct(DispatchStruct)1398_storage)"
      },
      {
        "astId": 1416,
        "contract": "contracts/DispatchCChain.sol:DispatchCChain",
        "label": "dispatched",
        "offset": 0,
        "slot": "6",
        "type": "t_mapping(t_uint256,t_bool)"
      }
    ],
    "types": {
      "t_address": {
        "encoding": "inplace",
        "label": "address",
        "numberOfBytes": "20"
      },
      "t_bool": {
        "encoding": "inplace",
        "label": "bool",
        "numberOfBytes": "1"
      },
      "t_bytes_storage": {
        "encoding": "bytes",
        "label": "bytes",
        "numberOfBytes": "32"
      },
      "t_mapping(t_uint256,t_bool)": {
        "encoding": "mapping",
        "key": "t_uint256",
        "label": "mapping(uint256 => bool)",
        "numberOfBytes": "32",
        "value": "t_bool"
      },
      "t_mapping(t_uint256,t_struct(DispatchStruct)1398_storage)": {
        "encoding": "mapping",
        "key": "t_uint256",
        "label": "mapping(uint256 => struct DispatchCChain.DispatchStruct)",
        "numberOfBytes": "32",
        "value": "t_struct(DispatchStruct)1398_storage"
      },
      "t_struct(DispatchStruct)1398_storage": {
        "encoding": "inplace",
        "label": "struct DispatchCChain.DispatchStruct",
        "members": [
          {
            "astId": 1385,
            "contract": "contracts/DispatchCChain.sol:DispatchCChain",
            "label": "id",
            "offset": 0,
            "slot": "0",
            "type": "t_uint256"
          },
          {
            "astId": 1387,
            "contract": "contracts/DispatchCChain.sol:DispatchCChain",
            "label": "clientAddress",
            "offset": 0,
            "slot": "1",
            "type": "t_address"
          },
          {
            "astId": 1389,
            "contract": "contracts/DispatchCChain.sol:DispatchCChain",
            "label": "totalAmount",
            "offset": 0,
            "slot": "2",
            "type": "t_uint256"
          },
          {
            "astId": 1391,
            "contract": "contracts/DispatchCChain.sol:DispatchCChain",
            "label": "dispatcherAddress",
            "offset": 0,
            "slot": "3",
            "type": "t_address"
          },
          {
            "astId": 1393,
            "contract": "contracts/DispatchCChain.sol:DispatchCChain",
            "label": "dispatcherAmount",
            "offset": 0,
            "slot": "4",
            "type": "t_uint256"
          },
          {
            "astId": 1395,
            "contract": "contracts/DispatchCChain.sol:DispatchCChain",
            "label": "businessAddress",
            "offset": 0,
            "slot": "5",
            "type": "t_address"
          },
          {
            "astId": 1397,
            "contract": "contracts/DispatchCChain.sol:DispatchCChain",
            "label": "businessAmount",
            "offset": 0,
            "slot": "6",
            "type": "t_uint256"
          }
        ],
        "numberOfBytes": "224"
      },
      "t_uint256": {
        "encoding": "inplace",
        "label": "uint256",
        "numberOfBytes": "32"
      }
    }
  }
}