{
  "address": "0x54C774C9E4c22E0D28D5B877e7632AC4bbF081fc",
  "abi": [
    {
      "inputs": [],
      "stateMutability": "nonpayable",
      "type": "constructor"
    },
    {
      "anonymous": false,
      "inputs": [
        {
          "indexed": true,
          "internalType": "uint256",
          "name": "id",
          "type": "uint256"
        },
        {
          "indexed": true,
          "internalType": "address",
          "name": "clientAddress",
          "type": "address"
        },
        {
          "indexed": true,
          "internalType": "address",
          "name": "businessAddress",
          "type": "address"
        },
        {
          "indexed": false,
          "internalType": "uint256",
          "name": "amount",
          "type": "uint256"
        }
      ],
      "name": "Deposited",
      "type": "event"
    },
    {
      "anonymous": false,
      "inputs": [
        {
          "indexed": false,
          "internalType": "bytes",
          "name": "message",
          "type": "bytes"
        }
      ],
      "name": "ReceivedMessage",
      "type": "event"
    },
    {
      "inputs": [],
      "name": "approveInfinite",
      "outputs": [],
      "stateMutability": "nonpayable",
      "type": "function"
    },
    {
      "inputs": [],
      "name": "ccipSender",
      "outputs": [
        {
          "internalType": "address",
          "name": "",
          "type": "address"
        }
      ],
      "stateMutability": "view",
      "type": "function"
    },
    {
      "inputs": [
        {
          "internalType": "uint256",
          "name": "id",
          "type": "uint256"
        },
        {
          "internalType": "address",
          "name": "dispatcherAddress",
          "type": "address"
        }
      ],
      "name": "completeOrder",
      "outputs": [],
      "stateMutability": "nonpayable",
      "type": "function"
    },
    {
      "inputs": [],
      "name": "dispatchEcoContrat",
      "outputs": [
        {
          "internalType": "address",
          "name": "",
          "type": "address"
        }
      ],
      "stateMutability": "view",
      "type": "function"
    },
    {
      "inputs": [
        {
          "internalType": "uint256",
          "name": "",
          "type": "uint256"
        }
      ],
      "name": "dispatched",
      "outputs": [
        {
          "internalType": "bool",
          "name": "",
          "type": "bool"
        }
      ],
      "stateMutability": "view",
      "type": "function"
    },
    {
      "inputs": [
        {
          "internalType": "uint256",
          "name": "",
          "type": "uint256"
        }
      ],
      "name": "dispatches",
      "outputs": [
        {
          "internalType": "uint256",
          "name": "id",
          "type": "uint256"
        },
        {
          "internalType": "address",
          "name": "clientAddress",
          "type": "address"
        },
        {
          "internalType": "uint256",
          "name": "totalAmount",
          "type": "uint256"
        },
        {
          "internalType": "address",
          "name": "dispatcherAddress",
          "type": "address"
        },
        {
          "internalType": "uint256",
          "name": "dispatcherAmount",
          "type": "uint256"
        },
        {
          "internalType": "address",
          "name": "businessAddress",
          "type": "address"
        },
        {
          "internalType": "uint256",
          "name": "businessAmount",
          "type": "uint256"
        }
      ],
      "stateMutability": "view",
      "type": "function"
    },
    {
      "inputs": [],
      "name": "emergencyWithdrawUSDC",
      "outputs": [],
      "stateMutability": "nonpayable",
      "type": "function"
    },
    {
      "inputs": [],
      "name": "feePercentage",
      "outputs": [
        {
          "internalType": "uint256",
          "name": "",
          "type": "uint256"
        }
      ],
      "stateMutability": "view",
      "type": "function"
    },
    {
      "inputs": [
        {
          "internalType": "uint256",
          "name": "id",
          "type": "uint256"
        },
        {
          "internalType": "address",
          "name": "businessAddress",
          "type": "address"
        },
        {
          "internalType": "uint256",
          "name": "amount",
          "type": "uint256"
        }
      ],
      "name": "getDispatchStruct",
      "outputs": [
        {
          "components": [
            {
              "internalType": "uint256",
              "name": "id",
              "type": "uint256"
            },
            {
              "internalType": "address",
              "name": "clientAddress",
              "type": "address"
            },
            {
              "internalType": "uint256",
              "name": "totalAmount",
              "type": "uint256"
            },
            {
              "internalType": "address",
              "name": "dispatcherAddress",
              "type": "address"
            },
            {
              "internalType": "uint256",
              "name": "dispatcherAmount",
              "type": "uint256"
            },
            {
              "internalType": "address",
              "name": "businessAddress",
              "type": "address"
            },
            {
              "internalType": "uint256",
              "name": "businessAmount",
              "type": "uint256"
            }
          ],
          "internalType": "struct DispatchCChain.DispatchStruct",
          "name": "",
          "type": "tuple"
        }
      ],
      "stateMutability": "view",
      "type": "function"
    },
    {
      "inputs": [],
      "name": "idCounter",
      "outputs": [
        {
          "internalType": "uint256",
          "name": "",
          "type": "uint256"
        }
      ],
      "stateMutability": "view",
      "type": "function"
    },
    {
      "inputs": [],
      "name": "lastMessage",
      "outputs": [
        {
          "internalType": "bytes",
          "name": "",
          "type": "bytes"
        }
      ],
      "stateMutability": "view",
      "type": "function"
    },
    {
      "inputs": [],
      "name": "messenger",
      "outputs": [
        {
          "internalType": "contract ITeleporterMessenger",
          "name": "",
          "type": "address"
        }
      ],
      "stateMutability": "view",
      "type": "function"
    },
    {
      "inputs": [],
      "name": "owner",
      "outputs": [
        {
          "internalType": "address",
          "name": "",
          "type": "address"
        }
      ],
      "stateMutability": "view",
      "type": "function"
    },
    {
      "inputs": [
        {
          "internalType": "address",
          "name": "businessAddress",
          "type": "address"
        },
        {
          "internalType": "uint256",
          "name": "amount",
          "type": "uint256"
        },
        {
          "internalType": "address",
          "name": "destinationAddress",
          "type": "address"
        },
        {
          "internalType": "uint256",
          "name": "gasLimit",
          "type": "uint256"
        }
      ],
      "name": "payout",
      "outputs": [],
      "stateMutability": "nonpayable",
      "type": "function"
    },
    {
      "inputs": [
        {
          "internalType": "bytes32",
          "name": "",
          "type": "bytes32"
        },
        {
          "internalType": "address",
          "name": "",
          "type": "address"
        },
        {
          "internalType": "bytes",
          "name": "message",
          "type": "bytes"
        }
      ],
      "name": "receiveTeleporterMessage",
      "outputs": [],
      "stateMutability": "nonpayable",
      "type": "function"
    },
    {
      "inputs": [
        {
          "internalType": "bytes",
          "name": "message",
          "type": "bytes"
        }
      ],
      "name": "receiveTeleporterMessageMockUp",
      "outputs": [],
      "stateMutability": "nonpayable",
      "type": "function"
    },
    {
      "inputs": [
        {
          "internalType": "address",
          "name": "destinationAddress",
          "type": "address"
        },
        {
          "internalType": "uint256",
          "name": "id",
          "type": "uint256"
        },
        {
          "internalType": "address",
          "name": "clientAddress",
          "type": "address"
        },
        {
          "internalType": "uint256",
          "name": "totalAmount",
          "type": "uint256"
        },
        {
          "internalType": "address",
          "name": "dispatcherAddress",
          "type": "address"
        },
        {
          "internalType": "uint256",
          "name": "dispatcherAmount",
          "type": "uint256"
        },
        {
          "internalType": "address",
          "name": "businessAddress",
          "type": "address"
        },
        {
          "internalType": "uint256",
          "name": "businessAmount",
          "type": "uint256"
        },
        {
          "internalType": "uint256",
          "name": "gasLimit",
          "type": "uint256"
        }
      ],
      "name": "sendMessage",
      "outputs": [],
      "stateMutability": "nonpayable",
      "type": "function"
    },
    {
      "inputs": [],
      "name": "totalTransfered",
      "outputs": [
        {
          "internalType": "uint256",
          "name": "",
          "type": "uint256"
        }
      ],
      "stateMutability": "view",
      "type": "function"
    },
    {
      "inputs": [
        {
          "internalType": "address",
          "name": "newCCIPSender",
          "type": "address"
        }
      ],
      "name": "updateCCIPSender",
      "outputs": [],
      "stateMutability": "nonpayable",
      "type": "function"
    },
    {
      "inputs": [
        {
          "internalType": "address",
          "name": "newDispatchEchoContract",
          "type": "address"
        }
      ],
      "name": "updateDispatchEchoContract",
      "outputs": [],
      "stateMutability": "nonpayable",
      "type": "function"
    }
  ],
  "transactionHash": "0xf917f51dc2d5cc7110d17c9689304e878d3ac54fb43311c02d539a55668e455a",
  "args": [],
  "numDeployments": 1,
  "solcInputHash": "0be120d9e92a878075e4540ec126f81b",
  "bytecode": "0x60e0604052600f608090815250735425890298aed601595a70ab815c96711a31bc6573ffffffffffffffffffffffffffffffffffffffff1660a09073ffffffffffffffffffffffffffffffffffffffff1681525073253b2784c75e510dd0ff1da844684a1ac0aa5fcf73ffffffffffffffffffffffffffffffffffffffff1660c09073ffffffffffffffffffffffffffffffffffffffff168152503480156100a657600080fd5b5033600260006101000a81548173ffffffffffffffffffffffffffffffffffffffff021916908373ffffffffffffffffffffffffffffffffffffffff16021790555060805160a05160c05161275b610141600039600081816106d801526110e70152600081816107bb0152818161089501528181610e4101528181610e7e015261128e01526000818161126a0152611487015261275b6000f3fe608060405234801561001057600080fd5b506004361061012c5760003560e01c8063761968a1116100ad578063bdfe996311610071578063bdfe9963146102fd578063c868efaa14610319578063ce057d6414610335578063eb08ab2814610353578063f16a84c3146103715761012c565b8063761968a1146102655780638da5cb5b1461029b57806391010c93146102b9578063a001ecdd146102d5578063b12317da146102f35761012c565b80633cf9d1bf116100f45780633cf9d1bf146101e95780633ee3e84b146102055780634d94a75b146102215780634fef14881461023d5780635b04fed3146102475761012c565b80630bc9456a1461013157806327a2961814610161578063329707101461017d57806333924b4c1461019b5780633cb747bf146101cb575b600080fd5b61014b600480360381019061014691906116b8565b61038f565b6040516101589190611700565b60405180910390f35b61017b60048036038101906101769190611779565b6103af565b005b61018561059c565b6040516101929190611849565b60405180910390f35b6101b560048036038101906101b0919061186b565b61062a565b6040516101c2919061196a565b60405180910390f35b6101d36106d6565b6040516101e091906119e4565b60405180910390f35b61020360048036038101906101fe91906119ff565b6106fa565b005b61021f600480360381019061021a9190611a66565b610b29565b005b61023b60048036038101906102369190611a66565b610c6c565b005b610245610daf565b005b61024f610f79565b60405161025c9190611aa2565b60405180910390f35b61027f600480360381019061027a91906116b8565b610f7f565b6040516102929796959493929190611acc565b60405180910390f35b6102a3611021565b6040516102b09190611b3b565b60405180910390f35b6102d360048036038101906102ce9190611b56565b611047565b005b6102dd611268565b6040516102ea9190611aa2565b60405180910390f35b6102fb61128c565b005b61031760048036038101906103129190611c85565b61134d565b005b610333600480360381019061032e9190611d08565b6113bd565b005b61033d61142f565b60405161034a9190611b3b565b60405180910390f35b61035b611455565b6040516103689190611aa2565b60405180910390f35b61037961145b565b6040516103869190611b3b565b60405180910390f35b60076020528060005260406000206000915054906101000a900460ff1681565b6000600660008481526020019081526020016000209050818160030160006101000a81548173ffffffffffffffffffffffffffffffffffffffff021916908373ffffffffffffffffffffffffffffffffffffffff1602179055506007600084815260200190815260200160002060009054906101000a900460ff161561046a576040517f08c379a000000000000000000000000000000000000000000000000000000000815260040161046190611dd9565b60405180910390fd5b60016007600085815260200190815260200160002060006101000a81548160ff02191690831515021790555080600601546000808282546104ab9190611e28565b92505081905550600360009054906101000a900473ffffffffffffffffffffffffffffffffffffffff1673ffffffffffffffffffffffffffffffffffffffff1663619daea1848360050160009054906101000a900473ffffffffffffffffffffffffffffffffffffffff1684600601548560030160009054906101000a900473ffffffffffffffffffffffffffffffffffffffff1686600401546040518663ffffffff1660e01b8152600401610565959493929190611e5c565b600060405180830381600087803b15801561057f57600080fd5b505af1158015610593573d6000803e3d6000fd5b50505050505050565b600480546105a990611ede565b80601f01602080910402602001604051908101604052809291908181526020018280546105d590611ede565b80156106225780601f106105f757610100808354040283529160200191610622565b820191906000526020600020905b81548152906001019060200180831161060557829003601f168201915b505050505081565b6106326115f9565b600061063d83611481565b90506000818461064d9190611e28565b905060006040518060e001604052808881526020013373ffffffffffffffffffffffffffffffffffffffff168152602001838152602001600073ffffffffffffffffffffffffffffffffffffffff1681526020018481526020018773ffffffffffffffffffffffffffffffffffffffff1681526020018681525090508093505050509392505050565b7f000000000000000000000000000000000000000000000000000000000000000081565b600073ffffffffffffffffffffffffffffffffffffffff16600360009054906101000a900473ffffffffffffffffffffffffffffffffffffffff1673ffffffffffffffffffffffffffffffffffffffff160361078b576040517f08c379a000000000000000000000000000000000000000000000000000000000815260040161078290611f81565b60405180910390fd5b6001600081548092919061079e90611fa1565b919050555060006107b2600154868661062a565b905080604001517f000000000000000000000000000000000000000000000000000000000000000073ffffffffffffffffffffffffffffffffffffffff166370a08231336040518263ffffffff1660e01b81526004016108129190611b3b565b602060405180830381865afa15801561082f573d6000803e3d6000fd5b505050506040513d601f19601f820116820180604052508101906108539190611ffe565b11610893576040517f08c379a000000000000000000000000000000000000000000000000000000000815260040161088a9061209d565b60405180910390fd5b7f000000000000000000000000000000000000000000000000000000000000000073ffffffffffffffffffffffffffffffffffffffff166323b872dd33600360009054906101000a900473ffffffffffffffffffffffffffffffffffffffff1684604001516040518463ffffffff1660e01b8152600401610916939291906120bd565b6020604051808303816000875af1158015610935573d6000803e3d6000fd5b505050506040513d601f19601f820116820180604052508101906109599190612120565b50600060076000600154815260200190815260200160002060006101000a81548160ff021916908315150217905550806006600060015481526020019081526020016000206000820151816000015560208201518160010160006101000a81548173ffffffffffffffffffffffffffffffffffffffff021916908373ffffffffffffffffffffffffffffffffffffffff1602179055506040820151816002015560608201518160030160006101000a81548173ffffffffffffffffffffffffffffffffffffffff021916908373ffffffffffffffffffffffffffffffffffffffff1602179055506080820151816004015560a08201518160050160006101000a81548173ffffffffffffffffffffffffffffffffffffffff021916908373ffffffffffffffffffffffffffffffffffffffff16021790555060c082015181600601559050508473ffffffffffffffffffffffffffffffffffffffff163373ffffffffffffffffffffffffffffffffffffffff166001547f984a71c9d95fd4794aeba33ae72edfec22053fde75488d63abef9dc69ee795af87604051610afe9190611aa2565b60405180910390a4610b2283600154338460400151600086608001518b8b8a6114c2565b5050505050565b600260009054906101000a900473ffffffffffffffffffffffffffffffffffffffff1673ffffffffffffffffffffffffffffffffffffffff163373ffffffffffffffffffffffffffffffffffffffff1614610bb9576040517f08c379a0000000000000000000000000000000000000000000000000000000008152600401610bb090612199565b60405180910390fd5b600073ffffffffffffffffffffffffffffffffffffffff168173ffffffffffffffffffffffffffffffffffffffff1603610c28576040517f08c379a0000000000000000000000000000000000000000000000000000000008152600401610c1f9061222b565b60405180910390fd5b80600360006101000a81548173ffffffffffffffffffffffffffffffffffffffff021916908373ffffffffffffffffffffffffffffffffffffffff16021790555050565b600260009054906101000a900473ffffffffffffffffffffffffffffffffffffffff1673ffffffffffffffffffffffffffffffffffffffff163373ffffffffffffffffffffffffffffffffffffffff1614610cfc576040517f08c379a0000000000000000000000000000000000000000000000000000000008152600401610cf390612199565b60405180910390fd5b600073ffffffffffffffffffffffffffffffffffffffff168173ffffffffffffffffffffffffffffffffffffffff1603610d6b576040517f08c379a0000000000000000000000000000000000000000000000000000000008152600401610d62906122bd565b60405180910390fd5b80600560006101000a81548173ffffffffffffffffffffffffffffffffffffffff021916908373ffffffffffffffffffffffffffffffffffffffff16021790555050565b600260009054906101000a900473ffffffffffffffffffffffffffffffffffffffff1673ffffffffffffffffffffffffffffffffffffffff163373ffffffffffffffffffffffffffffffffffffffff1614610e3f576040517f08c379a0000000000000000000000000000000000000000000000000000000008152600401610e3690612199565b60405180910390fd5b7f000000000000000000000000000000000000000000000000000000000000000073ffffffffffffffffffffffffffffffffffffffff1663a9059cbb337f000000000000000000000000000000000000000000000000000000000000000073ffffffffffffffffffffffffffffffffffffffff166370a08231306040518263ffffffff1660e01b8152600401610ed59190611b3b565b602060405180830381865afa158015610ef2573d6000803e3d6000fd5b505050506040513d601f19601f82011682018060405250810190610f169190611ffe565b6040518363ffffffff1660e01b8152600401610f339291906122dd565b6020604051808303816000875af1158015610f52573d6000803e3d6000fd5b505050506040513d601f19601f82011682018060405250810190610f769190612120565b50565b60005481565b60066020528060005260406000206000915090508060000154908060010160009054906101000a900473ffffffffffffffffffffffffffffffffffffffff16908060020154908060030160009054906101000a900473ffffffffffffffffffffffffffffffffffffffff16908060040154908060050160009054906101000a900473ffffffffffffffffffffffffffffffffffffffff16908060060154905087565b600260009054906101000a900473ffffffffffffffffffffffffffffffffffffffff1681565b6000888888888888886040516024016110669796959493929190611acc565b6040516020818303038152906040527ffc8c517e000000000000000000000000000000000000000000000000000000007bffffffffffffffffffffffffffffffffffffffffffffffffffffffff19166020820180517bffffffffffffffffffffffffffffffffffffffffffffffffffffffff838183161783525050505090507f000000000000000000000000000000000000000000000000000000000000000073ffffffffffffffffffffffffffffffffffffffff1663624488506040518060c001604052807f9f3be606497285d0ffbb5ac9ba24aa60346a9b1812479ed66cb329f394a4b1c760001b81526020018d73ffffffffffffffffffffffffffffffffffffffff1681526020016040518060400160405280600073ffffffffffffffffffffffffffffffffffffffff16815260200160008152508152602001858152602001600067ffffffffffffffff8111156111c4576111c3612306565b5b6040519080825280602002602001820160405280156111f25781602001602082028036833780820191505090505b508152602001848152506040518263ffffffff1660e01b815260040161121891906124fc565b6020604051808303816000875af1158015611237573d6000803e3d6000fd5b505050506040513d601f19601f8201168201806040525081019061125b9190612533565b5050505050505050505050565b7f000000000000000000000000000000000000000000000000000000000000000081565b7f000000000000000000000000000000000000000000000000000000000000000073ffffffffffffffffffffffffffffffffffffffff1663095ea7b3307fffffffffffffffffffffffffffffffffffffffffffffffffffffffffffffffff6040518363ffffffff1660e01b81526004016113079291906122dd565b6020604051808303816000875af1158015611326573d6000803e3d6000fd5b505050506040513d601f19601f8201168201806040525081019061134a9190612120565b50565b600080838360049080926113639392919061256a565b81019061137091906125e3565b9150915061137e82826103af565b7fd48f8fe505159014f137e2a0c1ff2a2892d08c5b639c94f0303210acd4a1444084846040516113af92919061265f565b60405180910390a150505050565b600080838360049080926113d39392919061256a565b8101906113e091906125e3565b915091506113ee82826103af565b7fd48f8fe505159014f137e2a0c1ff2a2892d08c5b639c94f0303210acd4a14440848460405161141f92919061265f565b60405180910390a1505050505050565b600360009054906101000a900473ffffffffffffffffffffffffffffffffffffffff1681565b60015481565b600560009054906101000a900473ffffffffffffffffffffffffffffffffffffffff1681565b600060647f0000000000000000000000000000000000000000000000000000000000000000836114b19190612683565b6114bb91906126f4565b9050919050565b6000888888888888886040516024016114e19796959493929190611acc565b6040516020818303038152906040527ffc8c517e000000000000000000000000000000000000000000000000000000007bffffffffffffffffffffffffffffffffffffffffffffffffffffffff19166020820180517bffffffffffffffffffffffffffffffffffffffffffffffffffffffff83818316178352505050509050600560009054906101000a900473ffffffffffffffffffffffffffffffffffffffff1673ffffffffffffffffffffffffffffffffffffffff1663bdfe9963826040518263ffffffff1660e01b81526004016115bb9190611849565b600060405180830381600087803b1580156115d557600080fd5b505af11580156115e9573d6000803e3d6000fd5b5050505050505050505050505050565b6040518060e0016040528060008152602001600073ffffffffffffffffffffffffffffffffffffffff16815260200160008152602001600073ffffffffffffffffffffffffffffffffffffffff16815260200160008152602001600073ffffffffffffffffffffffffffffffffffffffff168152602001600081525090565b600080fd5b600080fd5b6000819050919050565b61169581611682565b81146116a057600080fd5b50565b6000813590506116b28161168c565b92915050565b6000602082840312156116ce576116cd611678565b5b60006116dc848285016116a3565b91505092915050565b60008115159050919050565b6116fa816116e5565b82525050565b600060208201905061171560008301846116f1565b92915050565b600073ffffffffffffffffffffffffffffffffffffffff82169050919050565b60006117468261171b565b9050919050565b6117568161173b565b811461176157600080fd5b50565b6000813590506117738161174d565b92915050565b600080604083850312156117905761178f611678565b5b600061179e858286016116a3565b92505060206117af85828601611764565b9150509250929050565b600081519050919050565b600082825260208201905092915050565b60005b838110156117f35780820151818401526020810190506117d8565b60008484015250505050565b6000601f19601f8301169050919050565b600061181b826117b9565b61182581856117c4565b93506118358185602086016117d5565b61183e816117ff565b840191505092915050565b600060208201905081810360008301526118638184611810565b905092915050565b60008060006060848603121561188457611883611678565b5b6000611892868287016116a3565b93505060206118a386828701611764565b92505060406118b4868287016116a3565b9150509250925092565b6118c781611682565b82525050565b6118d68161173b565b82525050565b60e0820160008201516118f260008501826118be565b50602082015161190560208501826118cd565b50604082015161191860408501826118be565b50606082015161192b60608501826118cd565b50608082015161193e60808501826118be565b5060a082015161195160a08501826118cd565b5060c082015161196460c08501826118be565b50505050565b600060e08201905061197f60008301846118dc565b92915050565b6000819050919050565b60006119aa6119a56119a08461171b565b611985565b61171b565b9050919050565b60006119bc8261198f565b9050919050565b60006119ce826119b1565b9050919050565b6119de816119c3565b82525050565b60006020820190506119f960008301846119d5565b92915050565b60008060008060808587031215611a1957611a18611678565b5b6000611a2787828801611764565b9450506020611a38878288016116a3565b9350506040611a4987828801611764565b9250506060611a5a878288016116a3565b91505092959194509250565b600060208284031215611a7c57611a7b611678565b5b6000611a8a84828501611764565b91505092915050565b611a9c81611682565b82525050565b6000602082019050611ab76000830184611a93565b92915050565b611ac68161173b565b82525050565b600060e082019050611ae1600083018a611a93565b611aee6020830189611abd565b611afb6040830188611a93565b611b086060830187611abd565b611b156080830186611a93565b611b2260a0830185611abd565b611b2f60c0830184611a93565b98975050505050505050565b6000602082019050611b506000830184611abd565b92915050565b60008060008060008060008060006101208a8c031215611b7957611b78611678565b5b6000611b878c828d01611764565b9950506020611b988c828d016116a3565b9850506040611ba98c828d01611764565b9750506060611bba8c828d016116a3565b9650506080611bcb8c828d01611764565b95505060a0611bdc8c828d016116a3565b94505060c0611bed8c828d01611764565b93505060e0611bfe8c828d016116a3565b925050610100611c108c828d016116a3565b9150509295985092959850929598565b600080fd5b600080fd5b600080fd5b60008083601f840112611c4557611c44611c20565b5b8235905067ffffffffffffffff811115611c6257611c61611c25565b5b602083019150836001820283011115611c7e57611c7d611c2a565b5b9250929050565b60008060208385031215611c9c57611c9b611678565b5b600083013567ffffffffffffffff811115611cba57611cb961167d565b5b611cc685828601611c2f565b92509250509250929050565b6000819050919050565b611ce581611cd2565b8114611cf057600080fd5b50565b600081359050611d0281611cdc565b92915050565b60008060008060608587031215611d2257611d21611678565b5b6000611d3087828801611cf3565b9450506020611d4187828801611764565b935050604085013567ffffffffffffffff811115611d6257611d6161167d565b5b611d6e87828801611c2f565b925092505092959194509250565b600082825260208201905092915050565b7f44697370617463683a20616c7265616479206469737061746368656400000000600082015250565b6000611dc3601c83611d7c565b9150611dce82611d8d565b602082019050919050565b60006020820190508181036000830152611df281611db6565b9050919050565b7f4e487b7100000000000000000000000000000000000000000000000000000000600052601160045260246000fd5b6000611e3382611682565b9150611e3e83611682565b9250828201905080821115611e5657611e55611df9565b5b92915050565b600060a082019050611e716000830188611a93565b611e7e6020830187611abd565b611e8b6040830186611a93565b611e986060830185611abd565b611ea56080830184611a93565b9695505050505050565b7f4e487b7100000000000000000000000000000000000000000000000000000000600052602260045260246000fd5b60006002820490506001821680611ef657607f821691505b602082108103611f0957611f08611eaf565b5b50919050565b7f52656365697665724f6e5375626e65743a204343495053656e646572206e6f7460008201527f2073657400000000000000000000000000000000000000000000000000000000602082015250565b6000611f6b602483611d7c565b9150611f7682611f0f565b604082019050919050565b60006020820190508181036000830152611f9a81611f5e565b9050919050565b6000611fac82611682565b91507fffffffffffffffffffffffffffffffffffffffffffffffffffffffffffffffff8203611fde57611fdd611df9565b5b600182019050919050565b600081519050611ff88161168c565b92915050565b60006020828403121561201457612013611678565b5b600061202284828501611fe9565b91505092915050565b7f44697370617463682043436861696e3a20496e73756666696369656e7420555360008201527f4443000000000000000000000000000000000000000000000000000000000000602082015250565b6000612087602283611d7c565b91506120928261202b565b604082019050919050565b600060208201905081810360008301526120b68161207a565b9050919050565b60006060820190506120d26000830186611abd565b6120df6020830185611abd565b6120ec6040830184611a93565b949350505050565b6120fd816116e5565b811461210857600080fd5b50565b60008151905061211a816120f4565b92915050565b60006020828403121561213657612135611678565b5b60006121448482850161210b565b91505092915050565b7f52656365697665724f6e5375626e65743a206f6e6c79206f776e657200000000600082015250565b6000612183601c83611d7c565b915061218e8261214d565b602082019050919050565b600060208201905081810360008301526121b281612176565b9050919050565b7f52656365697665724f6e5375626e65743a20696e76616c69642043434950536560008201527f6e64657220616464726573730000000000000000000000000000000000000000602082015250565b6000612215602c83611d7c565b9150612220826121b9565b604082019050919050565b6000602082019050818103600083015261224481612208565b9050919050565b7f52656365697665724f6e5375626e65743a20696e76616c69642044697370617460008201527f63684563686f2061646472657373000000000000000000000000000000000000602082015250565b60006122a7602e83611d7c565b91506122b28261224b565b604082019050919050565b600060208201905081810360008301526122d68161229a565b9050919050565b60006040820190506122f26000830185611abd565b6122ff6020830184611a93565b9392505050565b7f4e487b7100000000000000000000000000000000000000000000000000000000600052604160045260246000fd5b61233e81611cd2565b82525050565b60408201600082015161235a60008501826118cd565b50602082015161236d60208501826118be565b50505050565b600081519050919050565b600082825260208201905092915050565b6000819050602082019050919050565b60006123ab83836118cd565b60208301905092915050565b6000602082019050919050565b60006123cf82612373565b6123d9818561237e565b93506123e48361238f565b8060005b838110156124155781516123fc888261239f565b9750612407836123b7565b9250506001810190506123e8565b5085935050505092915050565b600082825260208201905092915050565b600061243e826117b9565b6124488185612422565b93506124588185602086016117d5565b612461816117ff565b840191505092915050565b600060e0830160008301516124846000860182612335565b50602083015161249760208601826118cd565b5060408301516124aa6040860182612344565b5060608301516124bd60808601826118be565b50608083015184820360a08601526124d582826123c4565b91505060a083015184820360c08601526124ef8282612433565b9150508091505092915050565b60006020820190508181036000830152612516818461246c565b905092915050565b60008151905061252d81611cdc565b92915050565b60006020828403121561254957612548611678565b5b60006125578482850161251e565b91505092915050565b600080fd5b600080fd5b6000808585111561257e5761257d612560565b5b8386111561258f5761258e612565565b5b6001850283019150848603905094509492505050565b60006125b08261171b565b9050919050565b6125c0816125a5565b81146125cb57600080fd5b50565b6000813590506125dd816125b7565b92915050565b600080604083850312156125fa576125f9611678565b5b6000612608858286016116a3565b9250506020612619858286016125ce565b9150509250929050565b82818337600083830152505050565b600061263e83856117c4565b935061264b838584612623565b612654836117ff565b840190509392505050565b6000602082019050818103600083015261267a818486612632565b90509392505050565b600061268e82611682565b915061269983611682565b92508282026126a781611682565b915082820484148315176126be576126bd611df9565b5b5092915050565b7f4e487b7100000000000000000000000000000000000000000000000000000000600052601260045260246000fd5b60006126ff82611682565b915061270a83611682565b92508261271a576127196126c5565b5b82820490509291505056fea2646970667358221220265c6daede977f8c3e575cfad74d022c6767f6ed3f4c7b2253c503745b751a4a64736f6c63430008190033",
  "devdoc": {
    "kind": "dev",
    "methods": {},
    "version": 1
  },
  "userdoc": {
    "kind": "user",
    "methods": {},
    "version": 1
  },
  "storageLayout": {
    "storage": [
      {
        "astId": 1347,
        "contract": "contracts/DispatchCChain.sol:DispatchCChain",
        "label": "totalTransfered",
        "offset": 0,
        "slot": "0",
        "type": "t_uint256"
      },
      {
        "astId": 1349,
        "contract": "contracts/DispatchCChain.sol:DispatchCChain",
        "label": "idCounter",
        "offset": 0,
        "slot": "1",
        "type": "t_uint256"
      },
      {
        "astId": 1351,
        "contract": "contracts/DispatchCChain.sol:DispatchCChain",
        "label": "owner",
        "offset": 0,
        "slot": "2",
        "type": "t_address"
      },
      {
        "astId": 1353,
        "contract": "contracts/DispatchCChain.sol:DispatchCChain",
        "label": "ccipSender",
        "offset": 0,
        "slot": "3",
        "type": "t_address"
      },
      {
        "astId": 1355,
        "contract": "contracts/DispatchCChain.sol:DispatchCChain",
        "label": "lastMessage",
        "offset": 0,
        "slot": "4",
        "type": "t_bytes_storage"
      },
      {
        "astId": 1357,
        "contract": "contracts/DispatchCChain.sol:DispatchCChain",
        "label": "dispatchEcoContrat",
        "offset": 0,
        "slot": "5",
        "type": "t_address"
      },
      {
        "astId": 1398,
        "contract": "contracts/DispatchCChain.sol:DispatchCChain",
        "label": "dispatches",
        "offset": 0,
        "slot": "6",
        "type": "t_mapping(t_uint256,t_struct(DispatchStruct)1384_storage)"
      },
      {
        "astId": 1402,
        "contract": "contracts/DispatchCChain.sol:DispatchCChain",
        "label": "dispatched",
        "offset": 0,
        "slot": "7",
        "type": "t_mapping(t_uint256,t_bool)"
      }
    ],
    "types": {
      "t_address": {
        "encoding": "inplace",
        "label": "address",
        "numberOfBytes": "20"
      },
      "t_bool": {
        "encoding": "inplace",
        "label": "bool",
        "numberOfBytes": "1"
      },
      "t_bytes_storage": {
        "encoding": "bytes",
        "label": "bytes",
        "numberOfBytes": "32"
      },
      "t_mapping(t_uint256,t_bool)": {
        "encoding": "mapping",
        "key": "t_uint256",
        "label": "mapping(uint256 => bool)",
        "numberOfBytes": "32",
        "value": "t_bool"
      },
      "t_mapping(t_uint256,t_struct(DispatchStruct)1384_storage)": {
        "encoding": "mapping",
        "key": "t_uint256",
        "label": "mapping(uint256 => struct DispatchCChain.DispatchStruct)",
        "numberOfBytes": "32",
        "value": "t_struct(DispatchStruct)1384_storage"
      },
      "t_struct(DispatchStruct)1384_storage": {
        "encoding": "inplace",
        "label": "struct DispatchCChain.DispatchStruct",
        "members": [
          {
            "astId": 1371,
            "contract": "contracts/DispatchCChain.sol:DispatchCChain",
            "label": "id",
            "offset": 0,
            "slot": "0",
            "type": "t_uint256"
          },
          {
            "astId": 1373,
            "contract": "contracts/DispatchCChain.sol:DispatchCChain",
            "label": "clientAddress",
            "offset": 0,
            "slot": "1",
            "type": "t_address"
          },
          {
            "astId": 1375,
            "contract": "contracts/DispatchCChain.sol:DispatchCChain",
            "label": "totalAmount",
            "offset": 0,
            "slot": "2",
            "type": "t_uint256"
          },
          {
            "astId": 1377,
            "contract": "contracts/DispatchCChain.sol:DispatchCChain",
            "label": "dispatcherAddress",
            "offset": 0,
            "slot": "3",
            "type": "t_address"
          },
          {
            "astId": 1379,
            "contract": "contracts/DispatchCChain.sol:DispatchCChain",
            "label": "dispatcherAmount",
            "offset": 0,
            "slot": "4",
            "type": "t_uint256"
          },
          {
            "astId": 1381,
            "contract": "contracts/DispatchCChain.sol:DispatchCChain",
            "label": "businessAddress",
            "offset": 0,
            "slot": "5",
            "type": "t_address"
          },
          {
            "astId": 1383,
            "contract": "contracts/DispatchCChain.sol:DispatchCChain",
            "label": "businessAmount",
            "offset": 0,
            "slot": "6",
            "type": "t_uint256"
          }
        ],
        "numberOfBytes": "224"
      },
      "t_uint256": {
        "encoding": "inplace",
        "label": "uint256",
        "numberOfBytes": "32"
      }
    }
  }
}