{
  "address": "0x8b637F8943876375b62af0f4028FE3f595584EEF",
  "abi": [
    {
      "inputs": [],
      "stateMutability": "nonpayable",
      "type": "constructor"
    },
    {
      "anonymous": false,
      "inputs": [
        {
          "indexed": true,
          "internalType": "uint256",
          "name": "id",
          "type": "uint256"
        },
        {
          "indexed": true,
          "internalType": "address",
          "name": "clientAddress",
          "type": "address"
        },
        {
          "indexed": true,
          "internalType": "address",
          "name": "businessAddress",
          "type": "address"
        },
        {
          "indexed": false,
          "internalType": "uint256",
          "name": "amount",
          "type": "uint256"
        }
      ],
      "name": "Deposited",
      "type": "event"
    },
    {
      "anonymous": false,
      "inputs": [
        {
          "indexed": false,
          "internalType": "bytes",
          "name": "message",
          "type": "bytes"
        }
      ],
      "name": "ReceivedMessage",
      "type": "event"
    },
    {
      "inputs": [],
      "name": "approveInfinite",
      "outputs": [],
      "stateMutability": "nonpayable",
      "type": "function"
    },
    {
      "inputs": [
        {
          "internalType": "uint256",
          "name": "amount",
          "type": "uint256"
        }
      ],
      "name": "calculateFee",
      "outputs": [
        {
          "internalType": "uint256",
          "name": "",
          "type": "uint256"
        }
      ],
      "stateMutability": "view",
      "type": "function"
    },
    {
      "inputs": [],
      "name": "ccipSender",
      "outputs": [
        {
          "internalType": "address",
          "name": "",
          "type": "address"
        }
      ],
      "stateMutability": "view",
      "type": "function"
    },
    {
      "inputs": [
        {
          "internalType": "uint256",
          "name": "",
          "type": "uint256"
        }
      ],
      "name": "dispatched",
      "outputs": [
        {
          "internalType": "bool",
          "name": "",
          "type": "bool"
        }
      ],
      "stateMutability": "view",
      "type": "function"
    },
    {
      "inputs": [
        {
          "internalType": "uint256",
          "name": "",
          "type": "uint256"
        }
      ],
      "name": "dispatches",
      "outputs": [
        {
          "internalType": "uint256",
          "name": "id",
          "type": "uint256"
        },
        {
          "internalType": "address",
          "name": "clientAddress",
          "type": "address"
        },
        {
          "internalType": "uint256",
          "name": "totalAmount",
          "type": "uint256"
        },
        {
          "internalType": "address",
          "name": "dispatcherAddress",
          "type": "address"
        },
        {
          "internalType": "uint256",
          "name": "dispatcherAmount",
          "type": "uint256"
        },
        {
          "internalType": "address",
          "name": "businessAddress",
          "type": "address"
        },
        {
          "internalType": "uint256",
          "name": "businessAmount",
          "type": "uint256"
        }
      ],
      "stateMutability": "view",
      "type": "function"
    },
    {
      "inputs": [],
      "name": "emergencyWithdrawUSDC",
      "outputs": [],
      "stateMutability": "nonpayable",
      "type": "function"
    },
    {
      "inputs": [],
      "name": "feePercentage",
      "outputs": [
        {
          "internalType": "uint256",
          "name": "",
          "type": "uint256"
        }
      ],
      "stateMutability": "view",
      "type": "function"
    },
    {
      "inputs": [
        {
          "internalType": "uint256",
          "name": "id",
          "type": "uint256"
        },
        {
          "internalType": "address",
          "name": "dispatcherAddress",
          "type": "address"
        }
      ],
      "name": "finalize",
      "outputs": [],
      "stateMutability": "nonpayable",
      "type": "function"
    },
    {
      "inputs": [
        {
          "internalType": "uint256",
          "name": "id",
          "type": "uint256"
        },
        {
          "internalType": "address",
          "name": "businessAddress",
          "type": "address"
        },
        {
          "internalType": "uint256",
          "name": "amount",
          "type": "uint256"
        }
      ],
      "name": "getDispatchStruct",
      "outputs": [
        {
          "components": [
            {
              "internalType": "uint256",
              "name": "id",
              "type": "uint256"
            },
            {
              "internalType": "address",
              "name": "clientAddress",
              "type": "address"
            },
            {
              "internalType": "uint256",
              "name": "totalAmount",
              "type": "uint256"
            },
            {
              "internalType": "address",
              "name": "dispatcherAddress",
              "type": "address"
            },
            {
              "internalType": "uint256",
              "name": "dispatcherAmount",
              "type": "uint256"
            },
            {
              "internalType": "address",
              "name": "businessAddress",
              "type": "address"
            },
            {
              "internalType": "uint256",
              "name": "businessAmount",
              "type": "uint256"
            }
          ],
          "internalType": "struct DispatchCChain.DispatchStruct",
          "name": "",
          "type": "tuple"
        }
      ],
      "stateMutability": "view",
      "type": "function"
    },
    {
      "inputs": [],
      "name": "idCounter",
      "outputs": [
        {
          "internalType": "uint256",
          "name": "",
          "type": "uint256"
        }
      ],
      "stateMutability": "view",
      "type": "function"
    },
    {
      "inputs": [],
      "name": "lastMessage",
      "outputs": [
        {
          "internalType": "bytes",
          "name": "",
          "type": "bytes"
        }
      ],
      "stateMutability": "view",
      "type": "function"
    },
    {
      "inputs": [],
      "name": "messenger",
      "outputs": [
        {
          "internalType": "contract ITeleporterMessenger",
          "name": "",
          "type": "address"
        }
      ],
      "stateMutability": "view",
      "type": "function"
    },
    {
      "inputs": [],
      "name": "owner",
      "outputs": [
        {
          "internalType": "address",
          "name": "",
          "type": "address"
        }
      ],
      "stateMutability": "view",
      "type": "function"
    },
    {
      "inputs": [
        {
          "internalType": "address",
          "name": "businessAddress",
          "type": "address"
        },
        {
          "internalType": "uint256",
          "name": "amount",
          "type": "uint256"
        },
        {
          "internalType": "address",
          "name": "destinationAddress",
          "type": "address"
        },
        {
          "internalType": "uint256",
          "name": "gasLimit",
          "type": "uint256"
        }
      ],
      "name": "payout",
      "outputs": [],
      "stateMutability": "nonpayable",
      "type": "function"
    },
    {
      "inputs": [
        {
          "internalType": "bytes32",
          "name": "",
          "type": "bytes32"
        },
        {
          "internalType": "address",
          "name": "",
          "type": "address"
        },
        {
          "internalType": "bytes",
          "name": "message",
          "type": "bytes"
        }
      ],
      "name": "receiveTeleporterMessage",
      "outputs": [],
      "stateMutability": "nonpayable",
      "type": "function"
    },
    {
      "inputs": [
        {
          "internalType": "address",
          "name": "destinationAddress",
          "type": "address"
        },
        {
          "internalType": "uint256",
          "name": "id",
          "type": "uint256"
        },
        {
          "internalType": "address",
          "name": "clientAddress",
          "type": "address"
        },
        {
          "internalType": "uint256",
          "name": "totalAmount",
          "type": "uint256"
        },
        {
          "internalType": "address",
          "name": "dispatcherAddress",
          "type": "address"
        },
        {
          "internalType": "uint256",
          "name": "dispatcherAmount",
          "type": "uint256"
        },
        {
          "internalType": "address",
          "name": "businessAddress",
          "type": "address"
        },
        {
          "internalType": "uint256",
          "name": "businessAmount",
          "type": "uint256"
        },
        {
          "internalType": "uint256",
          "name": "gasLimit",
          "type": "uint256"
        }
      ],
      "name": "sendMessage",
      "outputs": [],
      "stateMutability": "nonpayable",
      "type": "function"
    },
    {
      "inputs": [],
      "name": "totalTransfered",
      "outputs": [
        {
          "internalType": "uint256",
          "name": "",
          "type": "uint256"
        }
      ],
      "stateMutability": "view",
      "type": "function"
    },
    {
      "inputs": [
        {
          "internalType": "address",
          "name": "newCCIPSender",
          "type": "address"
        }
      ],
      "name": "updateCCIPSender",
      "outputs": [],
      "stateMutability": "nonpayable",
      "type": "function"
    }
  ],
  "transactionHash": "0x50130e3121cfd44a01371316458ce6cf49aec69e6a487acd5740a3024fa177c3",
  "args": [],
  "numDeployments": 1,
  "solcInputHash": "f6e0222c398153f5bdde48d9760bf6cf",
  "bytecode": "0x60e0604052600f608090815250735425890298aed601595a70ab815c96711a31bc6573ffffffffffffffffffffffffffffffffffffffff1660a09073ffffffffffffffffffffffffffffffffffffffff1681525073253b2784c75e510dd0ff1da844684a1ac0aa5fcf73ffffffffffffffffffffffffffffffffffffffff1660c09073ffffffffffffffffffffffffffffffffffffffff168152503480156100a657600080fd5b5033600260006101000a81548173ffffffffffffffffffffffffffffffffffffffff021916908373ffffffffffffffffffffffffffffffffffffffff16021790555060805160a05160c0516126df610148600039600081816104af01528181610f6801526112110152600081816105920152818161066c01528181610ad501528181610b1201526111500152600081816110ef015261112c01526126df6000f3fe608060405234801561001057600080fd5b50600436106101165760003560e01c8063761968a1116100a2578063a001ecdd11610071578063a001ecdd146102d3578063b12317da146102f1578063c868efaa146102fb578063ce057d6414610317578063eb08ab281461033557610116565b8063761968a1146102335780638da5cb5b1461026957806391010c931461028757806399a5d747146102a357610116565b80633cf9d1bf116100e95780633cf9d1bf146101b75780633ee3e84b146101d35780634fef1488146101ef578063510254c1146101f95780635b04fed31461021557610116565b80630bc9456a1461011b578063329707101461014b57806333924b4c146101695780633cb747bf14610199575b600080fd5b6101356004803603810190610130919061140c565b610353565b6040516101429190611454565b60405180910390f35b610153610373565b60405161016091906114ff565b60405180910390f35b610183600480360381019061017e919061157f565b610401565b604051610190919061167e565b60405180910390f35b6101a16104ad565b6040516101ae91906116f8565b60405180910390f35b6101d160048036038101906101cc9190611713565b6104d1565b005b6101ed60048036038101906101e8919061177a565b610900565b005b6101f7610a43565b005b610213600480360381019061020e91906117a7565b610c0d565b005b61021d610dfa565b60405161022a91906117f6565b60405180910390f35b61024d6004803603810190610248919061140c565b610e00565b6040516102609796959493929190611820565b60405180910390f35b610271610ea2565b60405161027e919061188f565b60405180910390f35b6102a1600480360381019061029c91906118aa565b610ec8565b005b6102bd60048036038101906102b8919061140c565b6110e9565b6040516102ca91906117f6565b60405180910390f35b6102db61112a565b6040516102e891906117f6565b60405180910390f35b6102f961114e565b005b61031560048036038101906103109190611a0f565b61120f565b005b61031f611321565b60405161032c919061188f565b60405180910390f35b61033d611347565b60405161034a91906117f6565b60405180910390f35b60066020528060005260406000206000915054906101000a900460ff1681565b6004805461038090611ab2565b80601f01602080910402602001604051908101604052809291908181526020018280546103ac90611ab2565b80156103f95780601f106103ce576101008083540402835291602001916103f9565b820191906000526020600020905b8154815290600101906020018083116103dc57829003601f168201915b505050505081565b61040961134d565b6000610414836110e9565b9050600081846104249190611b12565b905060006040518060e001604052808881526020013373ffffffffffffffffffffffffffffffffffffffff168152602001838152602001600073ffffffffffffffffffffffffffffffffffffffff1681526020018481526020018773ffffffffffffffffffffffffffffffffffffffff1681526020018681525090508093505050509392505050565b7f000000000000000000000000000000000000000000000000000000000000000081565b600073ffffffffffffffffffffffffffffffffffffffff16600360009054906101000a900473ffffffffffffffffffffffffffffffffffffffff1673ffffffffffffffffffffffffffffffffffffffff1603610562576040517f08c379a000000000000000000000000000000000000000000000000000000000815260040161055990611bc9565b60405180910390fd5b6001600081548092919061057590611be9565b919050555060006105896001548686610401565b905080604001517f000000000000000000000000000000000000000000000000000000000000000073ffffffffffffffffffffffffffffffffffffffff166370a08231336040518263ffffffff1660e01b81526004016105e9919061188f565b602060405180830381865afa158015610606573d6000803e3d6000fd5b505050506040513d601f19601f8201168201806040525081019061062a9190611c46565b1161066a576040517f08c379a000000000000000000000000000000000000000000000000000000000815260040161066190611ce5565b60405180910390fd5b7f000000000000000000000000000000000000000000000000000000000000000073ffffffffffffffffffffffffffffffffffffffff166323b872dd33600360009054906101000a900473ffffffffffffffffffffffffffffffffffffffff1684604001516040518463ffffffff1660e01b81526004016106ed93929190611d05565b6020604051808303816000875af115801561070c573d6000803e3d6000fd5b505050506040513d601f19601f820116820180604052508101906107309190611d68565b50600060066000600154815260200190815260200160002060006101000a81548160ff021916908315150217905550806005600060015481526020019081526020016000206000820151816000015560208201518160010160006101000a81548173ffffffffffffffffffffffffffffffffffffffff021916908373ffffffffffffffffffffffffffffffffffffffff1602179055506040820151816002015560608201518160030160006101000a81548173ffffffffffffffffffffffffffffffffffffffff021916908373ffffffffffffffffffffffffffffffffffffffff1602179055506080820151816004015560a08201518160050160006101000a81548173ffffffffffffffffffffffffffffffffffffffff021916908373ffffffffffffffffffffffffffffffffffffffff16021790555060c082015181600601559050508473ffffffffffffffffffffffffffffffffffffffff163373ffffffffffffffffffffffffffffffffffffffff166001547f984a71c9d95fd4794aeba33ae72edfec22053fde75488d63abef9dc69ee795af876040516108d591906117f6565b60405180910390a46108f983600154338460400151600086608001518b8b8a610ec8565b5050505050565b600260009054906101000a900473ffffffffffffffffffffffffffffffffffffffff1673ffffffffffffffffffffffffffffffffffffffff163373ffffffffffffffffffffffffffffffffffffffff1614610990576040517f08c379a000000000000000000000000000000000000000000000000000000000815260040161098790611de1565b60405180910390fd5b600073ffffffffffffffffffffffffffffffffffffffff168173ffffffffffffffffffffffffffffffffffffffff16036109ff576040517f08c379a00000000000000000000000000000000000000000000000000000000081526004016109f690611e73565b60405180910390fd5b80600360006101000a81548173ffffffffffffffffffffffffffffffffffffffff021916908373ffffffffffffffffffffffffffffffffffffffff16021790555050565b600260009054906101000a900473ffffffffffffffffffffffffffffffffffffffff1673ffffffffffffffffffffffffffffffffffffffff163373ffffffffffffffffffffffffffffffffffffffff1614610ad3576040517f08c379a0000000000000000000000000000000000000000000000000000000008152600401610aca90611de1565b60405180910390fd5b7f000000000000000000000000000000000000000000000000000000000000000073ffffffffffffffffffffffffffffffffffffffff1663a9059cbb337f000000000000000000000000000000000000000000000000000000000000000073ffffffffffffffffffffffffffffffffffffffff166370a08231306040518263ffffffff1660e01b8152600401610b69919061188f565b602060405180830381865afa158015610b86573d6000803e3d6000fd5b505050506040513d601f19601f82011682018060405250810190610baa9190611c46565b6040518363ffffffff1660e01b8152600401610bc7929190611e93565b6020604051808303816000875af1158015610be6573d6000803e3d6000fd5b505050506040513d601f19601f82011682018060405250810190610c0a9190611d68565b50565b6000600560008481526020019081526020016000209050818160030160006101000a81548173ffffffffffffffffffffffffffffffffffffffff021916908373ffffffffffffffffffffffffffffffffffffffff1602179055506006600084815260200190815260200160002060009054906101000a900460ff1615610cc8576040517f08c379a0000000000000000000000000000000000000000000000000000000008152600401610cbf90611f08565b60405180910390fd5b60016006600085815260200190815260200160002060006101000a81548160ff0219169083151502179055508060060154600080828254610d099190611b12565b92505081905550600360009054906101000a900473ffffffffffffffffffffffffffffffffffffffff1673ffffffffffffffffffffffffffffffffffffffff1663619daea1848360050160009054906101000a900473ffffffffffffffffffffffffffffffffffffffff1684600601548560030160009054906101000a900473ffffffffffffffffffffffffffffffffffffffff1686600401546040518663ffffffff1660e01b8152600401610dc3959493929190611f28565b600060405180830381600087803b158015610ddd57600080fd5b505af1158015610df1573d6000803e3d6000fd5b50505050505050565b60005481565b60056020528060005260406000206000915090508060000154908060010160009054906101000a900473ffffffffffffffffffffffffffffffffffffffff16908060020154908060030160009054906101000a900473ffffffffffffffffffffffffffffffffffffffff16908060040154908060050160009054906101000a900473ffffffffffffffffffffffffffffffffffffffff16908060060154905087565b600260009054906101000a900473ffffffffffffffffffffffffffffffffffffffff1681565b600088888888888888604051602401610ee79796959493929190611820565b6040516020818303038152906040527ffc8c517e000000000000000000000000000000000000000000000000000000007bffffffffffffffffffffffffffffffffffffffffffffffffffffffff19166020820180517bffffffffffffffffffffffffffffffffffffffffffffffffffffffff838183161783525050505090507f000000000000000000000000000000000000000000000000000000000000000073ffffffffffffffffffffffffffffffffffffffff1663624488506040518060c001604052807f9f3be606497285d0ffbb5ac9ba24aa60346a9b1812479ed66cb329f394a4b1c760001b81526020018d73ffffffffffffffffffffffffffffffffffffffff1681526020016040518060400160405280600073ffffffffffffffffffffffffffffffffffffffff16815260200160008152508152602001858152602001600067ffffffffffffffff81111561104557611044611f7b565b5b6040519080825280602002602001820160405280156110735781602001602082028036833780820191505090505b508152602001848152506040518263ffffffff1660e01b81526004016110999190612171565b6020604051808303816000875af11580156110b8573d6000803e3d6000fd5b505050506040513d601f19601f820116820180604052508101906110dc91906121a8565b5050505050505050505050565b600060647f00000000000000000000000000000000000000000000000000000000000000008361111991906121d5565b6111239190612246565b9050919050565b7f000000000000000000000000000000000000000000000000000000000000000081565b7f000000000000000000000000000000000000000000000000000000000000000073ffffffffffffffffffffffffffffffffffffffff1663095ea7b3307fffffffffffffffffffffffffffffffffffffffffffffffffffffffffffffffff6040518363ffffffff1660e01b81526004016111c9929190611e93565b6020604051808303816000875af11580156111e8573d6000803e3d6000fd5b505050506040513d601f19601f8201168201806040525081019061120c9190611d68565b50565b7f000000000000000000000000000000000000000000000000000000000000000073ffffffffffffffffffffffffffffffffffffffff163373ffffffffffffffffffffffffffffffffffffffff161461129d576040517f08c379a0000000000000000000000000000000000000000000000000000000008152600401611294906122e9565b60405180910390fd5b600080838360049080926112b393929190612313565b8101906112c0919061238c565b915091508383600491826112d5929190612579565b506112e08282610c0d565b7fd48f8fe505159014f137e2a0c1ff2a2892d08c5b639c94f0303210acd4a144408484604051611311929190612685565b60405180910390a1505050505050565b600360009054906101000a900473ffffffffffffffffffffffffffffffffffffffff1681565b60015481565b6040518060e0016040528060008152602001600073ffffffffffffffffffffffffffffffffffffffff16815260200160008152602001600073ffffffffffffffffffffffffffffffffffffffff16815260200160008152602001600073ffffffffffffffffffffffffffffffffffffffff168152602001600081525090565b600080fd5b600080fd5b6000819050919050565b6113e9816113d6565b81146113f457600080fd5b50565b600081359050611406816113e0565b92915050565b600060208284031215611422576114216113cc565b5b6000611430848285016113f7565b91505092915050565b60008115159050919050565b61144e81611439565b82525050565b60006020820190506114696000830184611445565b92915050565b600081519050919050565b600082825260208201905092915050565b60005b838110156114a957808201518184015260208101905061148e565b60008484015250505050565b6000601f19601f8301169050919050565b60006114d18261146f565b6114db818561147a565b93506114eb81856020860161148b565b6114f4816114b5565b840191505092915050565b6000602082019050818103600083015261151981846114c6565b905092915050565b600073ffffffffffffffffffffffffffffffffffffffff82169050919050565b600061154c82611521565b9050919050565b61155c81611541565b811461156757600080fd5b50565b60008135905061157981611553565b92915050565b600080600060608486031215611598576115976113cc565b5b60006115a6868287016113f7565b93505060206115b78682870161156a565b92505060406115c8868287016113f7565b9150509250925092565b6115db816113d6565b82525050565b6115ea81611541565b82525050565b60e08201600082015161160660008501826115d2565b50602082015161161960208501826115e1565b50604082015161162c60408501826115d2565b50606082015161163f60608501826115e1565b50608082015161165260808501826115d2565b5060a082015161166560a08501826115e1565b5060c082015161167860c08501826115d2565b50505050565b600060e08201905061169360008301846115f0565b92915050565b6000819050919050565b60006116be6116b96116b484611521565b611699565b611521565b9050919050565b60006116d0826116a3565b9050919050565b60006116e2826116c5565b9050919050565b6116f2816116d7565b82525050565b600060208201905061170d60008301846116e9565b92915050565b6000806000806080858703121561172d5761172c6113cc565b5b600061173b8782880161156a565b945050602061174c878288016113f7565b935050604061175d8782880161156a565b925050606061176e878288016113f7565b91505092959194509250565b6000602082840312156117905761178f6113cc565b5b600061179e8482850161156a565b91505092915050565b600080604083850312156117be576117bd6113cc565b5b60006117cc858286016113f7565b92505060206117dd8582860161156a565b9150509250929050565b6117f0816113d6565b82525050565b600060208201905061180b60008301846117e7565b92915050565b61181a81611541565b82525050565b600060e082019050611835600083018a6117e7565b6118426020830189611811565b61184f60408301886117e7565b61185c6060830187611811565b61186960808301866117e7565b61187660a0830185611811565b61188360c08301846117e7565b98975050505050505050565b60006020820190506118a46000830184611811565b92915050565b60008060008060008060008060006101208a8c0312156118cd576118cc6113cc565b5b60006118db8c828d0161156a565b99505060206118ec8c828d016113f7565b98505060406118fd8c828d0161156a565b975050606061190e8c828d016113f7565b965050608061191f8c828d0161156a565b95505060a06119308c828d016113f7565b94505060c06119418c828d0161156a565b93505060e06119528c828d016113f7565b9250506101006119648c828d016113f7565b9150509295985092959850929598565b6000819050919050565b61198781611974565b811461199257600080fd5b50565b6000813590506119a48161197e565b92915050565b600080fd5b600080fd5b600080fd5b60008083601f8401126119cf576119ce6119aa565b5b8235905067ffffffffffffffff8111156119ec576119eb6119af565b5b602083019150836001820283011115611a0857611a076119b4565b5b9250929050565b60008060008060608587031215611a2957611a286113cc565b5b6000611a3787828801611995565b9450506020611a488782880161156a565b935050604085013567ffffffffffffffff811115611a6957611a686113d1565b5b611a75878288016119b9565b925092505092959194509250565b7f4e487b7100000000000000000000000000000000000000000000000000000000600052602260045260246000fd5b60006002820490506001821680611aca57607f821691505b602082108103611add57611adc611a83565b5b50919050565b7f4e487b7100000000000000000000000000000000000000000000000000000000600052601160045260246000fd5b6000611b1d826113d6565b9150611b28836113d6565b9250828201905080821115611b4057611b3f611ae3565b5b92915050565b600082825260208201905092915050565b7f52656365697665724f6e5375626e65743a204343495053656e646572206e6f7460008201527f2073657400000000000000000000000000000000000000000000000000000000602082015250565b6000611bb3602483611b46565b9150611bbe82611b57565b604082019050919050565b60006020820190508181036000830152611be281611ba6565b9050919050565b6000611bf4826113d6565b91507fffffffffffffffffffffffffffffffffffffffffffffffffffffffffffffffff8203611c2657611c25611ae3565b5b600182019050919050565b600081519050611c40816113e0565b92915050565b600060208284031215611c5c57611c5b6113cc565b5b6000611c6a84828501611c31565b91505092915050565b7f44697370617463682043436861696e3a20496e73756666696369656e7420555360008201527f4443000000000000000000000000000000000000000000000000000000000000602082015250565b6000611ccf602283611b46565b9150611cda82611c73565b604082019050919050565b60006020820190508181036000830152611cfe81611cc2565b9050919050565b6000606082019050611d1a6000830186611811565b611d276020830185611811565b611d3460408301846117e7565b949350505050565b611d4581611439565b8114611d5057600080fd5b50565b600081519050611d6281611d3c565b92915050565b600060208284031215611d7e57611d7d6113cc565b5b6000611d8c84828501611d53565b91505092915050565b7f44697370617463683a20756e617574686f72697a656400000000000000000000600082015250565b6000611dcb601683611b46565b9150611dd682611d95565b602082019050919050565b60006020820190508181036000830152611dfa81611dbe565b9050919050565b7f52656365697665724f6e5375626e65743a20696e76616c69642043434950536560008201527f6e64657220616464726573730000000000000000000000000000000000000000602082015250565b6000611e5d602c83611b46565b9150611e6882611e01565b604082019050919050565b60006020820190508181036000830152611e8c81611e50565b9050919050565b6000604082019050611ea86000830185611811565b611eb560208301846117e7565b9392505050565b7f44697370617463683a20616c7265616479206469737061746368656400000000600082015250565b6000611ef2601c83611b46565b9150611efd82611ebc565b602082019050919050565b60006020820190508181036000830152611f2181611ee5565b9050919050565b600060a082019050611f3d60008301886117e7565b611f4a6020830187611811565b611f5760408301866117e7565b611f646060830185611811565b611f7160808301846117e7565b9695505050505050565b7f4e487b7100000000000000000000000000000000000000000000000000000000600052604160045260246000fd5b611fb381611974565b82525050565b604082016000820151611fcf60008501826115e1565b506020820151611fe260208501826115d2565b50505050565b600081519050919050565b600082825260208201905092915050565b6000819050602082019050919050565b600061202083836115e1565b60208301905092915050565b6000602082019050919050565b600061204482611fe8565b61204e8185611ff3565b935061205983612004565b8060005b8381101561208a5781516120718882612014565b975061207c8361202c565b92505060018101905061205d565b5085935050505092915050565b600082825260208201905092915050565b60006120b38261146f565b6120bd8185612097565b93506120cd81856020860161148b565b6120d6816114b5565b840191505092915050565b600060e0830160008301516120f96000860182611faa565b50602083015161210c60208601826115e1565b50604083015161211f6040860182611fb9565b50606083015161213260808601826115d2565b50608083015184820360a086015261214a8282612039565b91505060a083015184820360c086015261216482826120a8565b9150508091505092915050565b6000602082019050818103600083015261218b81846120e1565b905092915050565b6000815190506121a28161197e565b92915050565b6000602082840312156121be576121bd6113cc565b5b60006121cc84828501612193565b91505092915050565b60006121e0826113d6565b91506121eb836113d6565b92508282026121f9816113d6565b915082820484148315176122105761220f611ae3565b5b5092915050565b7f4e487b7100000000000000000000000000000000000000000000000000000000600052601260045260246000fd5b6000612251826113d6565b915061225c836113d6565b92508261226c5761226b612217565b5b828204905092915050565b7f52656365697665724f6e5375626e65743a20756e617574686f72697a6564205460008201527f656c65706f727465724d657373656e6765720000000000000000000000000000602082015250565b60006122d3603283611b46565b91506122de82612277565b604082019050919050565b60006020820190508181036000830152612302816122c6565b9050919050565b600080fd5b600080fd5b6000808585111561232757612326612309565b5b838611156123385761233761230e565b5b6001850283019150848603905094509492505050565b600061235982611521565b9050919050565b6123698161234e565b811461237457600080fd5b50565b60008135905061238681612360565b92915050565b600080604083850312156123a3576123a26113cc565b5b60006123b1858286016113f7565b92505060206123c285828601612377565b9150509250929050565b600082905092915050565b60008190508160005260206000209050919050565b60006020601f8301049050919050565b600082821b905092915050565b6000600883026124397fffffffffffffffffffffffffffffffffffffffffffffffffffffffffffffffff826123fc565b61244386836123fc565b95508019841693508086168417925050509392505050565b600061247661247161246c846113d6565b611699565b6113d6565b9050919050565b6000819050919050565b6124908361245b565b6124a461249c8261247d565b848454612409565b825550505050565b600090565b6124b96124ac565b6124c4818484612487565b505050565b5b818110156124e8576124dd6000826124b1565b6001810190506124ca565b5050565b601f82111561252d576124fe816123d7565b612507846123ec565b81016020851015612516578190505b61252a612522856123ec565b8301826124c9565b50505b505050565b600082821c905092915050565b600061255060001984600802612532565b1980831691505092915050565b6000612569838361253f565b9150826002028217905092915050565b61258383836123cc565b67ffffffffffffffff81111561259c5761259b611f7b565b5b6125a68254611ab2565b6125b18282856124ec565b6000601f8311600181146125e057600084156125ce578287013590505b6125d8858261255d565b865550612640565b601f1984166125ee866123d7565b60005b82811015612616578489013582556001820191506020850194506020810190506125f1565b86831015612633578489013561262f601f89168261253f565b8355505b6001600288020188555050505b50505050505050565b82818337600083830152505050565b6000612664838561147a565b9350612671838584612649565b61267a836114b5565b840190509392505050565b600060208201905081810360008301526126a0818486612658565b9050939250505056fea264697066735822122089935a2cdea2e1f95038a23922555651d92d3123df4050a1ca86abd1ddc6963f64736f6c63430008190033",
  "devdoc": {
    "kind": "dev",
    "methods": {},
    "version": 1
  },
  "userdoc": {
    "kind": "user",
    "methods": {},
    "version": 1
  },
  "storageLayout": {
    "storage": [
      {
        "astId": 1365,
        "contract": "contracts/DispatchCChain.sol:DispatchCChain",
        "label": "totalTransfered",
        "offset": 0,
        "slot": "0",
        "type": "t_uint256"
      },
      {
        "astId": 1367,
        "contract": "contracts/DispatchCChain.sol:DispatchCChain",
        "label": "idCounter",
        "offset": 0,
        "slot": "1",
        "type": "t_uint256"
      },
      {
        "astId": 1369,
        "contract": "contracts/DispatchCChain.sol:DispatchCChain",
        "label": "owner",
        "offset": 0,
        "slot": "2",
        "type": "t_address"
      },
      {
        "astId": 1371,
        "contract": "contracts/DispatchCChain.sol:DispatchCChain",
        "label": "ccipSender",
        "offset": 0,
        "slot": "3",
        "type": "t_address"
      },
      {
        "astId": 1373,
        "contract": "contracts/DispatchCChain.sol:DispatchCChain",
        "label": "lastMessage",
        "offset": 0,
        "slot": "4",
        "type": "t_bytes_storage"
      },
      {
        "astId": 1414,
        "contract": "contracts/DispatchCChain.sol:DispatchCChain",
        "label": "dispatches",
        "offset": 0,
        "slot": "5",
        "type": "t_mapping(t_uint256,t_struct(DispatchStruct)1400_storage)"
      },
      {
        "astId": 1418,
        "contract": "contracts/DispatchCChain.sol:DispatchCChain",
        "label": "dispatched",
        "offset": 0,
        "slot": "6",
        "type": "t_mapping(t_uint256,t_bool)"
      }
    ],
    "types": {
      "t_address": {
        "encoding": "inplace",
        "label": "address",
        "numberOfBytes": "20"
      },
      "t_bool": {
        "encoding": "inplace",
        "label": "bool",
        "numberOfBytes": "1"
      },
      "t_bytes_storage": {
        "encoding": "bytes",
        "label": "bytes",
        "numberOfBytes": "32"
      },
      "t_mapping(t_uint256,t_bool)": {
        "encoding": "mapping",
        "key": "t_uint256",
        "label": "mapping(uint256 => bool)",
        "numberOfBytes": "32",
        "value": "t_bool"
      },
      "t_mapping(t_uint256,t_struct(DispatchStruct)1400_storage)": {
        "encoding": "mapping",
        "key": "t_uint256",
        "label": "mapping(uint256 => struct DispatchCChain.DispatchStruct)",
        "numberOfBytes": "32",
        "value": "t_struct(DispatchStruct)1400_storage"
      },
      "t_struct(DispatchStruct)1400_storage": {
        "encoding": "inplace",
        "label": "struct DispatchCChain.DispatchStruct",
        "members": [
          {
            "astId": 1387,
            "contract": "contracts/DispatchCChain.sol:DispatchCChain",
            "label": "id",
            "offset": 0,
            "slot": "0",
            "type": "t_uint256"
          },
          {
            "astId": 1389,
            "contract": "contracts/DispatchCChain.sol:DispatchCChain",
            "label": "clientAddress",
            "offset": 0,
            "slot": "1",
            "type": "t_address"
          },
          {
            "astId": 1391,
            "contract": "contracts/DispatchCChain.sol:DispatchCChain",
            "label": "totalAmount",
            "offset": 0,
            "slot": "2",
            "type": "t_uint256"
          },
          {
            "astId": 1393,
            "contract": "contracts/DispatchCChain.sol:DispatchCChain",
            "label": "dispatcherAddress",
            "offset": 0,
            "slot": "3",
            "type": "t_address"
          },
          {
            "astId": 1395,
            "contract": "contracts/DispatchCChain.sol:DispatchCChain",
            "label": "dispatcherAmount",
            "offset": 0,
            "slot": "4",
            "type": "t_uint256"
          },
          {
            "astId": 1397,
            "contract": "contracts/DispatchCChain.sol:DispatchCChain",
            "label": "businessAddress",
            "offset": 0,
            "slot": "5",
            "type": "t_address"
          },
          {
            "astId": 1399,
            "contract": "contracts/DispatchCChain.sol:DispatchCChain",
            "label": "businessAmount",
            "offset": 0,
            "slot": "6",
            "type": "t_uint256"
          }
        ],
        "numberOfBytes": "224"
      },
      "t_uint256": {
        "encoding": "inplace",
        "label": "uint256",
        "numberOfBytes": "32"
      }
    }
  }
}